{
  "contractName": "ClockOfferBase",
  "abi": [
    {
      "constant": true,
      "inputs": [],
      "name": "erc721V0",
      "outputs": [
        {
          "name": "",
          "type": "address"
        }
      ],
      "payable": false,
      "stateMutability": "view",
      "type": "function"
    },
    {
      "anonymous": false,
      "inputs": [
        {
          "indexed": false,
          "name": "tokenId",
          "type": "uint256"
        },
        {
          "indexed": false,
          "name": "price",
          "type": "uint256"
        }
      ],
      "name": "OfferCreated",
      "type": "event"
    },
    {
      "anonymous": false,
      "inputs": [
        {
          "indexed": false,
          "name": "tokenId",
          "type": "uint256"
        },
        {
          "indexed": false,
          "name": "price",
          "type": "uint256"
        },
        {
          "indexed": false,
          "name": "winner",
          "type": "address"
        }
      ],
      "name": "OfferSuccessful",
      "type": "event"
    },
    {
      "anonymous": false,
      "inputs": [
        {
          "indexed": false,
          "name": "tokenId",
          "type": "uint256"
        }
      ],
      "name": "OfferCancelled",
      "type": "event"
    },
    {
      "anonymous": false,
      "inputs": [
        {
          "indexed": false,
          "name": "message",
          "type": "string"
        }
      ],
      "name": "Trace",
      "type": "event"
    }
  ],
  "bytecode": "0x6060604052341561000f57600080fd5b60e78061001d6000396000f300606060405260043610603f576000357c0100000000000000000000000000000000000000000000000000000000900463ffffffff168063fd5a851b146044575b600080fd5b3415604e57600080fd5b60546096565b604051808273ffffffffffffffffffffffffffffffffffffffff1673ffffffffffffffffffffffffffffffffffffffff16815260200191505060405180910390f35b6000809054906101000a900473ffffffffffffffffffffffffffffffffffffffff16815600a165627a7a72305820109a9dfe42833e131ddd1c8bef6aeddf1864be0a9a46d1a688ffbd7a41b151ab0029",
  "source": "pragma solidity ^0.4.14;\n\nimport \"./ERC721V0.sol\";\n\n/// @title Offer Core\n/// @dev Contains models, variables, and internal methods for the offer.\n/// @notice We omit a fallback function to prevent accidental sends to this contract.\ncontract ClockOfferBase {\n\n    // Represents an offer on an NFT\n    struct Offer {\n        // Current owner of NFT\n        address seller;\n        // Price (in wei)\n        uint128 price;\n        // Time when offer started\n        // NOTE: 0 if this offer has been concluded\n        uint64 startedAt;\n    }\n\n    // Reference to contract tracking NFT ownership\n    ERC721V0 public erc721V0;\n\n    // Map from token ID to their corresponding offer.\n    mapping (uint256 => Offer) tokenIdToOffer;\n\n    event OfferCreated(uint256 tokenId, uint256 price);\n    event OfferSuccessful(uint256 tokenId, uint256 price, address winner);\n    event OfferCancelled(uint256 tokenId);\n\n    /// @dev Emited to trace debug messages\n    event Trace(string message);\n\n    /// @dev Returns true if the claimant owns the token.\n    /// @param _claimant - Address claiming to own the token.\n    /// @param _tokenId - ID of token whose ownership to verify.\n    function _owns(address _claimant, uint256 _tokenId) internal view returns (bool) {\n        return (erc721V0.ownerOfV0(_tokenId) == _claimant);\n    }\n\n    /// @dev Escrows the NFT, assigning ownership to this contract.\n    /// Throws if the escrow fails.\n    /// @param _owner - Current owner address of token to escrow.\n    /// @param _tokenId - ID of token whose approval to verify.\n    function _escrow(address _owner, uint256 _tokenId) internal {\n        // it will throw if transfer fails\n        erc721V0.transferFromV0(_owner, this, _tokenId);\n    }\n\n    /// @dev Transfers an NFT owned by this contract to another address.\n    /// Returns true if the transfer succeeds.\n    /// @param _receiver - Address to transfer NFT to.\n    /// @param _tokenId - ID of token to transfer.\n    function _transfer(address _receiver, uint256 _tokenId) internal {\n        // it will throw if transfer fails\n        erc721V0.transferV0(_receiver, _tokenId);\n    }\n\n    /// @dev Adds an offer to the list of open offers. Also fires the\n    ///  OfferCreated event.\n    /// @param _tokenId The ID of the token to be put on offer.\n    /// @param _offer Offer to add.\n    function _addOffer(uint256 _tokenId, Offer _offer) internal {\n        tokenIdToOffer[_tokenId] = _offer;\n\n        OfferCreated(\n            uint256(_tokenId),\n            uint256(_offer.price)\n        );\n    }\n\n    /// @dev Computes the price and transfers winnings.\n    /// Does NOT transfer ownership of token.\n    function _buy(uint256 _tokenId, uint256 _buyAmount, address buyer, address registrar)\n        internal\n        returns (uint256)\n    {\n        // Get a reference to the offer struct\n        Offer storage offer = tokenIdToOffer[_tokenId];\n\n        // Explicitly check that this offer is currently live.\n        // (Because of how Ethereum mappings work, we can't just count\n        // on the lookup above failing. An invalid _tokenId will just\n        // return an offer object that is all zeros.)\n        require(_isOnOffer(offer));\n\n        // Check that the buy is equal to the current price\n        uint256 price = offer.price;\n        require(_buyAmount >= price);\n\n        // Grab a reference to the seller before the offer struct\n        // gets deleted.\n        address seller = offer.seller;\n\n        // The buy is good! Remove the offer before sending the fees\n        // to the sender so we can't have a reentrancy attack.\n        _removeOffer(_tokenId);\n\n        // Transfer proceeds to seller (if there are any!)\n        if (price > 0) {\n            // Calculate the operator's cut.\n            // (NOTE: _computeCut() is guaranteed to return a\n            // value <= price, so this subtraction can't go negative.)\n            uint256 operatorCut = price * _computeCut(price) / 10000;\n            uint256 wordOwnerCut = price * _wordOwnerCut(_tokenId, price) / 10000;\n            uint256 registrarCut = price * 100 / 10000;\n            uint256 sellerProceeds = price - operatorCut - wordOwnerCut - registrarCut;\n\n            // NOTE: Doing a transfer() in the middle of a complex\n            // method like this is generally discouraged because of\n            // reentrancy attacks and DoS attacks if the seller is\n            // a contract with an invalid fallback function. We explicitly\n            // guard against reentrancy attacks by removing the offer\n            // before calling transfer(), and the only thing the seller\n            // can DoS is the sale of their own asset! (And if it's an\n            // accident, they can call cancelOffer(). )\n            seller.transfer(sellerProceeds);\n\n            // Distribute commissions\n            _distributeCommissions(_tokenId, price);\n\n            if (registrar != address(0)) {\n                registrar.transfer(registrarCut);\n            }\n        }\n\n        // Calculate any excess funds included with the buy. If the excess\n        // is anything worth worrying about, transfer it back to buyer.\n        // NOTE: We checked above that the buy amount is greater than or\n        // equal to the price so this cannot underflow.\n        uint256 buyExcess = _buyAmount - price;\n\n        // Return the funds. Similar to the previous transfer, this is\n        // not susceptible to a re-entry attack because the offer is\n        // removed before any transfers occur.\n        buyer.transfer(buyExcess);\n\n        // Tell the world!\n        OfferSuccessful(_tokenId, price, msg.sender);\n\n        return price;\n    }\n\n    function _distributeCommissions(uint256 _tokenId, uint256 price) internal {\n        uint256 relatedToken1;\n        uint256 relatedToken2;\n        uint256 relatedToken3;\n        uint256 relatedToken4;\n        (relatedToken1, relatedToken2, relatedToken3, relatedToken4) = erc721V0.getRelatedTokens(_tokenId);\n\n        uint256 wordOwnerProceeds = _wordOwnerProceeds(price);\n        if (relatedToken1 > 0) {\n            address wordOwner1 = erc721V0.getOwner(relatedToken1);\n            wordOwner1.transfer(wordOwnerProceeds);\n        }\n        if (relatedToken2 > 0) {\n            address wordOwner2 = erc721V0.getOwner(relatedToken2);\n            wordOwner2.transfer(wordOwnerProceeds);\n        }\n        if (relatedToken3 > 0) {\n            address wordOwner3 = erc721V0.getOwner(relatedToken3);\n            wordOwner3.transfer(wordOwnerProceeds);\n        }\n        if (relatedToken4 > 0) {\n            address wordOwner4 = erc721V0.getOwner(relatedToken4);\n            wordOwner4.transfer(wordOwnerProceeds);\n        }\n    }\n\n    /// @dev Removes an offer from the list of open offers.\n    /// @param _tokenId - ID of NFT on offer.\n    function _removeOffer(uint256 _tokenId) internal {\n        delete tokenIdToOffer[_tokenId];\n    }\n\n    /// @dev Returns true if the NFT is on offer.\n    /// @param _offer - Offer to check.\n    function _isOnOffer(Offer storage _offer) internal view returns (bool) {\n        return (_offer.startedAt > 0);\n    }\n\n    /// @dev Computes owner's cut of a sale.\n    /// @param _price - Sale price of NFT.\n    function _computeCut(uint256 _price) internal pure returns (uint256) {\n        // NOTE: We don't use SafeMath (or similar) in this function because\n        //  all of our entry functions carefully cap the maximum values for\n        //  currency (at 128-bits), and ownerCut <= 10000 (see the require()\n        //  statement in the ClockOffer constructor). The result of this\n        //  function is always guaranteed to be <= _price.\n        uint256 ownerCut = 350;\n\n        if (_price >= 5 ether) {\n            ownerCut = 200;\n        }\n        if (_price < 5 ether) {\n            ownerCut = 300;\n        }\n        if (_price < 2 ether) {\n            ownerCut = 300;\n        }\n        if (_price < 500 finney) {\n            ownerCut = 400;\n        } \n        if (_price < 50 finney) {\n            ownerCut = 500;\n        } \n\n        return ownerCut;\n    }\n\n    function _wordOwnerCut(uint256 _tokenId, uint256 price) internal returns (uint256) {\n        uint256 relatedToken1;\n        uint256 relatedToken2;\n        uint256 relatedToken3;\n        uint256 relatedToken4;\n        (relatedToken1, relatedToken2, relatedToken3, relatedToken4) = erc721V0.getRelatedTokens(_tokenId);\n\n        uint256 wordOwnerCut = 0;\n\n        if (relatedToken1 > 0) {\n            wordOwnerCut = 100;\n        }\n        if (relatedToken2 > 0) {\n            wordOwnerCut = 200;\n        }\n        if (relatedToken3 > 0) {\n            wordOwnerCut = 300;\n        }\n        if (relatedToken4 > 0) {\n            wordOwnerCut = 400;\n        }\n\n        return wordOwnerCut;\n    }\n\n    function _wordOwnerProceeds(uint256 _price) internal pure returns (uint256) {\n        uint256 wordOwnerCut = 100;\n        return _price * wordOwnerCut / 10000;\n    }\n}\n",
  "sourcePath": "/Users/jasonbanico/Dropbox/Workspace/CryptoTokenAdmin/contracts/ClockOfferBase.sol",
  "compiler": {
    "name": "solc",
    "version": "0.4.19+commit.c4cbbb05.Emscripten.clang"
  },
  "schemaVersion": "1.0.1",
  "updatedAt": "2018-03-29T07:59:13.403Z"
}