{
  "contractName": "ClockOffer",
  "abi": [
    {
      "constant": false,
      "inputs": [],
      "name": "unpause",
      "outputs": [
        {
          "name": "",
          "type": "bool"
        }
      ],
      "payable": false,
      "stateMutability": "nonpayable",
      "type": "function"
    },
    {
      "constant": true,
      "inputs": [],
      "name": "paused",
      "outputs": [
        {
          "name": "",
          "type": "bool"
        }
      ],
      "payable": false,
      "stateMutability": "view",
      "type": "function"
    },
    {
      "constant": false,
      "inputs": [],
      "name": "pause",
      "outputs": [
        {
          "name": "",
          "type": "bool"
        }
      ],
      "payable": false,
      "stateMutability": "nonpayable",
      "type": "function"
    },
    {
      "constant": true,
      "inputs": [],
      "name": "owner",
      "outputs": [
        {
          "name": "",
          "type": "address"
        }
      ],
      "payable": false,
      "stateMutability": "view",
      "type": "function"
    },
    {
      "constant": false,
      "inputs": [
        {
          "name": "newOwner",
          "type": "address"
        }
      ],
      "name": "transferOwnership",
      "outputs": [],
      "payable": false,
      "stateMutability": "nonpayable",
      "type": "function"
    },
    {
      "constant": true,
      "inputs": [],
      "name": "erc721V0",
      "outputs": [
        {
          "name": "",
          "type": "address"
        }
      ],
      "payable": false,
      "stateMutability": "view",
      "type": "function"
    },
    {
      "inputs": [
        {
          "name": "_erc721V0Address",
          "type": "address"
        },
        {
          "name": "_friendContract",
          "type": "address"
        }
      ],
      "payable": false,
      "stateMutability": "nonpayable",
      "type": "constructor"
    },
    {
      "anonymous": false,
      "inputs": [
        {
          "indexed": false,
          "name": "tokenId",
          "type": "uint256"
        },
        {
          "indexed": false,
          "name": "price",
          "type": "uint256"
        }
      ],
      "name": "OfferCreated",
      "type": "event"
    },
    {
      "anonymous": false,
      "inputs": [
        {
          "indexed": false,
          "name": "tokenId",
          "type": "uint256"
        },
        {
          "indexed": false,
          "name": "price",
          "type": "uint256"
        },
        {
          "indexed": false,
          "name": "winner",
          "type": "address"
        }
      ],
      "name": "OfferSuccessful",
      "type": "event"
    },
    {
      "anonymous": false,
      "inputs": [
        {
          "indexed": false,
          "name": "tokenId",
          "type": "uint256"
        }
      ],
      "name": "OfferCancelled",
      "type": "event"
    },
    {
      "anonymous": false,
      "inputs": [
        {
          "indexed": false,
          "name": "message",
          "type": "string"
        }
      ],
      "name": "Trace",
      "type": "event"
    },
    {
      "anonymous": false,
      "inputs": [],
      "name": "Pause",
      "type": "event"
    },
    {
      "anonymous": false,
      "inputs": [],
      "name": "Unpause",
      "type": "event"
    },
    {
      "constant": false,
      "inputs": [],
      "name": "withdrawBalance",
      "outputs": [],
      "payable": false,
      "stateMutability": "nonpayable",
      "type": "function"
    },
    {
      "constant": false,
      "inputs": [
        {
          "name": "_tokenId",
          "type": "uint256"
        },
        {
          "name": "_price",
          "type": "uint256"
        },
        {
          "name": "_seller",
          "type": "address"
        }
      ],
      "name": "createOffer",
      "outputs": [],
      "payable": false,
      "stateMutability": "nonpayable",
      "type": "function"
    },
    {
      "constant": true,
      "inputs": [
        {
          "name": "_tokenId",
          "type": "uint256"
        }
      ],
      "name": "getOffer",
      "outputs": [
        {
          "name": "seller",
          "type": "address"
        },
        {
          "name": "price",
          "type": "uint256"
        },
        {
          "name": "startedAt",
          "type": "uint256"
        }
      ],
      "payable": false,
      "stateMutability": "view",
      "type": "function"
    },
    {
      "constant": true,
      "inputs": [
        {
          "name": "_tokenId",
          "type": "uint256"
        }
      ],
      "name": "getCurrentPrice",
      "outputs": [
        {
          "name": "",
          "type": "uint256"
        }
      ],
      "payable": false,
      "stateMutability": "view",
      "type": "function"
    },
    {
      "constant": false,
      "inputs": [
        {
          "name": "_tokenId",
          "type": "uint256"
        },
        {
          "name": "newSeller",
          "type": "address"
        }
      ],
      "name": "transferOffer",
      "outputs": [],
      "payable": false,
      "stateMutability": "nonpayable",
      "type": "function"
    }
  ],
  "bytecode": "0x606060405260008060146101000a81548160ff021916908315150217905550341561002957600080fd5b6040516040806110cb833981016040528080519060200190919080519060200190919050506000336000806101000a81548173ffffffffffffffffffffffffffffffffffffffff021916908373ffffffffffffffffffffffffffffffffffffffff16021790555082905080600160006101000a81548173ffffffffffffffffffffffffffffffffffffffff021916908373ffffffffffffffffffffffffffffffffffffffff16021790555081600360006101000a81548173ffffffffffffffffffffffffffffffffffffffff021916908373ffffffffffffffffffffffffffffffffffffffff160217905550505050610fa4806101276000396000f3006060604052600436106100af576000357c0100000000000000000000000000000000000000000000000000000000900463ffffffff1680633f4ba83a146100b45780634579268a146100e15780635c975abb146101525780635fd8c7101461017f57806366b6aff6146101945780638456cb59146101df5780638da5cb5b1461020c57806397286c3914610261578063c55d0f56146102a3578063f2fde38b146102da578063fd5a851b14610313575b600080fd5b34156100bf57600080fd5b6100c7610368565b604051808215151515815260200191505060405180910390f35b34156100ec57600080fd5b610102600480803590602001909190505061042d565b604051808473ffffffffffffffffffffffffffffffffffffffff1673ffffffffffffffffffffffffffffffffffffffff168152602001838152602001828152602001935050505060405180910390f35b341561015d57600080fd5b6101656104eb565b604051808215151515815260200191505060405180910390f35b341561018a57600080fd5b6101926104fe565b005b341561019f57600080fd5b6101dd600480803590602001909190803590602001909190803573ffffffffffffffffffffffffffffffffffffffff16906020019091905050610609565b005b34156101ea57600080fd5b6101f26107b7565b604051808215151515815260200191505060405180910390f35b341561021757600080fd5b61021f61087e565b604051808273ffffffffffffffffffffffffffffffffffffffff1673ffffffffffffffffffffffffffffffffffffffff16815260200191505060405180910390f35b341561026c57600080fd5b6102a1600480803590602001909190803573ffffffffffffffffffffffffffffffffffffffff169060200190919050506108a3565b005b34156102ae57600080fd5b6102c460048080359060200190919050506109f5565b6040518082815260200191505060405180910390f35b34156102e557600080fd5b610311600480803573ffffffffffffffffffffffffffffffffffffffff16906020019091905050610a5c565b005b341561031e57600080fd5b610326610b31565b604051808273ffffffffffffffffffffffffffffffffffffffff1673ffffffffffffffffffffffffffffffffffffffff16815260200191505060405180910390f35b60008060009054906101000a900473ffffffffffffffffffffffffffffffffffffffff1673ffffffffffffffffffffffffffffffffffffffff163373ffffffffffffffffffffffffffffffffffffffff161415156103c557600080fd5b600060149054906101000a900460ff1615156103e057600080fd5b60008060146101000a81548160ff0219169083151502179055507f7805862f689e2f13df9f062ff482ad3ad112aca9e0847911ed832e158c525b3360405160405180910390a16001905090565b60008060008060026000868152602001908152602001600020905061045181610b57565b151561045c57600080fd5b8060000160009054906101000a900473ffffffffffffffffffffffffffffffffffffffff168160010160009054906101000a90046fffffffffffffffffffffffffffffffff168260010160109054906101000a900467ffffffffffffffff16816fffffffffffffffffffffffffffffffff1691508067ffffffffffffffff169050935093509350509193909250565b600060149054906101000a900460ff1681565b600080600160009054906101000a900473ffffffffffffffffffffffffffffffffffffffff1691506000809054906101000a900473ffffffffffffffffffffffffffffffffffffffff1673ffffffffffffffffffffffffffffffffffffffff163373ffffffffffffffffffffffffffffffffffffffff1614806105ac57508173ffffffffffffffffffffffffffffffffffffffff163373ffffffffffffffffffffffffffffffffffffffff16145b15156105b757600080fd5b8173ffffffffffffffffffffffffffffffffffffffff166108fc3073ffffffffffffffffffffffffffffffffffffffff16319081150290604051600060405180830381858888f1935050505090505050565b610611610f24565b600060149054906101000a900460ff1615151561062d57600080fd5b600360009054906101000a900473ffffffffffffffffffffffffffffffffffffffff1673ffffffffffffffffffffffffffffffffffffffff166368125a1b336000604051602001526040518263ffffffff167c0100000000000000000000000000000000000000000000000000000000028152600401808273ffffffffffffffffffffffffffffffffffffffff1673ffffffffffffffffffffffffffffffffffffffff168152602001915050602060405180830381600087803b15156106f257600080fd5b6102c65a03f1151561070357600080fd5b50505060405180519050151561071857600080fd5b826fffffffffffffffffffffffffffffffff168314151561073857600080fd5b6107423385610b85565b151561074d57600080fd5b6107573385610c71565b6060604051908101604052808373ffffffffffffffffffffffffffffffffffffffff168152602001846fffffffffffffffffffffffffffffffff1681526020014267ffffffffffffffff1681525090506107b18482610d81565b50505050565b60008060009054906101000a900473ffffffffffffffffffffffffffffffffffffffff1673ffffffffffffffffffffffffffffffffffffffff163373ffffffffffffffffffffffffffffffffffffffff1614151561081457600080fd5b600060149054906101000a900460ff1615151561083057600080fd5b6001600060146101000a81548160ff0219169083151502179055507f6985a02210a168e66602d3235cb6db0e70f92b3ba4d376a33c0f3d9434bff62560405160405180910390a16001905090565b6000809054906101000a900473ffffffffffffffffffffffffffffffffffffffff1681565b600080600360009054906101000a900473ffffffffffffffffffffffffffffffffffffffff1673ffffffffffffffffffffffffffffffffffffffff166368125a1b336000604051602001526040518263ffffffff167c0100000000000000000000000000000000000000000000000000000000028152600401808273ffffffffffffffffffffffffffffffffffffffff1673ffffffffffffffffffffffffffffffffffffffff168152602001915050602060405180830381600087803b151561096b57600080fd5b6102c65a03f1151561097c57600080fd5b50505060405180519050151561099157600080fd5b6002600085815260200190815260200160002091508160010160009054906101000a90046fffffffffffffffffffffffffffffffff166fffffffffffffffffffffffffffffffff1690506109e484610ea6565b6109ef848285610609565b50505050565b600080600260008481526020019081526020016000209050610a1681610b57565b1515610a2157600080fd5b8060010160009054906101000a90046fffffffffffffffffffffffffffffffff166fffffffffffffffffffffffffffffffff16915050919050565b6000809054906101000a900473ffffffffffffffffffffffffffffffffffffffff1673ffffffffffffffffffffffffffffffffffffffff163373ffffffffffffffffffffffffffffffffffffffff16141515610ab757600080fd5b600073ffffffffffffffffffffffffffffffffffffffff168173ffffffffffffffffffffffffffffffffffffffff16141515610b2e57806000806101000a81548173ffffffffffffffffffffffffffffffffffffffff021916908373ffffffffffffffffffffffffffffffffffffffff1602179055505b50565b600160009054906101000a900473ffffffffffffffffffffffffffffffffffffffff1681565b6000808260010160109054906101000a900467ffffffffffffffff1667ffffffffffffffff16119050919050565b60008273ffffffffffffffffffffffffffffffffffffffff16600160009054906101000a900473ffffffffffffffffffffffffffffffffffffffff1673ffffffffffffffffffffffffffffffffffffffff16630cadb3b1846000604051602001526040518263ffffffff167c010000000000000000000000000000000000000000000000000000000002815260040180828152602001915050602060405180830381600087803b1515610c3757600080fd5b6102c65a03f11515610c4857600080fd5b5050506040518051905073ffffffffffffffffffffffffffffffffffffffff1614905092915050565b600160009054906101000a900473ffffffffffffffffffffffffffffffffffffffff1673ffffffffffffffffffffffffffffffffffffffff166375c7f8778330846040518463ffffffff167c0100000000000000000000000000000000000000000000000000000000028152600401808473ffffffffffffffffffffffffffffffffffffffff1673ffffffffffffffffffffffffffffffffffffffff1681526020018373ffffffffffffffffffffffffffffffffffffffff1673ffffffffffffffffffffffffffffffffffffffff1681526020018281526020019350505050600060405180830381600087803b1515610d6957600080fd5b6102c65a03f11515610d7a57600080fd5b5050505050565b806002600084815260200190815260200160002060008201518160000160006101000a81548173ffffffffffffffffffffffffffffffffffffffff021916908373ffffffffffffffffffffffffffffffffffffffff16021790555060208201518160010160006101000a8154816fffffffffffffffffffffffffffffffff02191690836fffffffffffffffffffffffffffffffff16021790555060408201518160010160106101000a81548167ffffffffffffffff021916908367ffffffffffffffff1602179055509050507fd0ca477a045a99a0dcdc3d3bc74511633b83b6cc4517f1565beb39a3823e35f28282602001516fffffffffffffffffffffffffffffffff16604051808381526020018281526020019250505060405180910390a15050565b60026000828152602001908152602001600020600080820160006101000a81549073ffffffffffffffffffffffffffffffffffffffff02191690556001820160006101000a8154906fffffffffffffffffffffffffffffffff02191690556001820160106101000a81549067ffffffffffffffff0219169055505050565b606060405190810160405280600073ffffffffffffffffffffffffffffffffffffffff16815260200160006fffffffffffffffffffffffffffffffff168152602001600067ffffffffffffffff16815250905600a165627a7a72305820d071a1f3df375f549d372ec07576c5a0c42071c78b3128b10bb2d44120e8f80e0029",
  "source": "pragma solidity ^0.4.14;\n\nimport \"./Pausable.sol\";\nimport \"./ClockOfferBase.sol\";\nimport \"./FriendContract.sol\";\n\n/// @title Clock offer for non-fungible tokens.\n/// @notice We omit a fallback function to prevent accidental sends to this contract.\ncontract ClockOffer is Pausable, ClockOfferBase {\n    FriendContract friendContract;\n\n    /// @dev The ERC-165 interface signature for ERC-721.\n    ///  Ref: https://github.com/ethereum/EIPs/issues/165\n    ///  Ref: https://github.com/ethereum/EIPs/issues/721\n    /// bytes4 constant InterfaceSignature_ERC721 = bytes4(0x9a20483d);\n\n    /// @dev Constructor creates a reference to the NFT ownership contract\n    ///  and verifies the owner cut is in the valid range.\n    /// @param _erc721V0Address - address of a deployed contract implementing\n    ///  the Nonfungible Interface.\n    function ClockOffer(address _erc721V0Address, address _friendContract) public {\n        ERC721V0 candidateContract = ERC721V0(_erc721V0Address);\n        //require(candidateContract.supportsInterface(InterfaceSignature_ERC721));\n        erc721V0 = candidateContract;\n        friendContract = FriendContract(_friendContract);\n    }\n\n    /// @dev Remove all Ether from the contract, which is the owner's cuts\n    ///  as well as any Ether sent directly to the contract address.\n    ///  Always transfers to the NFT contract, but can be called either by\n    ///  the owner or the NFT contract.\n    function withdrawBalance() external {\n        address nftAddress = address(erc721V0);\n\n        require(\n            msg.sender == owner ||\n            msg.sender == nftAddress\n        );\n        // We are using this boolean method to make sure that even if one fails it will still work\n        bool res = nftAddress.send(this.balance);\n    }\n\n    /// @dev Creates and begins a new offer.\n    /// @param _tokenId - ID of token to offer, sender must be owner.\n    /// @param _price - Price of item (in wei).\n    /// @param _seller - Seller, if not the message sender\n    function createOffer(\n        uint256 _tokenId,\n        uint256 _price,\n        address _seller\n    )\n        public\n        whenNotPaused\n    {\n        require(friendContract.isFriend(msg.sender));\n        \n        // Sanity check that no inputs overflow how many bits we've allocated\n        // to store them in the offer struct.\n        require(_price == uint256(uint128(_price)));\n\n        require(_owns(msg.sender, _tokenId));\n        _escrow(msg.sender, _tokenId);\n        Offer memory offer = Offer(\n            _seller,\n            uint128(_price),\n            uint64(now)\n        );\n        _addOffer(_tokenId, offer);\n    }\n\n    /// @dev Buys on an open offer, completing the offer and transferring\n    ///  ownership of the NFT if enough Ether is supplied.\n    /// @param _tokenId - ID of token to buy on.\n    // function buy(uint256 _tokenId, uint256 _buyAmount)\n    //     external\n    //     payable\n    //     whenNotPaused\n    // {\n    //     // _buy will throw if the buy or funds transfer fails\n    //     _buy(_tokenId, _buyAmount);\n    //     _transfer(msg.sender, _tokenId);\n    // }\n\n    /// @dev Returns offer info for an NFT on offer.\n    /// @param _tokenId - ID of NFT on offer.\n    function getOffer(uint256 _tokenId)\n        external\n        view\n        returns\n    (\n        address seller,\n        uint256 price,\n        uint256 startedAt\n    ) {\n        Offer storage offer = tokenIdToOffer[_tokenId];\n        require(_isOnOffer(offer));\n        return (\n            offer.seller,\n            offer.price,\n            offer.startedAt\n        );\n    }\n\n    /// @dev Returns the current price of an offer.\n    /// @param _tokenId - ID of the token price we are checking.\n    function getCurrentPrice(uint256 _tokenId)\n        external\n        view\n        returns (uint256)\n    {\n        Offer storage offer = tokenIdToOffer[_tokenId];\n        require(_isOnOffer(offer));\n        return offer.price;\n    }\n\n    function transferOffer(uint256 _tokenId, address newSeller) public {\n        require(friendContract.isFriend(msg.sender));\n\n        Offer storage offer = tokenIdToOffer[_tokenId];\n        uint256 price = offer.price;\n        _removeOffer(_tokenId);\n        createOffer(\n            _tokenId,\n            price,\n            newSeller\n        );\n    }\n}\n",
  "sourcePath": "/Users/jasonbanico/Dropbox/Workspace/CryptoTokenAdmin/contracts/ClockOffer.sol",
  "compiler": {
    "name": "solc",
    "version": "0.4.19+commit.c4cbbb05.Emscripten.clang"
  },
  "schemaVersion": "1.0.1",
  "updatedAt": "2018-03-29T07:59:13.396Z"
}