{
  "contractName": "SaleClockOffer",
  "abi": [
    {
      "constant": false,
      "inputs": [],
      "name": "unpause",
      "outputs": [
        {
          "name": "",
          "type": "bool"
        }
      ],
      "payable": false,
      "stateMutability": "nonpayable",
      "type": "function"
    },
    {
      "constant": true,
      "inputs": [
        {
          "name": "_tokenId",
          "type": "uint256"
        }
      ],
      "name": "getOffer",
      "outputs": [
        {
          "name": "seller",
          "type": "address"
        },
        {
          "name": "price",
          "type": "uint256"
        },
        {
          "name": "startedAt",
          "type": "uint256"
        }
      ],
      "payable": false,
      "stateMutability": "view",
      "type": "function"
    },
    {
      "constant": true,
      "inputs": [],
      "name": "isSaleClockOffer",
      "outputs": [
        {
          "name": "",
          "type": "bool"
        }
      ],
      "payable": false,
      "stateMutability": "view",
      "type": "function"
    },
    {
      "constant": true,
      "inputs": [],
      "name": "paused",
      "outputs": [
        {
          "name": "",
          "type": "bool"
        }
      ],
      "payable": false,
      "stateMutability": "view",
      "type": "function"
    },
    {
      "constant": false,
      "inputs": [],
      "name": "withdrawBalance",
      "outputs": [],
      "payable": false,
      "stateMutability": "nonpayable",
      "type": "function"
    },
    {
      "constant": false,
      "inputs": [],
      "name": "pause",
      "outputs": [
        {
          "name": "",
          "type": "bool"
        }
      ],
      "payable": false,
      "stateMutability": "nonpayable",
      "type": "function"
    },
    {
      "constant": true,
      "inputs": [],
      "name": "owner",
      "outputs": [
        {
          "name": "",
          "type": "address"
        }
      ],
      "payable": false,
      "stateMutability": "view",
      "type": "function"
    },
    {
      "constant": false,
      "inputs": [
        {
          "name": "_tokenId",
          "type": "uint256"
        },
        {
          "name": "newSeller",
          "type": "address"
        }
      ],
      "name": "transferOffer",
      "outputs": [],
      "payable": false,
      "stateMutability": "nonpayable",
      "type": "function"
    },
    {
      "constant": true,
      "inputs": [
        {
          "name": "_tokenId",
          "type": "uint256"
        }
      ],
      "name": "getCurrentPrice",
      "outputs": [
        {
          "name": "",
          "type": "uint256"
        }
      ],
      "payable": false,
      "stateMutability": "view",
      "type": "function"
    },
    {
      "constant": false,
      "inputs": [
        {
          "name": "newOwner",
          "type": "address"
        }
      ],
      "name": "transferOwnership",
      "outputs": [],
      "payable": false,
      "stateMutability": "nonpayable",
      "type": "function"
    },
    {
      "constant": true,
      "inputs": [],
      "name": "erc721V0",
      "outputs": [
        {
          "name": "",
          "type": "address"
        }
      ],
      "payable": false,
      "stateMutability": "view",
      "type": "function"
    },
    {
      "inputs": [
        {
          "name": "_erc721V0Address",
          "type": "address"
        },
        {
          "name": "_friendContractAddress",
          "type": "address"
        }
      ],
      "payable": false,
      "stateMutability": "nonpayable",
      "type": "constructor"
    },
    {
      "anonymous": false,
      "inputs": [
        {
          "indexed": false,
          "name": "tokenId",
          "type": "uint256"
        },
        {
          "indexed": false,
          "name": "price",
          "type": "uint256"
        }
      ],
      "name": "OfferCreated",
      "type": "event"
    },
    {
      "anonymous": false,
      "inputs": [
        {
          "indexed": false,
          "name": "tokenId",
          "type": "uint256"
        },
        {
          "indexed": false,
          "name": "price",
          "type": "uint256"
        },
        {
          "indexed": false,
          "name": "winner",
          "type": "address"
        }
      ],
      "name": "OfferSuccessful",
      "type": "event"
    },
    {
      "anonymous": false,
      "inputs": [
        {
          "indexed": false,
          "name": "tokenId",
          "type": "uint256"
        }
      ],
      "name": "OfferCancelled",
      "type": "event"
    },
    {
      "anonymous": false,
      "inputs": [
        {
          "indexed": false,
          "name": "message",
          "type": "string"
        }
      ],
      "name": "Trace",
      "type": "event"
    },
    {
      "anonymous": false,
      "inputs": [],
      "name": "Pause",
      "type": "event"
    },
    {
      "anonymous": false,
      "inputs": [],
      "name": "Unpause",
      "type": "event"
    },
    {
      "constant": false,
      "inputs": [
        {
          "name": "_tokenId",
          "type": "uint256"
        },
        {
          "name": "_price",
          "type": "uint256"
        },
        {
          "name": "_seller",
          "type": "address"
        }
      ],
      "name": "createOffer",
      "outputs": [],
      "payable": false,
      "stateMutability": "nonpayable",
      "type": "function"
    },
    {
      "constant": false,
      "inputs": [
        {
          "name": "_tokenId",
          "type": "uint256"
        },
        {
          "name": "buyer",
          "type": "address"
        },
        {
          "name": "registrar",
          "type": "address"
        }
      ],
      "name": "buy",
      "outputs": [
        {
          "name": "",
          "type": "uint256"
        }
      ],
      "payable": true,
      "stateMutability": "payable",
      "type": "function"
    },
    {
      "constant": true,
      "inputs": [
        {
          "name": "_tokenId",
          "type": "uint256"
        }
      ],
      "name": "getSaleOffer",
      "outputs": [
        {
          "name": "price",
          "type": "uint256"
        },
        {
          "name": "seller",
          "type": "address"
        }
      ],
      "payable": false,
      "stateMutability": "view",
      "type": "function"
    },
    {
      "constant": true,
      "inputs": [
        {
          "name": "_tokenId",
          "type": "uint256"
        }
      ],
      "name": "getSeller",
      "outputs": [
        {
          "name": "seller",
          "type": "address"
        }
      ],
      "payable": false,
      "stateMutability": "view",
      "type": "function"
    }
  ],
  "bytecode": "0x606060405260008060146101000a81548160ff0219169083151502179055506001600360146101000a81548160ff021916908315150217905550341561004457600080fd5b604051604080611ee18339810160405280805190602001909190805190602001909190505081816000336000806101000a81548173ffffffffffffffffffffffffffffffffffffffff021916908373ffffffffffffffffffffffffffffffffffffffff16021790555082905080600160006101000a81548173ffffffffffffffffffffffffffffffffffffffff021916908373ffffffffffffffffffffffffffffffffffffffff16021790555081600360006101000a81548173ffffffffffffffffffffffffffffffffffffffff021916908373ffffffffffffffffffffffffffffffffffffffff1602179055505050505050611d9b806101466000396000f3006060604052600436106100db576000357c0100000000000000000000000000000000000000000000000000000000900463ffffffff1680633f4ba83a146100e05780634579268a1461010d57806352a24fb21461017e5780635c975abb146101ab5780635fd8c710146101d857806366b6aff6146101ed5780638456cb59146102385780638da5cb5b1461026557806397286c39146102ba578063c55d0f56146102fc578063d6a9de5114610333578063d917cf5c14610396578063e753858a14610400578063f2fde38b1461046a578063fd5a851b146104a3575b600080fd5b34156100eb57600080fd5b6100f36104f8565b604051808215151515815260200191505060405180910390f35b341561011857600080fd5b61012e60048080359060200190919050506105bd565b604051808473ffffffffffffffffffffffffffffffffffffffff1673ffffffffffffffffffffffffffffffffffffffff168152602001838152602001828152602001935050505060405180910390f35b341561018957600080fd5b61019161067b565b604051808215151515815260200191505060405180910390f35b34156101b657600080fd5b6101be61068e565b604051808215151515815260200191505060405180910390f35b34156101e357600080fd5b6101eb6106a1565b005b34156101f857600080fd5b610236600480803590602001909190803590602001909190803573ffffffffffffffffffffffffffffffffffffffff169060200190919050506107ac565b005b341561024357600080fd5b61024b610929565b604051808215151515815260200191505060405180910390f35b341561027057600080fd5b6102786109f0565b604051808273ffffffffffffffffffffffffffffffffffffffff1673ffffffffffffffffffffffffffffffffffffffff16815260200191505060405180910390f35b34156102c557600080fd5b6102fa600480803590602001909190803573ffffffffffffffffffffffffffffffffffffffff16906020019091905050610a15565b005b341561030757600080fd5b61031d6004808035906020019091905050610b67565b6040518082815260200191505060405180910390f35b341561033e57600080fd5b6103546004808035906020019091905050610bce565b604051808273ffffffffffffffffffffffffffffffffffffffff1673ffffffffffffffffffffffffffffffffffffffff16815260200191505060405180910390f35b34156103a157600080fd5b6103b76004808035906020019091905050610cd8565b604051808381526020018273ffffffffffffffffffffffffffffffffffffffff1673ffffffffffffffffffffffffffffffffffffffff1681526020019250505060405180910390f35b610454600480803590602001909190803573ffffffffffffffffffffffffffffffffffffffff1690602001909190803573ffffffffffffffffffffffffffffffffffffffff16906020019091905050610dfc565b6040518082815260200191505060405180910390f35b341561047557600080fd5b6104a1600480803573ffffffffffffffffffffffffffffffffffffffff16906020019091905050610f0d565b005b34156104ae57600080fd5b6104b6610fe2565b604051808273ffffffffffffffffffffffffffffffffffffffff1673ffffffffffffffffffffffffffffffffffffffff16815260200191505060405180910390f35b60008060009054906101000a900473ffffffffffffffffffffffffffffffffffffffff1673ffffffffffffffffffffffffffffffffffffffff163373ffffffffffffffffffffffffffffffffffffffff1614151561055557600080fd5b600060149054906101000a900460ff16151561057057600080fd5b60008060146101000a81548160ff0219169083151502179055507f7805862f689e2f13df9f062ff482ad3ad112aca9e0847911ed832e158c525b3360405160405180910390a16001905090565b6000806000806002600086815260200190815260200160002090506105e181611008565b15156105ec57600080fd5b8060000160009054906101000a900473ffffffffffffffffffffffffffffffffffffffff168160010160009054906101000a90046fffffffffffffffffffffffffffffffff168260010160109054906101000a900467ffffffffffffffff16816fffffffffffffffffffffffffffffffff1691508067ffffffffffffffff169050935093509350509193909250565b600360149054906101000a900460ff1681565b600060149054906101000a900460ff1681565b600080600160009054906101000a900473ffffffffffffffffffffffffffffffffffffffff1691506000809054906101000a900473ffffffffffffffffffffffffffffffffffffffff1673ffffffffffffffffffffffffffffffffffffffff163373ffffffffffffffffffffffffffffffffffffffff16148061074f57508173ffffffffffffffffffffffffffffffffffffffff163373ffffffffffffffffffffffffffffffffffffffff16145b151561075a57600080fd5b8173ffffffffffffffffffffffffffffffffffffffff166108fc3073ffffffffffffffffffffffffffffffffffffffff16319081150290604051600060405180830381858888f1935050505090505050565b6107b4611d1b565b600360009054906101000a900473ffffffffffffffffffffffffffffffffffffffff1673ffffffffffffffffffffffffffffffffffffffff166368125a1b336000604051602001526040518263ffffffff167c0100000000000000000000000000000000000000000000000000000000028152600401808273ffffffffffffffffffffffffffffffffffffffff1673ffffffffffffffffffffffffffffffffffffffff168152602001915050602060405180830381600087803b151561087957600080fd5b6102c65a03f1151561088a57600080fd5b50505060405180519050151561089f57600080fd5b826fffffffffffffffffffffffffffffffff16831415156108bf57600080fd5b6108c98285611036565b6060604051908101604052808373ffffffffffffffffffffffffffffffffffffffff168152602001846fffffffffffffffffffffffffffffffff1681526020014267ffffffffffffffff1681525090506109238482611146565b50505050565b60008060009054906101000a900473ffffffffffffffffffffffffffffffffffffffff1673ffffffffffffffffffffffffffffffffffffffff163373ffffffffffffffffffffffffffffffffffffffff1614151561098657600080fd5b600060149054906101000a900460ff161515156109a257600080fd5b6001600060146101000a81548160ff0219169083151502179055507f6985a02210a168e66602d3235cb6db0e70f92b3ba4d376a33c0f3d9434bff62560405160405180910390a16001905090565b6000809054906101000a900473ffffffffffffffffffffffffffffffffffffffff1681565b600080600360009054906101000a900473ffffffffffffffffffffffffffffffffffffffff1673ffffffffffffffffffffffffffffffffffffffff166368125a1b336000604051602001526040518263ffffffff167c0100000000000000000000000000000000000000000000000000000000028152600401808273ffffffffffffffffffffffffffffffffffffffff1673ffffffffffffffffffffffffffffffffffffffff168152602001915050602060405180830381600087803b1515610add57600080fd5b6102c65a03f11515610aee57600080fd5b505050604051805190501515610b0357600080fd5b6002600085815260200190815260200160002091508160010160009054906101000a90046fffffffffffffffffffffffffffffffff166fffffffffffffffffffffffffffffffff169050610b568461126b565b610b618482856107ac565b50505050565b600080600260008481526020019081526020016000209050610b8881611008565b1515610b9357600080fd5b8060010160009054906101000a90046fffffffffffffffffffffffffffffffff166fffffffffffffffffffffffffffffffff16915050919050565b6000610bd8611d1b565b60026000848152602001908152602001600020606060405190810160405290816000820160009054906101000a900473ffffffffffffffffffffffffffffffffffffffff1673ffffffffffffffffffffffffffffffffffffffff1673ffffffffffffffffffffffffffffffffffffffff1681526020016001820160009054906101000a90046fffffffffffffffffffffffffffffffff166fffffffffffffffffffffffffffffffff166fffffffffffffffffffffffffffffffff1681526020016001820160109054906101000a900467ffffffffffffffff1667ffffffffffffffff1667ffffffffffffffff168152505090508060000151915050919050565b600080610ce3611d1b565b60026000858152602001908152602001600020606060405190810160405290816000820160009054906101000a900473ffffffffffffffffffffffffffffffffffffffff1673ffffffffffffffffffffffffffffffffffffffff1673ffffffffffffffffffffffffffffffffffffffff1681526020016001820160009054906101000a90046fffffffffffffffffffffffffffffffff166fffffffffffffffffffffffffffffffff166fffffffffffffffffffffffffffffffff1681526020016001820160109054906101000a900467ffffffffffffffff1667ffffffffffffffff1667ffffffffffffffff1681525050905080602001516fffffffffffffffffffffffffffffffff1692508060000151915050915091565b600080600360009054906101000a900473ffffffffffffffffffffffffffffffffffffffff1673ffffffffffffffffffffffffffffffffffffffff166368125a1b336000604051602001526040518263ffffffff167c0100000000000000000000000000000000000000000000000000000000028152600401808273ffffffffffffffffffffffffffffffffffffffff1673ffffffffffffffffffffffffffffffffffffffff168152602001915050602060405180830381600087803b1515610ec457600080fd5b6102c65a03f11515610ed557600080fd5b505050604051805190501515610eea57600080fd5b610ef6853486866112e9565b9050610f02848661157b565b809150509392505050565b6000809054906101000a900473ffffffffffffffffffffffffffffffffffffffff1673ffffffffffffffffffffffffffffffffffffffff163373ffffffffffffffffffffffffffffffffffffffff16141515610f6857600080fd5b600073ffffffffffffffffffffffffffffffffffffffff168173ffffffffffffffffffffffffffffffffffffffff16141515610fdf57806000806101000a81548173ffffffffffffffffffffffffffffffffffffffff021916908373ffffffffffffffffffffffffffffffffffffffff1602179055505b50565b600160009054906101000a900473ffffffffffffffffffffffffffffffffffffffff1681565b6000808260010160109054906101000a900467ffffffffffffffff1667ffffffffffffffff16119050919050565b600160009054906101000a900473ffffffffffffffffffffffffffffffffffffffff1673ffffffffffffffffffffffffffffffffffffffff166375c7f8778330846040518463ffffffff167c0100000000000000000000000000000000000000000000000000000000028152600401808473ffffffffffffffffffffffffffffffffffffffff1673ffffffffffffffffffffffffffffffffffffffff1681526020018373ffffffffffffffffffffffffffffffffffffffff1673ffffffffffffffffffffffffffffffffffffffff1681526020018281526020019350505050600060405180830381600087803b151561112e57600080fd5b6102c65a03f1151561113f57600080fd5b5050505050565b806002600084815260200190815260200160002060008201518160000160006101000a81548173ffffffffffffffffffffffffffffffffffffffff021916908373ffffffffffffffffffffffffffffffffffffffff16021790555060208201518160010160006101000a8154816fffffffffffffffffffffffffffffffff02191690836fffffffffffffffffffffffffffffffff16021790555060408201518160010160106101000a81548167ffffffffffffffff021916908367ffffffffffffffff1602179055509050507fd0ca477a045a99a0dcdc3d3bc74511633b83b6cc4517f1565beb39a3823e35f28282602001516fffffffffffffffffffffffffffffffff16604051808381526020018281526020019250505060405180910390a15050565b60026000828152602001908152602001600020600080820160006101000a81549073ffffffffffffffffffffffffffffffffffffffff02191690556001820160006101000a8154906fffffffffffffffffffffffffffffffff02191690556001820160106101000a81549067ffffffffffffffff0219169055505050565b6000806000806000806000806000600260008e8152602001908152602001600020975061131588611008565b151561132057600080fd5b8760010160009054906101000a90046fffffffffffffffffffffffffffffffff166fffffffffffffffffffffffffffffffff169650868c1015151561136457600080fd5b8760000160009054906101000a900473ffffffffffffffffffffffffffffffffffffffff1695506113948d61126b565b60008711156114b0576127106113a988611657565b88028115156113b457fe5b0494506127106113c48e896116d5565b88028115156113cf57fe5b049350612710606488028115156113e257fe5b0492508284868903030391508573ffffffffffffffffffffffffffffffffffffffff166108fc839081150290604051600060405180830381858888f19350505050151561142e57600080fd5b6114388d88611800565b600073ffffffffffffffffffffffffffffffffffffffff168a73ffffffffffffffffffffffffffffffffffffffff161415156114af578973ffffffffffffffffffffffffffffffffffffffff166108fc849081150290604051600060405180830381858888f1935050505015156114ae57600080fd5b5b5b868c0390508a73ffffffffffffffffffffffffffffffffffffffff166108fc829081150290604051600060405180830381858888f1935050505015156114f557600080fd5b7ff10850eccb5f1209d0aa98cef01a30a7e796c271a839a816770a6750ade36ee58d8833604051808481526020018381526020018273ffffffffffffffffffffffffffffffffffffffff1673ffffffffffffffffffffffffffffffffffffffff168152602001935050505060405180910390a18698505050505050505050949350505050565b600160009054906101000a900473ffffffffffffffffffffffffffffffffffffffff1673ffffffffffffffffffffffffffffffffffffffff1663af9e55fc83836040518363ffffffff167c0100000000000000000000000000000000000000000000000000000000028152600401808373ffffffffffffffffffffffffffffffffffffffff1673ffffffffffffffffffffffffffffffffffffffff16815260200182815260200192505050600060405180830381600087803b151561163f57600080fd5b6102c65a03f1151561165057600080fd5b5050505050565b60008061015e9050674563918244f40000831015156116755760c890505b674563918244f4000083101561168b5761012c90505b671bc16d674ec800008310156116a15761012c90505b6706f05b59d3b200008310156116b75761019090505b66b1a2bc2ec500008310156116cc576101f490505b80915050919050565b600080600080600080600160009054906101000a900473ffffffffffffffffffffffffffffffffffffffff1673ffffffffffffffffffffffffffffffffffffffff1663f2f80510896000604051608001526040518263ffffffff167c010000000000000000000000000000000000000000000000000000000002815260040180828152602001915050608060405180830381600087803b151561177757600080fd5b6102c65a03f1151561178857600080fd5b50505060405180519060200180519060200180519060200180519050809550819650829750839850505050506000905060008511156117c657606490505b60008411156117d45760c890505b60008311156117e35761012c90505b60008211156117f25761019090505b809550505050505092915050565b6000806000806000806000806000600160009054906101000a900473ffffffffffffffffffffffffffffffffffffffff1673ffffffffffffffffffffffffffffffffffffffff1663f2f805108c6000604051608001526040518263ffffffff167c010000000000000000000000000000000000000000000000000000000002815260040180828152602001915050608060405180830381600087803b15156118a757600080fd5b6102c65a03f115156118b857600080fd5b50505060405180519060200180519060200180519060200180519050809950819a50829b50839c50505050506118ed8a611cfc565b945060008911156119ef57600160009054906101000a900473ffffffffffffffffffffffffffffffffffffffff1673ffffffffffffffffffffffffffffffffffffffff1663c41a360a8a6000604051602001526040518263ffffffff167c010000000000000000000000000000000000000000000000000000000002815260040180828152602001915050602060405180830381600087803b151561199157600080fd5b6102c65a03f115156119a257600080fd5b5050506040518051905093508373ffffffffffffffffffffffffffffffffffffffff166108fc869081150290604051600060405180830381858888f1935050505015156119ee57600080fd5b5b6000881115611aef57600160009054906101000a900473ffffffffffffffffffffffffffffffffffffffff1673ffffffffffffffffffffffffffffffffffffffff1663c41a360a896000604051602001526040518263ffffffff167c010000000000000000000000000000000000000000000000000000000002815260040180828152602001915050602060405180830381600087803b1515611a9157600080fd5b6102c65a03f11515611aa257600080fd5b5050506040518051905092508273ffffffffffffffffffffffffffffffffffffffff166108fc869081150290604051600060405180830381858888f193505050501515611aee57600080fd5b5b6000871115611bef57600160009054906101000a900473ffffffffffffffffffffffffffffffffffffffff1673ffffffffffffffffffffffffffffffffffffffff1663c41a360a886000604051602001526040518263ffffffff167c010000000000000000000000000000000000000000000000000000000002815260040180828152602001915050602060405180830381600087803b1515611b9157600080fd5b6102c65a03f11515611ba257600080fd5b5050506040518051905091508173ffffffffffffffffffffffffffffffffffffffff166108fc869081150290604051600060405180830381858888f193505050501515611bee57600080fd5b5b6000861115611cef57600160009054906101000a900473ffffffffffffffffffffffffffffffffffffffff1673ffffffffffffffffffffffffffffffffffffffff1663c41a360a876000604051602001526040518263ffffffff167c010000000000000000000000000000000000000000000000000000000002815260040180828152602001915050602060405180830381600087803b1515611c9157600080fd5b6102c65a03f11515611ca257600080fd5b5050506040518051905090508073ffffffffffffffffffffffffffffffffffffffff166108fc869081150290604051600060405180830381858888f193505050501515611cee57600080fd5b5b5050505050505050505050565b60008060649050612710818402811515611d1257fe5b04915050919050565b606060405190810160405280600073ffffffffffffffffffffffffffffffffffffffff16815260200160006fffffffffffffffffffffffffffffffff168152602001600067ffffffffffffffff16815250905600a165627a7a723058202229cb04fbc5895711e5f5618e7a02b5f9f0b944bf29c5893780f1fad1f6375b0029",
  "source": "pragma solidity ^0.4.14;\n\nimport \"./ClockOffer.sol\";\n\n/// @title Clock offer modified for sale of tokens\n/// @notice We omit a fallback function to prevent accidental sends to this contract.\ncontract SaleClockOffer is ClockOffer {\n\n    // @dev Sanity check that allows us to ensure that we are pointing to the\n    //  right offer in our setSaleOfferAddress() call.\n    bool public isSaleClockOffer = true;\n\n    // Delegate constructor\n    function SaleClockOffer(address _erc721V0Address, address _friendContractAddress) public\n        ClockOffer(_erc721V0Address, _friendContractAddress) \n    {\n            \n    }\n\n    /// @dev Creates and begins a new offer.\n    /// @param _tokenId - ID of token to offer, sender must be owner.\n    /// @param _price - Price of item (in wei).\n    /// @param _seller - Seller, if not the message sender\n    function createOffer(\n        uint256 _tokenId,\n        uint256 _price,\n        address _seller\n    )\n        public\n    {\n        require(friendContract.isFriend(msg.sender));\n\n        // Sanity check that no inputs overflow how many bits we've allocated\n        // to store them in the offer struct.\n        require(_price == uint256(uint128(_price)));\n\n        //require(msg.sender == address(erc721V0));\n\n        _escrow(_seller, _tokenId);\n\n        Offer memory offer = Offer(\n            _seller,\n            uint128(_price),\n            uint64(now)\n        );\n\n        _addOffer(_tokenId, offer);\n    }\n\n    /// @dev Updates lastSalePrice if seller is the nft contract\n    /// Otherwise, works the same as default buy method.\n    /// Automatically creates new offer.\n    function buy(uint256 _tokenId, address buyer, address registrar)\n        external\n        payable\n        returns (uint256)\n    {\n        require(friendContract.isFriend(msg.sender));\n\n        // _buy verifies token ID size\n        uint256 price = _buy(_tokenId, msg.value, buyer, registrar);\n\n        _transfer(buyer, _tokenId);\n\n        return price;\n    }\n\n    function getSaleOffer(uint256 _tokenId) \n        public\n        view\n        returns (\n            uint256 price,\n            address seller)\n    {\n        Offer memory offer = tokenIdToOffer[_tokenId];\n        price = offer.price;\n        seller = offer.seller;\n    }\n\n    function getSeller(uint256 _tokenId)\n        public\n        view\n        returns (\n            address seller)\n    {\n        Offer memory offer = tokenIdToOffer[_tokenId];\n        seller = offer.seller;\n    }\n}\n",
  "sourcePath": "/Users/jasonbanico/Dropbox/Workspace/CryptoTokenAdmin/contracts/SaleClockOffer.sol",
  "compiler": {
    "name": "solc",
    "version": "0.4.19+commit.c4cbbb05.Emscripten.clang"
  },
  "schemaVersion": "1.0.1",
  "updatedAt": "2018-03-29T09:17:10.955Z"
}