{
  "contractName": "TokenBase",
  "abi": [
    {
      "constant": true,
      "inputs": [],
      "name": "cfoAddress",
      "outputs": [
        {
          "name": "",
          "type": "address"
        }
      ],
      "payable": false,
      "stateMutability": "view",
      "type": "function"
    },
    {
      "constant": true,
      "inputs": [],
      "name": "ceoAddress",
      "outputs": [
        {
          "name": "",
          "type": "address"
        }
      ],
      "payable": false,
      "stateMutability": "view",
      "type": "function"
    },
    {
      "constant": true,
      "inputs": [
        {
          "name": "",
          "type": "uint256"
        }
      ],
      "name": "tokenIndexToOwner",
      "outputs": [
        {
          "name": "",
          "type": "address"
        }
      ],
      "payable": false,
      "stateMutability": "view",
      "type": "function"
    },
    {
      "constant": false,
      "inputs": [
        {
          "name": "_address",
          "type": "address"
        }
      ],
      "name": "setSaleOfferAddress",
      "outputs": [],
      "payable": false,
      "stateMutability": "nonpayable",
      "type": "function"
    },
    {
      "constant": false,
      "inputs": [
        {
          "name": "_newCEO",
          "type": "address"
        }
      ],
      "name": "setCEO",
      "outputs": [],
      "payable": false,
      "stateMutability": "nonpayable",
      "type": "function"
    },
    {
      "constant": true,
      "inputs": [],
      "name": "index",
      "outputs": [
        {
          "name": "",
          "type": "address"
        }
      ],
      "payable": false,
      "stateMutability": "view",
      "type": "function"
    },
    {
      "constant": false,
      "inputs": [
        {
          "name": "_newCOO",
          "type": "address"
        }
      ],
      "name": "setCOO",
      "outputs": [],
      "payable": false,
      "stateMutability": "nonpayable",
      "type": "function"
    },
    {
      "constant": false,
      "inputs": [
        {
          "name": "_address",
          "type": "address"
        }
      ],
      "name": "setTokenIndexAddress",
      "outputs": [],
      "payable": false,
      "stateMutability": "nonpayable",
      "type": "function"
    },
    {
      "constant": true,
      "inputs": [],
      "name": "isCLevel",
      "outputs": [
        {
          "name": "",
          "type": "bool"
        }
      ],
      "payable": false,
      "stateMutability": "view",
      "type": "function"
    },
    {
      "constant": false,
      "inputs": [],
      "name": "unpause",
      "outputs": [],
      "payable": false,
      "stateMutability": "nonpayable",
      "type": "function"
    },
    {
      "constant": false,
      "inputs": [
        {
          "name": "_newCCO",
          "type": "address"
        }
      ],
      "name": "setCCO",
      "outputs": [],
      "payable": false,
      "stateMutability": "nonpayable",
      "type": "function"
    },
    {
      "constant": true,
      "inputs": [
        {
          "name": "",
          "type": "uint256"
        }
      ],
      "name": "tokenIndexToOwnerV0",
      "outputs": [
        {
          "name": "",
          "type": "address"
        }
      ],
      "payable": false,
      "stateMutability": "view",
      "type": "function"
    },
    {
      "constant": false,
      "inputs": [
        {
          "name": "_newCFO",
          "type": "address"
        }
      ],
      "name": "setCFO",
      "outputs": [],
      "payable": false,
      "stateMutability": "nonpayable",
      "type": "function"
    },
    {
      "constant": true,
      "inputs": [],
      "name": "isCCO",
      "outputs": [
        {
          "name": "",
          "type": "bool"
        }
      ],
      "payable": false,
      "stateMutability": "view",
      "type": "function"
    },
    {
      "constant": true,
      "inputs": [],
      "name": "paused",
      "outputs": [
        {
          "name": "",
          "type": "bool"
        }
      ],
      "payable": false,
      "stateMutability": "view",
      "type": "function"
    },
    {
      "constant": true,
      "inputs": [
        {
          "name": "_ccoAddress",
          "type": "address"
        }
      ],
      "name": "isCCOAddress",
      "outputs": [
        {
          "name": "",
          "type": "bool"
        }
      ],
      "payable": false,
      "stateMutability": "view",
      "type": "function"
    },
    {
      "constant": true,
      "inputs": [],
      "name": "secondsPerBlock",
      "outputs": [
        {
          "name": "",
          "type": "uint256"
        }
      ],
      "payable": false,
      "stateMutability": "view",
      "type": "function"
    },
    {
      "constant": false,
      "inputs": [],
      "name": "pause",
      "outputs": [],
      "payable": false,
      "stateMutability": "nonpayable",
      "type": "function"
    },
    {
      "constant": true,
      "inputs": [],
      "name": "isCFO",
      "outputs": [
        {
          "name": "",
          "type": "bool"
        }
      ],
      "payable": false,
      "stateMutability": "view",
      "type": "function"
    },
    {
      "constant": true,
      "inputs": [],
      "name": "ccoAddress",
      "outputs": [
        {
          "name": "",
          "type": "address"
        }
      ],
      "payable": false,
      "stateMutability": "view",
      "type": "function"
    },
    {
      "constant": true,
      "inputs": [],
      "name": "cooAddress",
      "outputs": [
        {
          "name": "",
          "type": "address"
        }
      ],
      "payable": false,
      "stateMutability": "view",
      "type": "function"
    },
    {
      "constant": true,
      "inputs": [],
      "name": "saleOffer",
      "outputs": [
        {
          "name": "",
          "type": "address"
        }
      ],
      "payable": false,
      "stateMutability": "view",
      "type": "function"
    },
    {
      "constant": true,
      "inputs": [
        {
          "name": "",
          "type": "uint256"
        }
      ],
      "name": "tokenIndexToApprovedV0",
      "outputs": [
        {
          "name": "",
          "type": "address"
        }
      ],
      "payable": false,
      "stateMutability": "view",
      "type": "function"
    },
    {
      "constant": true,
      "inputs": [],
      "name": "isCEO",
      "outputs": [
        {
          "name": "",
          "type": "bool"
        }
      ],
      "payable": false,
      "stateMutability": "view",
      "type": "function"
    },
    {
      "constant": true,
      "inputs": [],
      "name": "isCOO",
      "outputs": [
        {
          "name": "",
          "type": "bool"
        }
      ],
      "payable": false,
      "stateMutability": "view",
      "type": "function"
    },
    {
      "inputs": [
        {
          "name": "_friendContract",
          "type": "address"
        }
      ],
      "payable": false,
      "stateMutability": "nonpayable",
      "type": "constructor"
    },
    {
      "anonymous": false,
      "inputs": [
        {
          "indexed": false,
          "name": "owner",
          "type": "address"
        },
        {
          "indexed": false,
          "name": "tokenId",
          "type": "uint256"
        },
        {
          "indexed": false,
          "name": "uniqueText",
          "type": "string"
        }
      ],
      "name": "Mint",
      "type": "event"
    },
    {
      "anonymous": false,
      "inputs": [
        {
          "indexed": false,
          "name": "from",
          "type": "address"
        },
        {
          "indexed": false,
          "name": "to",
          "type": "address"
        },
        {
          "indexed": false,
          "name": "tokenId",
          "type": "uint256"
        }
      ],
      "name": "TransferV0",
      "type": "event"
    },
    {
      "anonymous": false,
      "inputs": [
        {
          "indexed": false,
          "name": "newContract",
          "type": "address"
        }
      ],
      "name": "ContractUpgrade",
      "type": "event"
    },
    {
      "anonymous": false,
      "inputs": [
        {
          "indexed": false,
          "name": "message",
          "type": "string"
        }
      ],
      "name": "Trace",
      "type": "event"
    },
    {
      "anonymous": false,
      "inputs": [],
      "name": "Pause",
      "type": "event"
    },
    {
      "anonymous": false,
      "inputs": [],
      "name": "Unpause",
      "type": "event"
    },
    {
      "constant": false,
      "inputs": [
        {
          "name": "_uniqueText",
          "type": "string"
        },
        {
          "name": "_owner",
          "type": "address"
        }
      ],
      "name": "createToken",
      "outputs": [
        {
          "name": "",
          "type": "uint256"
        }
      ],
      "payable": false,
      "stateMutability": "nonpayable",
      "type": "function"
    },
    {
      "constant": false,
      "inputs": [
        {
          "name": "_tokenId",
          "type": "uint256"
        },
        {
          "name": "_isHidden",
          "type": "bool"
        }
      ],
      "name": "setHidden",
      "outputs": [],
      "payable": false,
      "stateMutability": "nonpayable",
      "type": "function"
    },
    {
      "constant": true,
      "inputs": [
        {
          "name": "_tokenId",
          "type": "uint256"
        }
      ],
      "name": "isHidden",
      "outputs": [
        {
          "name": "",
          "type": "bool"
        }
      ],
      "payable": false,
      "stateMutability": "view",
      "type": "function"
    },
    {
      "constant": false,
      "inputs": [
        {
          "name": "secs",
          "type": "uint256"
        }
      ],
      "name": "setSecondsPerBlock",
      "outputs": [],
      "payable": false,
      "stateMutability": "nonpayable",
      "type": "function"
    },
    {
      "constant": false,
      "inputs": [
        {
          "name": "_tokenId",
          "type": "uint256"
        },
        {
          "name": "owner",
          "type": "address"
        }
      ],
      "name": "setOwner",
      "outputs": [],
      "payable": false,
      "stateMutability": "nonpayable",
      "type": "function"
    }
  ],
  "bytecode": "0x60606040526000600360146101000a81548160ff021916908315150217905550600f600755341561002f57600080fd5b604051602080612da58339810160405280805190602001909190505080600660006101000a81548173ffffffffffffffffffffffffffffffffffffffff021916908373ffffffffffffffffffffffffffffffffffffffff16021790555050612d098061009c6000396000f300606060405260043610610180576000357c0100000000000000000000000000000000000000000000000000000000900463ffffffff1680630519ce79146101855780630a0f8168146101da5780631d36e06c1461022f5780631e8cfd1e1461029257806327d7874c146102cb5780632986c0e5146103045780632ba73c151461035957806339f020b0146103925780633a66e9e1146103cb5780633f4ba83a146103f857806343c9f97a1461040d57806345168839146104485780634c706d17146104815780634e0a3379146104e457806354c5a3ae1461051d5780635663896e1461054a5780635c975abb1461056d578063715fbfa81461059a5780637a7d4937146105eb5780637fd39247146106145780638456cb59146106565780639393ae371461066b578063a211937714610698578063afeaa2d4146106f9578063b047fb501461074e578063b443aa20146107a3578063ccea0985146107d1578063cd488ac514610826578063e513b7a914610889578063f4a02e70146108b6575b600080fd5b341561019057600080fd5b6101986108e3565b604051808273ffffffffffffffffffffffffffffffffffffffff1673ffffffffffffffffffffffffffffffffffffffff16815260200191505060405180910390f35b34156101e557600080fd5b6101ed610909565b604051808273ffffffffffffffffffffffffffffffffffffffff1673ffffffffffffffffffffffffffffffffffffffff16815260200191505060405180910390f35b341561023a57600080fd5b610250600480803590602001909190505061092e565b604051808273ffffffffffffffffffffffffffffffffffffffff1673ffffffffffffffffffffffffffffffffffffffff16815260200191505060405180910390f35b341561029d57600080fd5b6102c9600480803573ffffffffffffffffffffffffffffffffffffffff16906020019091905050610961565b005b34156102d657600080fd5b610302600480803573ffffffffffffffffffffffffffffffffffffffff16906020019091905050610a98565b005b341561030f57600080fd5b610317610b72565b604051808273ffffffffffffffffffffffffffffffffffffffff1673ffffffffffffffffffffffffffffffffffffffff16815260200191505060405180910390f35b341561036457600080fd5b610390600480803573ffffffffffffffffffffffffffffffffffffffff16906020019091905050610b98565b005b341561039d57600080fd5b6103c9600480803573ffffffffffffffffffffffffffffffffffffffff16906020019091905050610c73565b005b34156103d657600080fd5b6103de610d12565b604051808215151515815260200191505060405180910390f35b341561040357600080fd5b61040b610e71565b005b341561041857600080fd5b61042e6004808035906020019091905050610f30565b604051808215151515815260200191505060405180910390f35b341561045357600080fd5b61047f600480803573ffffffffffffffffffffffffffffffffffffffff16906020019091905050610f67565b005b341561048c57600080fd5b6104a26004808035906020019091905050611042565b604051808273ffffffffffffffffffffffffffffffffffffffff1673ffffffffffffffffffffffffffffffffffffffff16815260200191505060405180910390f35b34156104ef57600080fd5b61051b600480803573ffffffffffffffffffffffffffffffffffffffff16906020019091905050611075565b005b341561052857600080fd5b610530611150565b604051808215151515815260200191505060405180910390f35b341561055557600080fd5b61056b60048080359060200190919050506111a8565b005b341561057857600080fd5b610580611315565b604051808215151515815260200191505060405180910390f35b34156105a557600080fd5b6105d1600480803573ffffffffffffffffffffffffffffffffffffffff16906020019091905050611328565b604051808215151515815260200191505060405180910390f35b34156105f657600080fd5b6105fe611382565b6040518082815260200191505060405180910390f35b341561061f57600080fd5b610654600480803590602001909190803573ffffffffffffffffffffffffffffffffffffffff16906020019091905050611388565b005b341561066157600080fd5b6106696114c9565b005b341561067657600080fd5b61067e611691565b604051808215151515815260200191505060405180910390f35b34156106a357600080fd5b6106e36004808035906020019082018035906020019190919290803573ffffffffffffffffffffffffffffffffffffffff169060200190919050506116e9565b6040518082815260200191505060405180910390f35b341561070457600080fd5b61070c611c20565b604051808273ffffffffffffffffffffffffffffffffffffffff1673ffffffffffffffffffffffffffffffffffffffff16815260200191505060405180910390f35b341561075957600080fd5b610761611c46565b604051808273ffffffffffffffffffffffffffffffffffffffff1673ffffffffffffffffffffffffffffffffffffffff16815260200191505060405180910390f35b34156107ae57600080fd5b6107cf60048080359060200190919080351515906020019091905050611c6c565b005b34156107dc57600080fd5b6107e4611e0b565b604051808273ffffffffffffffffffffffffffffffffffffffff1673ffffffffffffffffffffffffffffffffffffffff16815260200191505060405180910390f35b341561083157600080fd5b6108476004808035906020019091905050611e31565b604051808273ffffffffffffffffffffffffffffffffffffffff1673ffffffffffffffffffffffffffffffffffffffff16815260200191505060405180910390f35b341561089457600080fd5b61089c611e64565b604051808215151515815260200191505060405180910390f35b34156108c157600080fd5b6108c9611ebb565b604051808215151515815260200191505060405180910390f35b600160009054906101000a900473ffffffffffffffffffffffffffffffffffffffff1681565b6000809054906101000a900473ffffffffffffffffffffffffffffffffffffffff1681565b600b6020528060005260406000206000915054906101000a900473ffffffffffffffffffffffffffffffffffffffff1681565b60008060009054906101000a900473ffffffffffffffffffffffffffffffffffffffff1673ffffffffffffffffffffffffffffffffffffffff163373ffffffffffffffffffffffffffffffffffffffff161415156109be57600080fd5b8190508073ffffffffffffffffffffffffffffffffffffffff166352a24fb26000604051602001526040518163ffffffff167c0100000000000000000000000000000000000000000000000000000000028152600401602060405180830381600087803b1515610a2d57600080fd5b6102c65a03f11515610a3e57600080fd5b505050604051805190501515610a5357600080fd5b80600460006101000a81548173ffffffffffffffffffffffffffffffffffffffff021916908373ffffffffffffffffffffffffffffffffffffffff1602179055505050565b6000809054906101000a900473ffffffffffffffffffffffffffffffffffffffff1673ffffffffffffffffffffffffffffffffffffffff163373ffffffffffffffffffffffffffffffffffffffff16141515610af357600080fd5b600073ffffffffffffffffffffffffffffffffffffffff168173ffffffffffffffffffffffffffffffffffffffff1614151515610b2f57600080fd5b806000806101000a81548173ffffffffffffffffffffffffffffffffffffffff021916908373ffffffffffffffffffffffffffffffffffffffff16021790555050565b600560009054906101000a900473ffffffffffffffffffffffffffffffffffffffff1681565b6000809054906101000a900473ffffffffffffffffffffffffffffffffffffffff1673ffffffffffffffffffffffffffffffffffffffff163373ffffffffffffffffffffffffffffffffffffffff16141515610bf357600080fd5b600073ffffffffffffffffffffffffffffffffffffffff168173ffffffffffffffffffffffffffffffffffffffff1614151515610c2f57600080fd5b80600260006101000a81548173ffffffffffffffffffffffffffffffffffffffff021916908373ffffffffffffffffffffffffffffffffffffffff16021790555050565b6000809054906101000a900473ffffffffffffffffffffffffffffffffffffffff1673ffffffffffffffffffffffffffffffffffffffff163373ffffffffffffffffffffffffffffffffffffffff16141515610cce57600080fd5b80600560006101000a81548173ffffffffffffffffffffffffffffffffffffffff021916908373ffffffffffffffffffffffffffffffffffffffff16021790555050565b6000600260009054906101000a900473ffffffffffffffffffffffffffffffffffffffff1673ffffffffffffffffffffffffffffffffffffffff163373ffffffffffffffffffffffffffffffffffffffff161480610dbc57506000809054906101000a900473ffffffffffffffffffffffffffffffffffffffff1673ffffffffffffffffffffffffffffffffffffffff163373ffffffffffffffffffffffffffffffffffffffff16145b80610e145750600160009054906101000a900473ffffffffffffffffffffffffffffffffffffffff1673ffffffffffffffffffffffffffffffffffffffff163373ffffffffffffffffffffffffffffffffffffffff16145b80610e6c5750600360009054906101000a900473ffffffffffffffffffffffffffffffffffffffff1673ffffffffffffffffffffffffffffffffffffffff163373ffffffffffffffffffffffffffffffffffffffff16145b905090565b6000809054906101000a900473ffffffffffffffffffffffffffffffffffffffff1673ffffffffffffffffffffffffffffffffffffffff163373ffffffffffffffffffffffffffffffffffffffff16141515610ecc57600080fd5b600360149054906101000a900460ff161515610ee757600080fd5b6000600360146101000a81548160ff0219169083151502179055507f7805862f689e2f13df9f062ff482ad3ad112aca9e0847911ed832e158c525b3360405160405180910390a1565b6000600882815481101515610f4157fe5b9060005260206000209060020201600101601c9054906101000a900460ff169050919050565b6000809054906101000a900473ffffffffffffffffffffffffffffffffffffffff1673ffffffffffffffffffffffffffffffffffffffff163373ffffffffffffffffffffffffffffffffffffffff16141515610fc257600080fd5b600073ffffffffffffffffffffffffffffffffffffffff168173ffffffffffffffffffffffffffffffffffffffff1614151515610ffe57600080fd5b80600360006101000a81548173ffffffffffffffffffffffffffffffffffffffff021916908373ffffffffffffffffffffffffffffffffffffffff16021790555050565b600a6020528060005260406000206000915054906101000a900473ffffffffffffffffffffffffffffffffffffffff1681565b6000809054906101000a900473ffffffffffffffffffffffffffffffffffffffff1673ffffffffffffffffffffffffffffffffffffffff163373ffffffffffffffffffffffffffffffffffffffff161415156110d057600080fd5b600073ffffffffffffffffffffffffffffffffffffffff168173ffffffffffffffffffffffffffffffffffffffff161415151561110c57600080fd5b80600160006101000a81548173ffffffffffffffffffffffffffffffffffffffff021916908373ffffffffffffffffffffffffffffffffffffffff16021790555050565b6000600360009054906101000a900473ffffffffffffffffffffffffffffffffffffffff1673ffffffffffffffffffffffffffffffffffffffff163373ffffffffffffffffffffffffffffffffffffffff1614905090565b600260009054906101000a900473ffffffffffffffffffffffffffffffffffffffff1673ffffffffffffffffffffffffffffffffffffffff163373ffffffffffffffffffffffffffffffffffffffff16148061125057506000809054906101000a900473ffffffffffffffffffffffffffffffffffffffff1673ffffffffffffffffffffffffffffffffffffffff163373ffffffffffffffffffffffffffffffffffffffff16145b806112a85750600160009054906101000a900473ffffffffffffffffffffffffffffffffffffffff1673ffffffffffffffffffffffffffffffffffffffff163373ffffffffffffffffffffffffffffffffffffffff16145b806113005750600360009054906101000a900473ffffffffffffffffffffffffffffffffffffffff1673ffffffffffffffffffffffffffffffffffffffff163373ffffffffffffffffffffffffffffffffffffffff16145b151561130b57600080fd5b8060078190555050565b600360149054906101000a900460ff1681565b6000600360009054906101000a900473ffffffffffffffffffffffffffffffffffffffff1673ffffffffffffffffffffffffffffffffffffffff168273ffffffffffffffffffffffffffffffffffffffff16149050919050565b60075481565b600660009054906101000a900473ffffffffffffffffffffffffffffffffffffffff1673ffffffffffffffffffffffffffffffffffffffff166368125a1b336000604051602001526040518263ffffffff167c0100000000000000000000000000000000000000000000000000000000028152600401808273ffffffffffffffffffffffffffffffffffffffff1673ffffffffffffffffffffffffffffffffffffffff168152602001915050602060405180830381600087803b151561144d57600080fd5b6102c65a03f1151561145e57600080fd5b50505060405180519050151561147357600080fd5b80600b600084815260200190815260200160002060006101000a81548173ffffffffffffffffffffffffffffffffffffffff021916908373ffffffffffffffffffffffffffffffffffffffff1602179055505050565b600260009054906101000a900473ffffffffffffffffffffffffffffffffffffffff1673ffffffffffffffffffffffffffffffffffffffff163373ffffffffffffffffffffffffffffffffffffffff16148061157157506000809054906101000a900473ffffffffffffffffffffffffffffffffffffffff1673ffffffffffffffffffffffffffffffffffffffff163373ffffffffffffffffffffffffffffffffffffffff16145b806115c95750600160009054906101000a900473ffffffffffffffffffffffffffffffffffffffff1673ffffffffffffffffffffffffffffffffffffffff163373ffffffffffffffffffffffffffffffffffffffff16145b806116215750600360009054906101000a900473ffffffffffffffffffffffffffffffffffffffff1673ffffffffffffffffffffffffffffffffffffffff163373ffffffffffffffffffffffffffffffffffffffff16145b151561162c57600080fd5b600360149054906101000a900460ff1615151561164857600080fd5b6001600360146101000a81548160ff0219169083151502179055507f6985a02210a168e66602d3235cb6db0e70f92b3ba4d376a33c0f3d9434bff62560405160405180910390a1565b6000600160009054906101000a900473ffffffffffffffffffffffffffffffffffffffff1673ffffffffffffffffffffffffffffffffffffffff163373ffffffffffffffffffffffffffffffffffffffff1614905090565b60006116f3612a92565b6000600660009054906101000a900473ffffffffffffffffffffffffffffffffffffffff1673ffffffffffffffffffffffffffffffffffffffff166368125a1b336000604051602001526040518263ffffffff167c0100000000000000000000000000000000000000000000000000000000028152600401808273ffffffffffffffffffffffffffffffffffffffff1673ffffffffffffffffffffffffffffffffffffffff168152602001915050602060405180830381600087803b15156117ba57600080fd5b6102c65a03f115156117cb57600080fd5b5050506040518051905015156117e057600080fd5b600560009054906101000a900473ffffffffffffffffffffffffffffffffffffffff1673ffffffffffffffffffffffffffffffffffffffff1663eb3e85fe87876000604051602001526040518363ffffffff167c01000000000000000000000000000000000000000000000000000000000281526004018080602001828103825284848281815260200192508082843782019150509350505050602060405180830381600087803b151561189357600080fd5b6102c65a03f115156118a457600080fd5b5050506040518051905015156118b957600080fd5b60806040519081016040528087878080601f01602080910402602001604051908101604052809392919081815260200183838082843782019150505050505081526020018573ffffffffffffffffffffffffffffffffffffffff1681526020014267ffffffffffffffff1681526020016000151581525091506001600880548060010182816119489190612ae3565b91600052602060002090600202016000859091909150600082015181600001908051906020019061197a929190612b15565b5060208201518160010160006101000a81548173ffffffffffffffffffffffffffffffffffffffff021916908373ffffffffffffffffffffffffffffffffffffffff16021790555060408201518160010160146101000a81548167ffffffffffffffff021916908367ffffffffffffffff160217905550606082015181600101601c6101000a81548160ff0219169083151502179055505050039050600560009054906101000a900473ffffffffffffffffffffffffffffffffffffffff1673ffffffffffffffffffffffffffffffffffffffff166316e27b738787846040518463ffffffff167c0100000000000000000000000000000000000000000000000000000000028152600401808060200183815260200182810382528585828181526020019250808284378201915050945050505050600060405180830381600087803b1515611ac857600080fd5b6102c65a03f11515611ad957600080fd5b5050508063ffffffff1681141515611af057600080fd5b7f85a66b9141978db9980f7e0ce3b468cebf4f7999f32b23091c5c03e798b1ba7a84828460000151604051808473ffffffffffffffffffffffffffffffffffffffff1673ffffffffffffffffffffffffffffffffffffffff16815260200183815260200180602001828103825283818151815260200191508051906020019080838360005b83811015611b90578082015181840152602081019050611b75565b50505050905090810190601f168015611bbd5780820380516001836020036101000a031916815260200191505b5094505050505060405180910390a1611c088187878080601f016020809104026020016040519081016040528093929190818152602001838380828437820191505050505050611f13565b611c14600085836125ce565b80925050509392505050565b600360009054906101000a900473ffffffffffffffffffffffffffffffffffffffff1681565b600260009054906101000a900473ffffffffffffffffffffffffffffffffffffffff1681565b600260009054906101000a900473ffffffffffffffffffffffffffffffffffffffff1673ffffffffffffffffffffffffffffffffffffffff163373ffffffffffffffffffffffffffffffffffffffff161480611d1457506000809054906101000a900473ffffffffffffffffffffffffffffffffffffffff1673ffffffffffffffffffffffffffffffffffffffff163373ffffffffffffffffffffffffffffffffffffffff16145b80611d6c5750600160009054906101000a900473ffffffffffffffffffffffffffffffffffffffff1673ffffffffffffffffffffffffffffffffffffffff163373ffffffffffffffffffffffffffffffffffffffff16145b80611dc45750600360009054906101000a900473ffffffffffffffffffffffffffffffffffffffff1673ffffffffffffffffffffffffffffffffffffffff163373ffffffffffffffffffffffffffffffffffffffff16145b1515611dcf57600080fd5b80600883815481101515611ddf57fe5b9060005260206000209060020201600101601c6101000a81548160ff0219169083151502179055505050565b600460009054906101000a900473ffffffffffffffffffffffffffffffffffffffff1681565b600d6020528060005260406000206000915054906101000a900473ffffffffffffffffffffffffffffffffffffffff1681565b60008060009054906101000a900473ffffffffffffffffffffffffffffffffffffffff1673ffffffffffffffffffffffffffffffffffffffff163373ffffffffffffffffffffffffffffffffffffffff1614905090565b6000600260009054906101000a900473ffffffffffffffffffffffffffffffffffffffff1673ffffffffffffffffffffffffffffffffffffffff163373ffffffffffffffffffffffffffffffffffffffff1614905090565b611f1b612b95565b611f23612b95565b611f2b612baf565b6000806000806000611f3c896127d0565b9750611f7c6040805190810160405280600181526020017f20000000000000000000000000000000000000000000000000000000000000008152506127d0565b96506001611f93888a6127fe90919063ffffffff16565b01604051805910611fa15750595b908082528060200260200182016040528015611fd757816020015b611fc4612bc3565b815260200190600190039081611fbc5790505b509550600094505b855185101561202b57612003611ffe888a61287590919063ffffffff16565b61288f565b868681518110151561201157fe5b906020019060200201819052508480600101955050611fdf565b60018651111561217857600560009054906101000a900473ffffffffffffffffffffffffffffffffffffffff1673ffffffffffffffffffffffffffffffffffffffff16631e7663bc87600081518110151561208257fe5b906020019060200201516000604051602001526040518263ffffffff167c01000000000000000000000000000000000000000000000000000000000281526004018080602001828103825283818151815260200191508051906020019080838360005b838110156121005780820151818401526020810190506120e5565b50505050905090810190601f16801561212d5780820380516001836020036101000a031916815260200191505b5092505050602060405180830381600087803b151561214b57600080fd5b6102c65a03f1151561215c57600080fd5b50505060405180519050935060008411151561217757600080fd5b5b600286511015156122c657600560009054906101000a900473ffffffffffffffffffffffffffffffffffffffff1673ffffffffffffffffffffffffffffffffffffffff16631e7663bc8760018151811015156121d057fe5b906020019060200201516000604051602001526040518263ffffffff167c01000000000000000000000000000000000000000000000000000000000281526004018080602001828103825283818151815260200191508051906020019080838360005b8381101561224e578082015181840152602081019050612233565b50505050905090810190601f16801561227b5780820380516001836020036101000a031916815260200191505b5092505050602060405180830381600087803b151561229957600080fd5b6102c65a03f115156122aa57600080fd5b5050506040518051905092506000831115156122c557600080fd5b5b6003865110151561241457600560009054906101000a900473ffffffffffffffffffffffffffffffffffffffff1673ffffffffffffffffffffffffffffffffffffffff16631e7663bc87600381518110151561231e57fe5b906020019060200201516000604051602001526040518263ffffffff167c01000000000000000000000000000000000000000000000000000000000281526004018080602001828103825283818151815260200191508051906020019080838360005b8381101561239c578082015181840152602081019050612381565b50505050905090810190601f1680156123c95780820380516001836020036101000a031916815260200191505b5092505050602060405180830381600087803b15156123e757600080fd5b6102c65a03f115156123f857600080fd5b50505060405180519050915060008211151561241357600080fd5b5b6004865110151561256257600560009054906101000a900473ffffffffffffffffffffffffffffffffffffffff1673ffffffffffffffffffffffffffffffffffffffff16631e7663bc87600481518110151561246c57fe5b906020019060200201516000604051602001526040518263ffffffff167c01000000000000000000000000000000000000000000000000000000000281526004018080602001828103825283818151815260200191508051906020019080838360005b838110156124ea5780820151818401526020810190506124cf565b50505050905090810190601f1680156125175780820380516001836020036101000a031916815260200191505b5092505050602060405180830381600087803b151561253557600080fd5b6102c65a03f1151561254657600080fd5b50505060405180519050905060008111151561256157600080fd5b5b60806040519081016040528085815260200184815260200183815260200182815250600960008c81526020019081526020016000206000820151816000015560208201518160010155604082015181600201556060820151816003015590505050505050505050505050565b600c60008373ffffffffffffffffffffffffffffffffffffffff1673ffffffffffffffffffffffffffffffffffffffff1681526020019081526020016000206000815480929190600101919050555081600a600083815260200190815260200160002060006101000a81548173ffffffffffffffffffffffffffffffffffffffff021916908373ffffffffffffffffffffffffffffffffffffffff160217905550600073ffffffffffffffffffffffffffffffffffffffff168373ffffffffffffffffffffffffffffffffffffffff1614151561272c57600c60008473ffffffffffffffffffffffffffffffffffffffff1673ffffffffffffffffffffffffffffffffffffffff1681526020019081526020016000206000815480929190600190039190505550600d600082815260200190815260200160002060006101000a81549073ffffffffffffffffffffffffffffffffffffffff02191690555b7f9acbfc8185cb7c9cd26bcc6e13928731c549f8349f76b8bdfd9d6afd6e3b34fa838383604051808473ffffffffffffffffffffffffffffffffffffffff1673ffffffffffffffffffffffffffffffffffffffff1681526020018373ffffffffffffffffffffffffffffffffffffffff1673ffffffffffffffffffffffffffffffffffffffff168152602001828152602001935050505060405180910390a1505050565b6127d8612b95565b600060208301905060408051908101604052808451815260200182815250915050919050565b600080826000015161282285600001518660200151866000015187602001516128ed565b0190505b83600001518460200151018111151561286e57818060010192505082600001516128668560200151830386600001510383866000015187602001516128ed565b019050612826565b5092915050565b61287d612b95565b6128888383836129a9565b5092915050565b612897612bd7565b61289f612bd7565b600083600001516040518059106128b35750595b9080825280601f01601f191660200182016040525091506020820190506128e38185602001518660000151612a47565b8192505050919050565b600080600080600088871115156129975760208711151561294e5760018760200360080260020a031980875116888b038a018a96505b81838851161461294357600187019650806001880310612923578b8b0196505b50505083945061299d565b8686209150879350600092505b868903831115156129965786842090508060001916826000191614156129835783945061299d565b600184019350828060010193505061295b565b5b88880194505b50505050949350505050565b6129b1612b95565b60006129cf85600001518660200151866000015187602001516128ed565b90508460200151836020018181525050846020015181038360000181815250508460000151856020015101811415612a11576000856000018181525050612a3c565b8360000151836000015101856000018181510391508181525050836000015181018560200181815250505b829150509392505050565b60005b602082101515612a6f5782518452602084019350602083019250602082039150612a4a565b6001826020036101000a0390508019835116818551168181178652505050505050565b608060405190810160405280612aa6612bc3565b8152602001600073ffffffffffffffffffffffffffffffffffffffff168152602001600067ffffffffffffffff1681526020016000151581525090565b815481835581811511612b1057600202816002028360005260206000209182019101612b0f9190612beb565b5b505050565b828054600181600116156101000203166002900490600052602060002090601f016020900481019282601f10612b5657805160ff1916838001178555612b84565b82800160010185558215612b84579182015b82811115612b83578251825591602001919060010190612b68565b5b509050612b919190612c70565b5090565b604080519081016040528060008152602001600081525090565b602060405190810160405280600081525090565b602060405190810160405280600081525090565b602060405190810160405280600081525090565b612c6d91905b80821115612c695760008082016000612c0a9190612c95565b6001820160006101000a81549073ffffffffffffffffffffffffffffffffffffffff02191690556001820160146101000a81549067ffffffffffffffff021916905560018201601c6101000a81549060ff021916905550600201612bf1565b5090565b90565b612c9291905b80821115612c8e576000816000905550600101612c76565b5090565b90565b50805460018160011615610100020316600290046000825580601f10612cbb5750612cda565b601f016020900490600052602060002090810190612cd99190612c70565b5b505600a165627a7a723058204061ea71047ca89afe155ecda7f982a0b2e076ed1efba6af9d2340fabdc923e20029",
  "source": "pragma solidity ^0.4.14;\n\nimport \"./TokenCommon.sol\";\nimport \"./TokenExtensions.sol\";\nimport \"./strings.sol\";\n\n/// @title Base contract for CryptoTokens. Holds all common structs, events and base variables.\n/// @dev See the TokenCore contract documentation to understand how the various contract facets are arranged.\ncontract TokenBase is TokenExtensions {\n    using strings for *;\n    FriendContract friendContract;\n\n    function TokenBase(address _friendContract) public {\n        friendContract = FriendContract(_friendContract);\n    }\n\n    /*** EVENTS ***/\n\n    /// @dev The Mint event is fired whenever a new token comes into existence. This obviously\n    ///  includes any time a token is created through the giveMint method, but it is also called\n    ///  when a new gen0 token is created.\n    event Mint(address owner, uint256 tokenId, string uniqueText);\n\n    /// @dev Transfer event as defined in current draft of ERC721. Emitted every time a token\n    ///  ownership is assigned, including mints.\n    event TransferV0(address from, address to, uint256 tokenId);\n\n    /*** DATA TYPES ***/\n\n    /*** CONSTANTS ***/\n\n    // An approximation of currently how many seconds are in between blocks.\n    uint256 public secondsPerBlock = 15;\n\n    /*** STORAGE ***/\n\n    /// @dev An array containing the Token struct for all Tokens in existence. The ID\n    ///  of each token is actually an index into this array. Note that ID 0 is a negatoken,\n    ///  the unToken, the mythical beast that is the parent of all gen0 tokens. A bizarre\n    ///  creature that is both matron and sire... to itself! Has an invalid genetic code.\n    ///  In other words, token ID 0 is invalid... ;-)\n    TokenCommon.Token[] tokens;\n\n    // Represents an offer on an NFT\n    struct RelatedTokens {\n        uint256 token1;\n        uint256 token2;\n        uint256 token3;\n        uint256 token4;\n    }\n\n    mapping (uint256 => RelatedTokens) relatedTokens;\n\n    /// @dev A mapping from token IDs to the address that owns them. All tokens have\n    ///  some valid owner address, even gen0 tokens are created with a non-zero owner.\n    mapping (uint256 => address) public tokenIndexToOwnerV0;\n    mapping (uint256 => address) public tokenIndexToOwner; // copy from TokenERC721\n\n    // @dev A mapping from owner address to count of tokens that address owns.\n    //  Used internally inside balanceOf() to resolve ownership count.\n    mapping (address => uint256) ownershipTokenCountV0;\n\n    /// @dev A mapping from TokenIDs to an address that has been approved to call\n    ///  transferFrom(). Each Token can only have one approved address for transfer\n    ///  at any time. A zero value means no approval is outstanding.\n    mapping (uint256 => address) public tokenIndexToApprovedV0;\n\n    /// @dev Assigns ownership of a specific Token to an address.\n    function _transferV0(address _from, address _to, uint256 _tokenId) internal {\n        // Since the number of tokens is capped to 2^32 we can't overflow this\n        ownershipTokenCountV0[_to]++;\n        // transfer ownership\n        tokenIndexToOwnerV0[_tokenId] = _to;\n        // When creating new tokens _from is 0x0, but we can't account that address.\n        if (_from != address(0)) {\n            ownershipTokenCountV0[_from]--;\n            // clear any previously approved ownership exchange\n            delete tokenIndexToApprovedV0[_tokenId];\n        }\n        // Emit the transfer event.\n        TransferV0(_from, _to, _tokenId);\n    }\n\n    /// @dev An internal method that creates a new token and stores it. This\n    ///  method doesn't do any checking and should only be called when the\n    ///  input data is known to be valid. Will generate both a Mint event\n    ///  and a Transfer event.\n    /// @param _uniqueText The unique text.\n    /// @param _owner The inital owner of this token, must be non-zero (except for the unToken, ID 0)\n    function createToken(\n        string _uniqueText,\n        address _owner\n    )\n        external\n        returns (uint256)\n    {\n        require(friendContract.isFriend(msg.sender));\n\n        // Require that it's never been created before.\n        require(index.uniqueTextAvailable(_uniqueText));\n\n        TokenCommon.Token memory _tokenItem = TokenCommon.Token({\n            uniqueText: _uniqueText,\n            firstOwner: _owner,\n            mintTime: uint64(now),\n            isHidden: false\n        });\n        uint256 newTokenId = tokens.push(_tokenItem) - 1;\n        index.setUniqueTextToTokenIndex(_uniqueText, newTokenId);\n\n        // It's probably never going to happen, 4 billion tokens is A LOT, but\n        // let's just be 100% sure we never let this happen.\n        require(newTokenId == uint256(uint32(newTokenId)));\n\n        // emit the mint event\n        Mint(\n            _owner,\n            newTokenId,\n            _tokenItem.uniqueText\n        );\n\n        _setRelatedTokens(newTokenId, _uniqueText);\n\n        // This will assign ownership, and also emit the Transfer event as\n        // per ERC721 draft\n        _transferV0(0, _owner, newTokenId);\n\n        return newTokenId;\n    }\n\n    function _setRelatedTokens(uint256 _tokenId, string _uniqueText) internal {\n        var texts = _uniqueText.toSlice();\n        var delim = \" \".toSlice();\n        var parts = new string[](texts.count(delim) + 1);\n        for(uint i = 0; i < parts.length; i++) {\n            parts[i] = texts.split(delim).toString();\n        }\n\n        //var words = new string[](texts.count(delim) + 1);\n        uint256 _relatedToken1;\n        uint256 _relatedToken2;\n        uint256 _relatedToken3;\n        uint256 _relatedToken4;\n        if (parts.length > 1) {\n            _relatedToken1 = index.getTokenId(parts[0]);\n            require(_relatedToken1 > 0);\n        }\n        if (parts.length >= 2) {\n            _relatedToken2 = index.getTokenId(parts[1]);\n            require(_relatedToken2 > 0);\n        }\n        if (parts.length >= 3) {\n            _relatedToken3 = index.getTokenId(parts[3]);\n            require(_relatedToken3 > 0);\n        }\n        if (parts.length >= 4) {\n            _relatedToken4 = index.getTokenId(parts[4]);\n            require(_relatedToken4 > 0);\n        }\n\n        relatedTokens[_tokenId] = RelatedTokens({\n            token1: _relatedToken1,\n            token2: _relatedToken2,\n            token3: _relatedToken3,\n            token4: _relatedToken4\n        });\n    }\n\n    function setHidden(uint256 _tokenId, bool _isHidden) external onlyCLevel {\n        tokens[_tokenId].isHidden = _isHidden;\n    }\n\n    function isHidden(uint256 _tokenId) external view returns (bool) {\n        return tokens[_tokenId].isHidden;\n    }\n\n    // Any C-level can fix how many seconds per blocks are currently observed.\n    function setSecondsPerBlock(uint256 secs) external onlyCLevel {\n        // require(secs < cooldowns[0]);\n        secondsPerBlock = secs;\n    }\n\n    function setOwner(uint256 _tokenId, address owner) external {\n        require(friendContract.isFriend(msg.sender));\n\n        tokenIndexToOwner[_tokenId] = owner;\n    }\n}\n",
  "sourcePath": "/Users/jasonbanico/Dropbox/Workspace/CryptoTokenAdmin/contracts/TokenBase.sol",
  "compiler": {
    "name": "solc",
    "version": "0.4.19+commit.c4cbbb05.Emscripten.clang"
  },
  "schemaVersion": "1.0.1",
  "updatedAt": "2018-03-29T07:59:13.439Z"
}