{
  "contractName": "TokenCore",
  "abi": [
    {
      "constant": true,
      "inputs": [],
      "name": "cfoAddress",
      "outputs": [
        {
          "name": "",
          "type": "address"
        }
      ],
      "payable": false,
      "stateMutability": "view",
      "type": "function"
    },
    {
      "constant": true,
      "inputs": [],
      "name": "ceoAddress",
      "outputs": [
        {
          "name": "",
          "type": "address"
        }
      ],
      "payable": false,
      "stateMutability": "view",
      "type": "function"
    },
    {
      "constant": true,
      "inputs": [
        {
          "name": "_tokenId",
          "type": "uint256"
        }
      ],
      "name": "ownerOfV0",
      "outputs": [
        {
          "name": "owner",
          "type": "address"
        }
      ],
      "payable": false,
      "stateMutability": "view",
      "type": "function"
    },
    {
      "constant": true,
      "inputs": [],
      "name": "totalSupply",
      "outputs": [
        {
          "name": "",
          "type": "uint256"
        }
      ],
      "payable": false,
      "stateMutability": "view",
      "type": "function"
    },
    {
      "constant": true,
      "inputs": [
        {
          "name": "",
          "type": "uint256"
        }
      ],
      "name": "tokenIndexToOwner",
      "outputs": [
        {
          "name": "",
          "type": "address"
        }
      ],
      "payable": false,
      "stateMutability": "view",
      "type": "function"
    },
    {
      "constant": false,
      "inputs": [
        {
          "name": "_address",
          "type": "address"
        }
      ],
      "name": "setSaleOfferAddress",
      "outputs": [],
      "payable": false,
      "stateMutability": "nonpayable",
      "type": "function"
    },
    {
      "constant": false,
      "inputs": [
        {
          "name": "_newCEO",
          "type": "address"
        }
      ],
      "name": "setCEO",
      "outputs": [],
      "payable": false,
      "stateMutability": "nonpayable",
      "type": "function"
    },
    {
      "constant": true,
      "inputs": [],
      "name": "index",
      "outputs": [
        {
          "name": "",
          "type": "address"
        }
      ],
      "payable": false,
      "stateMutability": "view",
      "type": "function"
    },
    {
      "constant": false,
      "inputs": [
        {
          "name": "_newCOO",
          "type": "address"
        }
      ],
      "name": "setCOO",
      "outputs": [],
      "payable": false,
      "stateMutability": "nonpayable",
      "type": "function"
    },
    {
      "constant": false,
      "inputs": [
        {
          "name": "_address",
          "type": "address"
        }
      ],
      "name": "setTokenIndexAddress",
      "outputs": [],
      "payable": false,
      "stateMutability": "nonpayable",
      "type": "function"
    },
    {
      "constant": true,
      "inputs": [],
      "name": "isCLevel",
      "outputs": [
        {
          "name": "",
          "type": "bool"
        }
      ],
      "payable": false,
      "stateMutability": "view",
      "type": "function"
    },
    {
      "constant": false,
      "inputs": [
        {
          "name": "_newCCO",
          "type": "address"
        }
      ],
      "name": "setCCO",
      "outputs": [],
      "payable": false,
      "stateMutability": "nonpayable",
      "type": "function"
    },
    {
      "constant": true,
      "inputs": [
        {
          "name": "",
          "type": "uint256"
        }
      ],
      "name": "tokenIndexToOwnerV0",
      "outputs": [
        {
          "name": "",
          "type": "address"
        }
      ],
      "payable": false,
      "stateMutability": "view",
      "type": "function"
    },
    {
      "constant": false,
      "inputs": [
        {
          "name": "_newCFO",
          "type": "address"
        }
      ],
      "name": "setCFO",
      "outputs": [],
      "payable": false,
      "stateMutability": "nonpayable",
      "type": "function"
    },
    {
      "constant": true,
      "inputs": [],
      "name": "isCCO",
      "outputs": [
        {
          "name": "",
          "type": "bool"
        }
      ],
      "payable": false,
      "stateMutability": "view",
      "type": "function"
    },
    {
      "constant": false,
      "inputs": [
        {
          "name": "secs",
          "type": "uint256"
        }
      ],
      "name": "setSecondsPerBlock",
      "outputs": [],
      "payable": false,
      "stateMutability": "nonpayable",
      "type": "function"
    },
    {
      "constant": true,
      "inputs": [],
      "name": "paused",
      "outputs": [
        {
          "name": "",
          "type": "bool"
        }
      ],
      "payable": false,
      "stateMutability": "view",
      "type": "function"
    },
    {
      "constant": false,
      "inputs": [
        {
          "name": "_to",
          "type": "address"
        },
        {
          "name": "_tokenId",
          "type": "uint256"
        }
      ],
      "name": "approveV0",
      "outputs": [],
      "payable": false,
      "stateMutability": "nonpayable",
      "type": "function"
    },
    {
      "constant": true,
      "inputs": [
        {
          "name": "_tokenId",
          "type": "uint256"
        }
      ],
      "name": "tokenMetadata",
      "outputs": [
        {
          "name": "",
          "type": "string"
        }
      ],
      "payable": false,
      "stateMutability": "view",
      "type": "function"
    },
    {
      "constant": true,
      "inputs": [],
      "name": "newContractAddress",
      "outputs": [
        {
          "name": "",
          "type": "address"
        }
      ],
      "payable": false,
      "stateMutability": "view",
      "type": "function"
    },
    {
      "constant": true,
      "inputs": [
        {
          "name": "_ccoAddress",
          "type": "address"
        }
      ],
      "name": "isCCOAddress",
      "outputs": [
        {
          "name": "",
          "type": "bool"
        }
      ],
      "payable": false,
      "stateMutability": "view",
      "type": "function"
    },
    {
      "constant": false,
      "inputs": [
        {
          "name": "_from",
          "type": "address"
        },
        {
          "name": "_to",
          "type": "address"
        },
        {
          "name": "_tokenId",
          "type": "uint256"
        }
      ],
      "name": "transferFromV0",
      "outputs": [],
      "payable": false,
      "stateMutability": "nonpayable",
      "type": "function"
    },
    {
      "constant": true,
      "inputs": [],
      "name": "secondsPerBlock",
      "outputs": [
        {
          "name": "",
          "type": "uint256"
        }
      ],
      "payable": false,
      "stateMutability": "view",
      "type": "function"
    },
    {
      "constant": false,
      "inputs": [
        {
          "name": "_tokenId",
          "type": "uint256"
        },
        {
          "name": "owner",
          "type": "address"
        }
      ],
      "name": "setOwner",
      "outputs": [],
      "payable": false,
      "stateMutability": "nonpayable",
      "type": "function"
    },
    {
      "constant": false,
      "inputs": [],
      "name": "pause",
      "outputs": [],
      "payable": false,
      "stateMutability": "nonpayable",
      "type": "function"
    },
    {
      "constant": true,
      "inputs": [],
      "name": "isCFO",
      "outputs": [
        {
          "name": "",
          "type": "bool"
        }
      ],
      "payable": false,
      "stateMutability": "view",
      "type": "function"
    },
    {
      "constant": true,
      "inputs": [
        {
          "name": "_claimant",
          "type": "address"
        },
        {
          "name": "_tokenId",
          "type": "uint256"
        }
      ],
      "name": "ownsV0",
      "outputs": [
        {
          "name": "",
          "type": "bool"
        }
      ],
      "payable": false,
      "stateMutability": "view",
      "type": "function"
    },
    {
      "constant": false,
      "inputs": [
        {
          "name": "_uniqueText",
          "type": "string"
        },
        {
          "name": "_owner",
          "type": "address"
        }
      ],
      "name": "createToken",
      "outputs": [
        {
          "name": "",
          "type": "uint256"
        }
      ],
      "payable": false,
      "stateMutability": "nonpayable",
      "type": "function"
    },
    {
      "constant": false,
      "inputs": [
        {
          "name": "_to",
          "type": "address"
        },
        {
          "name": "_tokenId",
          "type": "uint256"
        }
      ],
      "name": "transferV0",
      "outputs": [],
      "payable": false,
      "stateMutability": "nonpayable",
      "type": "function"
    },
    {
      "constant": true,
      "inputs": [],
      "name": "ccoAddress",
      "outputs": [
        {
          "name": "",
          "type": "address"
        }
      ],
      "payable": false,
      "stateMutability": "view",
      "type": "function"
    },
    {
      "constant": true,
      "inputs": [],
      "name": "cooAddress",
      "outputs": [
        {
          "name": "",
          "type": "address"
        }
      ],
      "payable": false,
      "stateMutability": "view",
      "type": "function"
    },
    {
      "constant": false,
      "inputs": [
        {
          "name": "_tokenId",
          "type": "uint256"
        },
        {
          "name": "_isHidden",
          "type": "bool"
        }
      ],
      "name": "setHidden",
      "outputs": [],
      "payable": false,
      "stateMutability": "nonpayable",
      "type": "function"
    },
    {
      "constant": true,
      "inputs": [
        {
          "name": "_tokenId",
          "type": "uint256"
        }
      ],
      "name": "getOwner",
      "outputs": [
        {
          "name": "owner",
          "type": "address"
        }
      ],
      "payable": false,
      "stateMutability": "view",
      "type": "function"
    },
    {
      "constant": true,
      "inputs": [],
      "name": "saleOffer",
      "outputs": [
        {
          "name": "",
          "type": "address"
        }
      ],
      "payable": false,
      "stateMutability": "view",
      "type": "function"
    },
    {
      "constant": true,
      "inputs": [
        {
          "name": "",
          "type": "uint256"
        }
      ],
      "name": "tokenIndexToApprovedV0",
      "outputs": [
        {
          "name": "",
          "type": "address"
        }
      ],
      "payable": false,
      "stateMutability": "view",
      "type": "function"
    },
    {
      "constant": true,
      "inputs": [],
      "name": "isCEO",
      "outputs": [
        {
          "name": "",
          "type": "bool"
        }
      ],
      "payable": false,
      "stateMutability": "view",
      "type": "function"
    },
    {
      "constant": true,
      "inputs": [
        {
          "name": "_tokenId",
          "type": "uint256"
        }
      ],
      "name": "getRelatedTokens",
      "outputs": [
        {
          "name": "",
          "type": "uint256"
        },
        {
          "name": "",
          "type": "uint256"
        },
        {
          "name": "",
          "type": "uint256"
        },
        {
          "name": "",
          "type": "uint256"
        }
      ],
      "payable": false,
      "stateMutability": "view",
      "type": "function"
    },
    {
      "constant": true,
      "inputs": [],
      "name": "isCOO",
      "outputs": [
        {
          "name": "",
          "type": "bool"
        }
      ],
      "payable": false,
      "stateMutability": "view",
      "type": "function"
    },
    {
      "inputs": [
        {
          "name": "_friendContract",
          "type": "address"
        }
      ],
      "payable": false,
      "stateMutability": "nonpayable",
      "type": "constructor"
    },
    {
      "payable": true,
      "stateMutability": "payable",
      "type": "fallback"
    },
    {
      "anonymous": false,
      "inputs": [
        {
          "indexed": false,
          "name": "from",
          "type": "address"
        },
        {
          "indexed": false,
          "name": "to",
          "type": "address"
        },
        {
          "indexed": false,
          "name": "tokenId",
          "type": "uint256"
        }
      ],
      "name": "TransferV0",
      "type": "event"
    },
    {
      "anonymous": false,
      "inputs": [
        {
          "indexed": false,
          "name": "owner",
          "type": "address"
        },
        {
          "indexed": false,
          "name": "approved",
          "type": "address"
        },
        {
          "indexed": false,
          "name": "tokenId",
          "type": "uint256"
        }
      ],
      "name": "ApprovalV0",
      "type": "event"
    },
    {
      "anonymous": false,
      "inputs": [
        {
          "indexed": false,
          "name": "owner",
          "type": "address"
        },
        {
          "indexed": false,
          "name": "tokenId",
          "type": "uint256"
        },
        {
          "indexed": false,
          "name": "uniqueText",
          "type": "string"
        }
      ],
      "name": "Mint",
      "type": "event"
    },
    {
      "anonymous": false,
      "inputs": [
        {
          "indexed": false,
          "name": "newContract",
          "type": "address"
        }
      ],
      "name": "ContractUpgrade",
      "type": "event"
    },
    {
      "anonymous": false,
      "inputs": [
        {
          "indexed": false,
          "name": "message",
          "type": "string"
        }
      ],
      "name": "Trace",
      "type": "event"
    },
    {
      "anonymous": false,
      "inputs": [],
      "name": "Pause",
      "type": "event"
    },
    {
      "anonymous": false,
      "inputs": [],
      "name": "Unpause",
      "type": "event"
    },
    {
      "constant": false,
      "inputs": [
        {
          "name": "_v2Address",
          "type": "address"
        }
      ],
      "name": "setNewAddress",
      "outputs": [],
      "payable": false,
      "stateMutability": "nonpayable",
      "type": "function"
    },
    {
      "constant": false,
      "inputs": [],
      "name": "unpause",
      "outputs": [],
      "payable": false,
      "stateMutability": "nonpayable",
      "type": "function"
    },
    {
      "constant": true,
      "inputs": [],
      "name": "getBalance",
      "outputs": [
        {
          "name": "balance",
          "type": "uint256"
        }
      ],
      "payable": false,
      "stateMutability": "view",
      "type": "function"
    },
    {
      "constant": false,
      "inputs": [],
      "name": "withdrawBalance",
      "outputs": [],
      "payable": false,
      "stateMutability": "nonpayable",
      "type": "function"
    },
    {
      "constant": false,
      "inputs": [],
      "name": "withdrawOfferBalances",
      "outputs": [],
      "payable": false,
      "stateMutability": "nonpayable",
      "type": "function"
    },
    {
      "constant": true,
      "inputs": [
        {
          "name": "_id",
          "type": "uint256"
        }
      ],
      "name": "getToken",
      "outputs": [
        {
          "name": "mintTime",
          "type": "uint256"
        },
        {
          "name": "price",
          "type": "uint256"
        },
        {
          "name": "trades",
          "type": "uint256"
        }
      ],
      "payable": false,
      "stateMutability": "view",
      "type": "function"
    },
    {
      "constant": true,
      "inputs": [
        {
          "name": "_id",
          "type": "uint256"
        }
      ],
      "name": "getUniqueText",
      "outputs": [
        {
          "name": "",
          "type": "string"
        }
      ],
      "payable": false,
      "stateMutability": "view",
      "type": "function"
    },
    {
      "constant": true,
      "inputs": [
        {
          "name": "_id",
          "type": "uint256"
        }
      ],
      "name": "isHidden",
      "outputs": [
        {
          "name": "",
          "type": "bool"
        }
      ],
      "payable": false,
      "stateMutability": "view",
      "type": "function"
    },
    {
      "constant": false,
      "inputs": [
        {
          "name": "_tokenId",
          "type": "uint256"
        },
        {
          "name": "_newSeller",
          "type": "address"
        }
      ],
      "name": "transferOffer",
      "outputs": [],
      "payable": false,
      "stateMutability": "nonpayable",
      "type": "function"
    }
  ],
  "bytecode": "0x60606040526000600360146101000a81548160ff021916908315150217905550600f60075534156200003057600080fd5b60405160208062004d63833981016040528080519060200190919050508080600660006101000a81548173ffffffffffffffffffffffffffffffffffffffff021916908373ffffffffffffffffffffffffffffffffffffffff160217905550506001600360146101000a81548160ff021916908315150217905550336000806101000a81548173ffffffffffffffffffffffffffffffffffffffff021916908373ffffffffffffffffffffffffffffffffffffffff16021790555033600260006101000a81548173ffffffffffffffffffffffffffffffffffffffff021916908373ffffffffffffffffffffffffffffffffffffffff1602179055506200014a620001516401000000000262004729176401000000009004565b50620004bb565b6200015b6200029a565b60806040519081016040528060206040519081016040528060008152508152602001600073ffffffffffffffffffffffffffffffffffffffff1681526020014267ffffffffffffffff16815260200160001515815250905060088054806001018281620001c99190620002ed565b916000526020600020906002020160008390919091506000820151816000019080519060200190620001fd92919062000322565b5060208201518160010160006101000a81548173ffffffffffffffffffffffffffffffffffffffff021916908373ffffffffffffffffffffffffffffffffffffffff16021790555060408201518160010160146101000a81548167ffffffffffffffff021916908367ffffffffffffffff160217905550606082015181600101601c6101000a81548160ff02191690831515021790555050505050565b608060405190810160405280620002b0620003a9565b8152602001600073ffffffffffffffffffffffffffffffffffffffff168152602001600067ffffffffffffffff1681526020016000151581525090565b8154818355818115116200031d576002028160020283600052602060002091820191016200031c9190620003bd565b5b505050565b828054600181600116156101000203166002900490600052602060002090601f016020900481019282601f106200036557805160ff191683800117855562000396565b8280016001018555821562000396579182015b828111156200039557825182559160200191906001019062000378565b5b509050620003a5919062000447565b5090565b602060405190810160405280600081525090565b6200044491905b80821115620004405760008082016000620003e091906200046f565b6001820160006101000a81549073ffffffffffffffffffffffffffffffffffffffff02191690556001820160146101000a81549067ffffffffffffffff021916905560018201601c6101000a81549060ff021916905550600201620003c4565b5090565b90565b6200046c91905b80821115620004685760008160009055506001016200044e565b5090565b90565b50805460018160011615610100020316600290046000825580601f10620004975750620004b8565b601f016020900490600052602060002090810190620004b7919062000447565b5b50565b61489880620004cb6000396000f30060606040526004361061023b576000357c0100000000000000000000000000000000000000000000000000000000900463ffffffff1680630519ce7914610299578063078f069b146102ee5780630a0f8168146103035780630cadb3b11461035857806312065fe0146103bb57806318160ddd146103e45780631d36e06c1461040d5780631e8cfd1e1461047057806327d7874c146104a95780632986c0e5146104e25780632ba73c151461053757806339f020b0146105705780633a66e9e1146105a95780633f4ba83a146105d657806343c9f97a146105eb57806345168839146106265780634c706d171461065f5780634e0a3379146106c257806354c5a3ae146106fb5780635663896e146107285780635c975abb1461074b5780635fd8c71014610778578063666503e71461078d5780636914db60146107cf5780636af04a571461086b57806371587988146108c0578063715fbfa8146108f957806375c7f8771461094a5780637a7d4937146109ab5780637fd39247146109d45780638456cb5914610a165780639393ae3714610a2b57806397286c3914610a585780639e8d32e914610a9a578063a211937714610af4578063af9e55fc14610b55578063afeaa2d414610b97578063b047fb5014610bec578063b443aa2014610c41578063c41a360a14610c6f578063ccea098514610cd2578063cd488ac514610d27578063e4b50cb814610d8a578063e513b7a914610dcf578063f2f8051014610dfc578063f4a02e7014610e48578063fef8f93f14610e75575b600460009054906101000a900473ffffffffffffffffffffffffffffffffffffffff1673ffffffffffffffffffffffffffffffffffffffff163373ffffffffffffffffffffffffffffffffffffffff1614151561029757600080fd5b005b34156102a457600080fd5b6102ac610f11565b604051808273ffffffffffffffffffffffffffffffffffffffff1673ffffffffffffffffffffffffffffffffffffffff16815260200191505060405180910390f35b34156102f957600080fd5b610301610f37565b005b341561030e57600080fd5b610316611135565b604051808273ffffffffffffffffffffffffffffffffffffffff1673ffffffffffffffffffffffffffffffffffffffff16815260200191505060405180910390f35b341561036357600080fd5b610379600480803590602001909190505061115a565b604051808273ffffffffffffffffffffffffffffffffffffffff1673ffffffffffffffffffffffffffffffffffffffff16815260200191505060405180910390f35b34156103c657600080fd5b6103ce6111d3565b6040518082815260200191505060405180910390f35b34156103ef57600080fd5b6103f76111f2565b6040518082815260200191505060405180910390f35b341561041857600080fd5b61042e6004808035906020019091905050611202565b604051808273ffffffffffffffffffffffffffffffffffffffff1673ffffffffffffffffffffffffffffffffffffffff16815260200191505060405180910390f35b341561047b57600080fd5b6104a7600480803573ffffffffffffffffffffffffffffffffffffffff16906020019091905050611235565b005b34156104b457600080fd5b6104e0600480803573ffffffffffffffffffffffffffffffffffffffff1690602001909190505061136c565b005b34156104ed57600080fd5b6104f5611446565b604051808273ffffffffffffffffffffffffffffffffffffffff1673ffffffffffffffffffffffffffffffffffffffff16815260200191505060405180910390f35b341561054257600080fd5b61056e600480803573ffffffffffffffffffffffffffffffffffffffff1690602001909190505061146c565b005b341561057b57600080fd5b6105a7600480803573ffffffffffffffffffffffffffffffffffffffff16906020019091905050611547565b005b34156105b457600080fd5b6105bc6115e6565b604051808215151515815260200191505060405180910390f35b34156105e157600080fd5b6105e9611745565b005b34156105f657600080fd5b61060c6004808035906020019091905050611992565b604051808215151515815260200191505060405180910390f35b341561063157600080fd5b61065d600480803573ffffffffffffffffffffffffffffffffffffffff169060200190919050506119c9565b005b341561066a57600080fd5b6106806004808035906020019091905050611aa4565b604051808273ffffffffffffffffffffffffffffffffffffffff1673ffffffffffffffffffffffffffffffffffffffff16815260200191505060405180910390f35b34156106cd57600080fd5b6106f9600480803573ffffffffffffffffffffffffffffffffffffffff16906020019091905050611ad7565b005b341561070657600080fd5b61070e611bb2565b604051808215151515815260200191505060405180910390f35b341561073357600080fd5b6107496004808035906020019091905050611c0a565b005b341561075657600080fd5b61075e611d77565b604051808215151515815260200191505060405180910390f35b341561078357600080fd5b61078b611d8a565b005b341561079857600080fd5b6107cd600480803573ffffffffffffffffffffffffffffffffffffffff16906020019091908035906020019091905050611e67565b005b34156107da57600080fd5b6107f0600480803590602001909190505061201b565b6040518080602001828103825283818151815260200191508051906020019080838360005b83811015610830578082015181840152602081019050610815565b50505050905090810190601f16801561085d5780820380516001836020036101000a031916815260200191505b509250505060405180910390f35b341561087657600080fd5b61087e6121a8565b604051808273ffffffffffffffffffffffffffffffffffffffff1673ffffffffffffffffffffffffffffffffffffffff16815260200191505060405180910390f35b34156108cb57600080fd5b6108f7600480803573ffffffffffffffffffffffffffffffffffffffff169060200190919050506121ce565b005b341561090457600080fd5b610930600480803573ffffffffffffffffffffffffffffffffffffffff169060200190919050506122eb565b604051808215151515815260200191505060405180910390f35b341561095557600080fd5b6109a9600480803573ffffffffffffffffffffffffffffffffffffffff1690602001909190803573ffffffffffffffffffffffffffffffffffffffff16906020019091908035906020019091905050612345565b005b34156109b657600080fd5b6109be6124d3565b6040518082815260200191505060405180910390f35b34156109df57600080fd5b610a14600480803590602001909190803573ffffffffffffffffffffffffffffffffffffffff169060200190919050506124d9565b005b3415610a2157600080fd5b610a2961261a565b005b3415610a3657600080fd5b610a3e6127e2565b604051808215151515815260200191505060405180910390f35b3415610a6357600080fd5b610a98600480803590602001909190803573ffffffffffffffffffffffffffffffffffffffff1690602001909190505061283a565b005b3415610aa557600080fd5b610ada600480803573ffffffffffffffffffffffffffffffffffffffff16906020019091908035906020019091905050612a2d565b604051808215151515815260200191505060405180910390f35b3415610aff57600080fd5b610b3f6004808035906020019082018035906020019190919290803573ffffffffffffffffffffffffffffffffffffffff16906020019091905050612a99565b6040518082815260200191505060405180910390f35b3415610b6057600080fd5b610b95600480803573ffffffffffffffffffffffffffffffffffffffff16906020019091908035906020019091905050612fd0565b005b3415610ba257600080fd5b610baa6131cf565b604051808273ffffffffffffffffffffffffffffffffffffffff1673ffffffffffffffffffffffffffffffffffffffff16815260200191505060405180910390f35b3415610bf757600080fd5b610bff6131f5565b604051808273ffffffffffffffffffffffffffffffffffffffff1673ffffffffffffffffffffffffffffffffffffffff16815260200191505060405180910390f35b3415610c4c57600080fd5b610c6d6004808035906020019091908035151590602001909190505061321b565b005b3415610c7a57600080fd5b610c9060048080359060200190919050506133ba565b604051808273ffffffffffffffffffffffffffffffffffffffff1673ffffffffffffffffffffffffffffffffffffffff16815260200191505060405180910390f35b3415610cdd57600080fd5b610ce56133f7565b604051808273ffffffffffffffffffffffffffffffffffffffff1673ffffffffffffffffffffffffffffffffffffffff16815260200191505060405180910390f35b3415610d3257600080fd5b610d48600480803590602001909190505061341d565b604051808273ffffffffffffffffffffffffffffffffffffffff1673ffffffffffffffffffffffffffffffffffffffff16815260200191505060405180910390f35b3415610d9557600080fd5b610dab6004808035906020019091905050613450565b60405180848152602001838152602001828152602001935050505060405180910390f35b3415610dda57600080fd5b610de2613626565b604051808215151515815260200191505060405180910390f35b3415610e0757600080fd5b610e1d600480803590602001909190505061367d565b6040518085815260200184815260200183815260200182815260200194505050505060405180910390f35b3415610e5357600080fd5b610e5b6136be565b604051808215151515815260200191505060405180910390f35b3415610e8057600080fd5b610e966004808035906020019091905050613716565b6040518080602001828103825283818151815260200191508051906020019080838360005b83811015610ed6578082015181840152602081019050610ebb565b50505050905090810190601f168015610f035780820380516001836020036101000a031916815260200191505b509250505060405180910390f35b600160009054906101000a900473ffffffffffffffffffffffffffffffffffffffff1681565b600260009054906101000a900473ffffffffffffffffffffffffffffffffffffffff1673ffffffffffffffffffffffffffffffffffffffff163373ffffffffffffffffffffffffffffffffffffffff161480610fdf57506000809054906101000a900473ffffffffffffffffffffffffffffffffffffffff1673ffffffffffffffffffffffffffffffffffffffff163373ffffffffffffffffffffffffffffffffffffffff16145b806110375750600160009054906101000a900473ffffffffffffffffffffffffffffffffffffffff1673ffffffffffffffffffffffffffffffffffffffff163373ffffffffffffffffffffffffffffffffffffffff16145b8061108f5750600360009054906101000a900473ffffffffffffffffffffffffffffffffffffffff1673ffffffffffffffffffffffffffffffffffffffff163373ffffffffffffffffffffffffffffffffffffffff16145b151561109a57600080fd5b600460009054906101000a900473ffffffffffffffffffffffffffffffffffffffff1673ffffffffffffffffffffffffffffffffffffffff16635fd8c7106040518163ffffffff167c0100000000000000000000000000000000000000000000000000000000028152600401600060405180830381600087803b151561111f57600080fd5b6102c65a03f1151561113057600080fd5b505050565b6000809054906101000a900473ffffffffffffffffffffffffffffffffffffffff1681565b6000600a600083815260200190815260200160002060009054906101000a900473ffffffffffffffffffffffffffffffffffffffff169050600073ffffffffffffffffffffffffffffffffffffffff168173ffffffffffffffffffffffffffffffffffffffff16141515156111ce57600080fd5b919050565b60003073ffffffffffffffffffffffffffffffffffffffff1631905090565b6000600160088054905003905090565b600b6020528060005260406000206000915054906101000a900473ffffffffffffffffffffffffffffffffffffffff1681565b60008060009054906101000a900473ffffffffffffffffffffffffffffffffffffffff1673ffffffffffffffffffffffffffffffffffffffff163373ffffffffffffffffffffffffffffffffffffffff1614151561129257600080fd5b8190508073ffffffffffffffffffffffffffffffffffffffff166352a24fb26000604051602001526040518163ffffffff167c0100000000000000000000000000000000000000000000000000000000028152600401602060405180830381600087803b151561130157600080fd5b6102c65a03f1151561131257600080fd5b50505060405180519050151561132757600080fd5b80600460006101000a81548173ffffffffffffffffffffffffffffffffffffffff021916908373ffffffffffffffffffffffffffffffffffffffff1602179055505050565b6000809054906101000a900473ffffffffffffffffffffffffffffffffffffffff1673ffffffffffffffffffffffffffffffffffffffff163373ffffffffffffffffffffffffffffffffffffffff161415156113c757600080fd5b600073ffffffffffffffffffffffffffffffffffffffff168173ffffffffffffffffffffffffffffffffffffffff161415151561140357600080fd5b806000806101000a81548173ffffffffffffffffffffffffffffffffffffffff021916908373ffffffffffffffffffffffffffffffffffffffff16021790555050565b600560009054906101000a900473ffffffffffffffffffffffffffffffffffffffff1681565b6000809054906101000a900473ffffffffffffffffffffffffffffffffffffffff1673ffffffffffffffffffffffffffffffffffffffff163373ffffffffffffffffffffffffffffffffffffffff161415156114c757600080fd5b600073ffffffffffffffffffffffffffffffffffffffff168173ffffffffffffffffffffffffffffffffffffffff161415151561150357600080fd5b80600260006101000a81548173ffffffffffffffffffffffffffffffffffffffff021916908373ffffffffffffffffffffffffffffffffffffffff16021790555050565b6000809054906101000a900473ffffffffffffffffffffffffffffffffffffffff1673ffffffffffffffffffffffffffffffffffffffff163373ffffffffffffffffffffffffffffffffffffffff161415156115a257600080fd5b80600560006101000a81548173ffffffffffffffffffffffffffffffffffffffff021916908373ffffffffffffffffffffffffffffffffffffffff16021790555050565b6000600260009054906101000a900473ffffffffffffffffffffffffffffffffffffffff1673ffffffffffffffffffffffffffffffffffffffff163373ffffffffffffffffffffffffffffffffffffffff16148061169057506000809054906101000a900473ffffffffffffffffffffffffffffffffffffffff1673ffffffffffffffffffffffffffffffffffffffff163373ffffffffffffffffffffffffffffffffffffffff16145b806116e85750600160009054906101000a900473ffffffffffffffffffffffffffffffffffffffff1673ffffffffffffffffffffffffffffffffffffffff163373ffffffffffffffffffffffffffffffffffffffff16145b806117405750600360009054906101000a900473ffffffffffffffffffffffffffffffffffffffff1673ffffffffffffffffffffffffffffffffffffffff163373ffffffffffffffffffffffffffffffffffffffff16145b905090565b6000809054906101000a900473ffffffffffffffffffffffffffffffffffffffff1673ffffffffffffffffffffffffffffffffffffffff163373ffffffffffffffffffffffffffffffffffffffff161415156117a057600080fd5b600360149054906101000a900460ff1615156117bb57600080fd5b600660009054906101000a900473ffffffffffffffffffffffffffffffffffffffff1673ffffffffffffffffffffffffffffffffffffffff1663ae04884e6000604051602001526040518163ffffffff167c0100000000000000000000000000000000000000000000000000000000028152600401602060405180830381600087803b151561184957600080fd5b6102c65a03f1151561185a57600080fd5b50505060405180519050151561186f57600080fd5b600073ffffffffffffffffffffffffffffffffffffffff16600460009054906101000a900473ffffffffffffffffffffffffffffffffffffffff1673ffffffffffffffffffffffffffffffffffffffff16141515156118cd57600080fd5b600073ffffffffffffffffffffffffffffffffffffffff16600560009054906101000a900473ffffffffffffffffffffffffffffffffffffffff1673ffffffffffffffffffffffffffffffffffffffff161415151561192b57600080fd5b600073ffffffffffffffffffffffffffffffffffffffff16600e60009054906101000a900473ffffffffffffffffffffffffffffffffffffffff1673ffffffffffffffffffffffffffffffffffffffff1614151561198857600080fd5b6119906137de565b565b60006008828154811015156119a357fe5b9060005260206000209060020201600101601c9054906101000a900460ff169050919050565b6000809054906101000a900473ffffffffffffffffffffffffffffffffffffffff1673ffffffffffffffffffffffffffffffffffffffff163373ffffffffffffffffffffffffffffffffffffffff16141515611a2457600080fd5b600073ffffffffffffffffffffffffffffffffffffffff168173ffffffffffffffffffffffffffffffffffffffff1614151515611a6057600080fd5b80600360006101000a81548173ffffffffffffffffffffffffffffffffffffffff021916908373ffffffffffffffffffffffffffffffffffffffff16021790555050565b600a6020528060005260406000206000915054906101000a900473ffffffffffffffffffffffffffffffffffffffff1681565b6000809054906101000a900473ffffffffffffffffffffffffffffffffffffffff1673ffffffffffffffffffffffffffffffffffffffff163373ffffffffffffffffffffffffffffffffffffffff16141515611b3257600080fd5b600073ffffffffffffffffffffffffffffffffffffffff168173ffffffffffffffffffffffffffffffffffffffff1614151515611b6e57600080fd5b80600160006101000a81548173ffffffffffffffffffffffffffffffffffffffff021916908373ffffffffffffffffffffffffffffffffffffffff16021790555050565b6000600360009054906101000a900473ffffffffffffffffffffffffffffffffffffffff1673ffffffffffffffffffffffffffffffffffffffff163373ffffffffffffffffffffffffffffffffffffffff1614905090565b600260009054906101000a900473ffffffffffffffffffffffffffffffffffffffff1673ffffffffffffffffffffffffffffffffffffffff163373ffffffffffffffffffffffffffffffffffffffff161480611cb257506000809054906101000a900473ffffffffffffffffffffffffffffffffffffffff1673ffffffffffffffffffffffffffffffffffffffff163373ffffffffffffffffffffffffffffffffffffffff16145b80611d0a5750600160009054906101000a900473ffffffffffffffffffffffffffffffffffffffff1673ffffffffffffffffffffffffffffffffffffffff163373ffffffffffffffffffffffffffffffffffffffff16145b80611d625750600360009054906101000a900473ffffffffffffffffffffffffffffffffffffffff1673ffffffffffffffffffffffffffffffffffffffff163373ffffffffffffffffffffffffffffffffffffffff16145b1515611d6d57600080fd5b8060078190555050565b600360149054906101000a900460ff1681565b6000600160009054906101000a900473ffffffffffffffffffffffffffffffffffffffff1673ffffffffffffffffffffffffffffffffffffffff163373ffffffffffffffffffffffffffffffffffffffff16141515611de857600080fd5b3073ffffffffffffffffffffffffffffffffffffffff163190506000811115611e6457600160009054906101000a900473ffffffffffffffffffffffffffffffffffffffff1673ffffffffffffffffffffffffffffffffffffffff166108fc829081150290604051600060405180830381858888f19350505050505b50565b600360149054906101000a900460ff16151515611e8357600080fd5b600660009054906101000a900473ffffffffffffffffffffffffffffffffffffffff1673ffffffffffffffffffffffffffffffffffffffff166368125a1b336000604051602001526040518263ffffffff167c0100000000000000000000000000000000000000000000000000000000028152600401808273ffffffffffffffffffffffffffffffffffffffff1673ffffffffffffffffffffffffffffffffffffffff168152602001915050602060405180830381600087803b1515611f4857600080fd5b6102c65a03f11515611f5957600080fd5b505050604051805190501515611f6e57600080fd5b611f78818361389d565b7f51ab680773f5e1ee8d66029578293d861300338a87cb7fc445c88347e1541714338383604051808473ffffffffffffffffffffffffffffffffffffffff1673ffffffffffffffffffffffffffffffffffffffff1681526020018373ffffffffffffffffffffffffffffffffffffffff1673ffffffffffffffffffffffffffffffffffffffff168152602001828152602001935050505060405180910390a15050565b6120236144de565b61202b6144f2565b60088381548110151561203a57fe5b906000526020600020906002020160806040519081016040529081600082018054600181600116156101000203166002900480601f0160208091040260200160405190810160405280929190818152602001828054600181600116156101000203166002900480156120ed5780601f106120c2576101008083540402835291602001916120ed565b820191906000526020600020905b8154815290600101906020018083116120d057829003601f168201915b505050505081526020016001820160009054906101000a900473ffffffffffffffffffffffffffffffffffffffff1673ffffffffffffffffffffffffffffffffffffffff1673ffffffffffffffffffffffffffffffffffffffff1681526020016001820160149054906101000a900467ffffffffffffffff1667ffffffffffffffff1667ffffffffffffffff16815260200160018201601c9054906101000a900460ff16151515158152505090508060000151915050919050565b600e60009054906101000a900473ffffffffffffffffffffffffffffffffffffffff1681565b6000809054906101000a900473ffffffffffffffffffffffffffffffffffffffff1673ffffffffffffffffffffffffffffffffffffffff163373ffffffffffffffffffffffffffffffffffffffff1614151561222957600080fd5b600360149054906101000a900460ff16151561224457600080fd5b80600e60006101000a81548173ffffffffffffffffffffffffffffffffffffffff021916908373ffffffffffffffffffffffffffffffffffffffff1602179055507f450db8da6efbe9c22f2347f7c2021231df1fc58d3ae9a2fa75d39fa44619930581604051808273ffffffffffffffffffffffffffffffffffffffff1673ffffffffffffffffffffffffffffffffffffffff16815260200191505060405180910390a150565b6000600360009054906101000a900473ffffffffffffffffffffffffffffffffffffffff1673ffffffffffffffffffffffffffffffffffffffff168273ffffffffffffffffffffffffffffffffffffffff16149050919050565b600360149054906101000a900460ff1615151561236157600080fd5b600660009054906101000a900473ffffffffffffffffffffffffffffffffffffffff1673ffffffffffffffffffffffffffffffffffffffff166368125a1b336000604051602001526040518263ffffffff167c0100000000000000000000000000000000000000000000000000000000028152600401808273ffffffffffffffffffffffffffffffffffffffff1673ffffffffffffffffffffffffffffffffffffffff168152602001915050602060405180830381600087803b151561242657600080fd5b6102c65a03f1151561243757600080fd5b50505060405180519050151561244c57600080fd5b600073ffffffffffffffffffffffffffffffffffffffff168273ffffffffffffffffffffffffffffffffffffffff161415151561248857600080fd5b3073ffffffffffffffffffffffffffffffffffffffff168273ffffffffffffffffffffffffffffffffffffffff16141515156124c357600080fd5b6124ce8383836138f3565b505050565b60075481565b600660009054906101000a900473ffffffffffffffffffffffffffffffffffffffff1673ffffffffffffffffffffffffffffffffffffffff166368125a1b336000604051602001526040518263ffffffff167c0100000000000000000000000000000000000000000000000000000000028152600401808273ffffffffffffffffffffffffffffffffffffffff1673ffffffffffffffffffffffffffffffffffffffff168152602001915050602060405180830381600087803b151561259e57600080fd5b6102c65a03f115156125af57600080fd5b5050506040518051905015156125c457600080fd5b80600b600084815260200190815260200160002060006101000a81548173ffffffffffffffffffffffffffffffffffffffff021916908373ffffffffffffffffffffffffffffffffffffffff1602179055505050565b600260009054906101000a900473ffffffffffffffffffffffffffffffffffffffff1673ffffffffffffffffffffffffffffffffffffffff163373ffffffffffffffffffffffffffffffffffffffff1614806126c257506000809054906101000a900473ffffffffffffffffffffffffffffffffffffffff1673ffffffffffffffffffffffffffffffffffffffff163373ffffffffffffffffffffffffffffffffffffffff16145b8061271a5750600160009054906101000a900473ffffffffffffffffffffffffffffffffffffffff1673ffffffffffffffffffffffffffffffffffffffff163373ffffffffffffffffffffffffffffffffffffffff16145b806127725750600360009054906101000a900473ffffffffffffffffffffffffffffffffffffffff1673ffffffffffffffffffffffffffffffffffffffff163373ffffffffffffffffffffffffffffffffffffffff16145b151561277d57600080fd5b600360149054906101000a900460ff1615151561279957600080fd5b6001600360146101000a81548160ff0219169083151502179055507f6985a02210a168e66602d3235cb6db0e70f92b3ba4d376a33c0f3d9434bff62560405160405180910390a1565b6000600160009054906101000a900473ffffffffffffffffffffffffffffffffffffffff1673ffffffffffffffffffffffffffffffffffffffff163373ffffffffffffffffffffffffffffffffffffffff1614905090565b600660009054906101000a900473ffffffffffffffffffffffffffffffffffffffff1673ffffffffffffffffffffffffffffffffffffffff166368125a1b336000604051602001526040518263ffffffff167c0100000000000000000000000000000000000000000000000000000000028152600401808273ffffffffffffffffffffffffffffffffffffffff1673ffffffffffffffffffffffffffffffffffffffff168152602001915050602060405180830381600087803b15156128ff57600080fd5b6102c65a03f1151561291057600080fd5b50505060405180519050151561292557600080fd5b612951600460009054906101000a900473ffffffffffffffffffffffffffffffffffffffff1683611e67565b600460009054906101000a900473ffffffffffffffffffffffffffffffffffffffff1673ffffffffffffffffffffffffffffffffffffffff166397286c3983836040518363ffffffff167c0100000000000000000000000000000000000000000000000000000000028152600401808381526020018273ffffffffffffffffffffffffffffffffffffffff1673ffffffffffffffffffffffffffffffffffffffff16815260200192505050600060405180830381600087803b1515612a1557600080fd5b6102c65a03f11515612a2657600080fd5b5050505050565b60008273ffffffffffffffffffffffffffffffffffffffff16600a600084815260200190815260200160002060009054906101000a900473ffffffffffffffffffffffffffffffffffffffff1673ffffffffffffffffffffffffffffffffffffffff1614905092915050565b6000612aa36144f2565b6000600660009054906101000a900473ffffffffffffffffffffffffffffffffffffffff1673ffffffffffffffffffffffffffffffffffffffff166368125a1b336000604051602001526040518263ffffffff167c0100000000000000000000000000000000000000000000000000000000028152600401808273ffffffffffffffffffffffffffffffffffffffff1673ffffffffffffffffffffffffffffffffffffffff168152602001915050602060405180830381600087803b1515612b6a57600080fd5b6102c65a03f11515612b7b57600080fd5b505050604051805190501515612b9057600080fd5b600560009054906101000a900473ffffffffffffffffffffffffffffffffffffffff1673ffffffffffffffffffffffffffffffffffffffff1663eb3e85fe87876000604051602001526040518363ffffffff167c01000000000000000000000000000000000000000000000000000000000281526004018080602001828103825284848281815260200192508082843782019150509350505050602060405180830381600087803b1515612c4357600080fd5b6102c65a03f11515612c5457600080fd5b505050604051805190501515612c6957600080fd5b60806040519081016040528087878080601f01602080910402602001604051908101604052809392919081815260200183838082843782019150505050505081526020018573ffffffffffffffffffffffffffffffffffffffff1681526020014267ffffffffffffffff168152602001600015158152509150600160088054806001018281612cf89190614543565b916000526020600020906002020160008590919091506000820151816000019080519060200190612d2a929190614575565b5060208201518160010160006101000a81548173ffffffffffffffffffffffffffffffffffffffff021916908373ffffffffffffffffffffffffffffffffffffffff16021790555060408201518160010160146101000a81548167ffffffffffffffff021916908367ffffffffffffffff160217905550606082015181600101601c6101000a81548160ff0219169083151502179055505050039050600560009054906101000a900473ffffffffffffffffffffffffffffffffffffffff1673ffffffffffffffffffffffffffffffffffffffff166316e27b738787846040518463ffffffff167c0100000000000000000000000000000000000000000000000000000000028152600401808060200183815260200182810382528585828181526020019250808284378201915050945050505050600060405180830381600087803b1515612e7857600080fd5b6102c65a03f11515612e8957600080fd5b5050508063ffffffff1681141515612ea057600080fd5b7f85a66b9141978db9980f7e0ce3b468cebf4f7999f32b23091c5c03e798b1ba7a84828460000151604051808473ffffffffffffffffffffffffffffffffffffffff1673ffffffffffffffffffffffffffffffffffffffff16815260200183815260200180602001828103825283818151815260200191508051906020019080838360005b83811015612f40578082015181840152602081019050612f25565b50505050905090810190601f168015612f6d5780820380516001836020036101000a031916815260200191505b5094505050505060405180910390a1612fb88187878080601f016020809104026020016040519081016040528093929190818152602001838380828437820191505050505050613af5565b612fc4600085836138f3565b80925050509392505050565b600360149054906101000a900460ff16151515612fec57600080fd5b600660009054906101000a900473ffffffffffffffffffffffffffffffffffffffff1673ffffffffffffffffffffffffffffffffffffffff166368125a1b336000604051602001526040518263ffffffff167c0100000000000000000000000000000000000000000000000000000000028152600401808273ffffffffffffffffffffffffffffffffffffffff1673ffffffffffffffffffffffffffffffffffffffff168152602001915050602060405180830381600087803b15156130b157600080fd5b6102c65a03f115156130c257600080fd5b5050506040518051905015156130d757600080fd5b600073ffffffffffffffffffffffffffffffffffffffff168273ffffffffffffffffffffffffffffffffffffffff161415151561311357600080fd5b3073ffffffffffffffffffffffffffffffffffffffff168273ffffffffffffffffffffffffffffffffffffffff161415151561314e57600080fd5b600460009054906101000a900473ffffffffffffffffffffffffffffffffffffffff1673ffffffffffffffffffffffffffffffffffffffff168273ffffffffffffffffffffffffffffffffffffffff16141515156131ab57600080fd5b6131b533826141b0565b15156131c057600080fd5b6131cb3383836138f3565b5050565b600360009054906101000a900473ffffffffffffffffffffffffffffffffffffffff1681565b600260009054906101000a900473ffffffffffffffffffffffffffffffffffffffff1681565b600260009054906101000a900473ffffffffffffffffffffffffffffffffffffffff1673ffffffffffffffffffffffffffffffffffffffff163373ffffffffffffffffffffffffffffffffffffffff1614806132c357506000809054906101000a900473ffffffffffffffffffffffffffffffffffffffff1673ffffffffffffffffffffffffffffffffffffffff163373ffffffffffffffffffffffffffffffffffffffff16145b8061331b5750600160009054906101000a900473ffffffffffffffffffffffffffffffffffffffff1673ffffffffffffffffffffffffffffffffffffffff163373ffffffffffffffffffffffffffffffffffffffff16145b806133735750600360009054906101000a900473ffffffffffffffffffffffffffffffffffffffff1673ffffffffffffffffffffffffffffffffffffffff163373ffffffffffffffffffffffffffffffffffffffff16145b151561337e57600080fd5b8060088381548110151561338e57fe5b9060005260206000209060020201600101601c6101000a81548160ff0219169083151502179055505050565b6000600b600083815260200190815260200160002060009054906101000a900473ffffffffffffffffffffffffffffffffffffffff169050919050565b600460009054906101000a900473ffffffffffffffffffffffffffffffffffffffff1681565b600d6020528060005260406000206000915054906101000a900473ffffffffffffffffffffffffffffffffffffffff1681565b600080600080600060088681548110151561346757fe5b906000526020600020906002020191508160010160149054906101000a900467ffffffffffffffff1667ffffffffffffffff169450600460009054906101000a900473ffffffffffffffffffffffffffffffffffffffff1673ffffffffffffffffffffffffffffffffffffffff1663d917cf5c876000604051604001526040518263ffffffff167c0100000000000000000000000000000000000000000000000000000000028152600401808281526020019150506040805180830381600087803b151561353457600080fd5b6102c65a03f1151561354557600080fd5b505050604051805190602001805190508092508195505050600560009054906101000a900473ffffffffffffffffffffffffffffffffffffffff1673ffffffffffffffffffffffffffffffffffffffff16634ea546b6876000604051602001526040518263ffffffff167c010000000000000000000000000000000000000000000000000000000002815260040180828152602001915050602060405180830381600087803b15156135f657600080fd5b6102c65a03f1151561360757600080fd5b5050506040518051905067ffffffffffffffff16925050509193909250565b60008060009054906101000a900473ffffffffffffffffffffffffffffffffffffffff1673ffffffffffffffffffffffffffffffffffffffff163373ffffffffffffffffffffffffffffffffffffffff1614905090565b600080600080600060096000878152602001908152602001600020905080600001548160010154826002015483600301549450945094509450509193509193565b6000600260009054906101000a900473ffffffffffffffffffffffffffffffffffffffff1673ffffffffffffffffffffffffffffffffffffffff163373ffffffffffffffffffffffffffffffffffffffff1614905090565b61371e6144de565b60088281548110151561372d57fe5b90600052602060002090600202016000018054600181600116156101000203166002900480601f0160208091040260200160405190810160405280929190818152602001828054600181600116156101000203166002900480156137d25780601f106137a7576101008083540402835291602001916137d2565b820191906000526020600020905b8154815290600101906020018083116137b557829003601f168201915b50505050509050919050565b6000809054906101000a900473ffffffffffffffffffffffffffffffffffffffff1673ffffffffffffffffffffffffffffffffffffffff163373ffffffffffffffffffffffffffffffffffffffff1614151561383957600080fd5b600360149054906101000a900460ff16151561385457600080fd5b6000600360146101000a81548160ff0219169083151502179055507f7805862f689e2f13df9f062ff482ad3ad112aca9e0847911ed832e158c525b3360405160405180910390a1565b80600d600084815260200190815260200160002060006101000a81548173ffffffffffffffffffffffffffffffffffffffff021916908373ffffffffffffffffffffffffffffffffffffffff1602179055505050565b600c60008373ffffffffffffffffffffffffffffffffffffffff1673ffffffffffffffffffffffffffffffffffffffff1681526020019081526020016000206000815480929190600101919050555081600a600083815260200190815260200160002060006101000a81548173ffffffffffffffffffffffffffffffffffffffff021916908373ffffffffffffffffffffffffffffffffffffffff160217905550600073ffffffffffffffffffffffffffffffffffffffff168373ffffffffffffffffffffffffffffffffffffffff16141515613a5157600c60008473ffffffffffffffffffffffffffffffffffffffff1673ffffffffffffffffffffffffffffffffffffffff1681526020019081526020016000206000815480929190600190039190505550600d600082815260200190815260200160002060006101000a81549073ffffffffffffffffffffffffffffffffffffffff02191690555b7f9acbfc8185cb7c9cd26bcc6e13928731c549f8349f76b8bdfd9d6afd6e3b34fa838383604051808473ffffffffffffffffffffffffffffffffffffffff1673ffffffffffffffffffffffffffffffffffffffff1681526020018373ffffffffffffffffffffffffffffffffffffffff1673ffffffffffffffffffffffffffffffffffffffff168152602001828152602001935050505060405180910390a1505050565b613afd6145f5565b613b056145f5565b613b0d61460f565b6000806000806000613b1e8961421c565b9750613b5e6040805190810160405280600181526020017f200000000000000000000000000000000000000000000000000000000000000081525061421c565b96506001613b75888a61424a90919063ffffffff16565b01604051805910613b835750595b908082528060200260200182016040528015613bb957816020015b613ba6614623565b815260200190600190039081613b9e5790505b509550600094505b8551851015613c0d57613be5613be0888a6142c190919063ffffffff16565b6142db565b8686815181101515613bf357fe5b906020019060200201819052508480600101955050613bc1565b600186511115613d5a57600560009054906101000a900473ffffffffffffffffffffffffffffffffffffffff1673ffffffffffffffffffffffffffffffffffffffff16631e7663bc876000815181101515613c6457fe5b906020019060200201516000604051602001526040518263ffffffff167c01000000000000000000000000000000000000000000000000000000000281526004018080602001828103825283818151815260200191508051906020019080838360005b83811015613ce2578082015181840152602081019050613cc7565b50505050905090810190601f168015613d0f5780820380516001836020036101000a031916815260200191505b5092505050602060405180830381600087803b1515613d2d57600080fd5b6102c65a03f11515613d3e57600080fd5b505050604051805190509350600084111515613d5957600080fd5b5b60028651101515613ea857600560009054906101000a900473ffffffffffffffffffffffffffffffffffffffff1673ffffffffffffffffffffffffffffffffffffffff16631e7663bc876001815181101515613db257fe5b906020019060200201516000604051602001526040518263ffffffff167c01000000000000000000000000000000000000000000000000000000000281526004018080602001828103825283818151815260200191508051906020019080838360005b83811015613e30578082015181840152602081019050613e15565b50505050905090810190601f168015613e5d5780820380516001836020036101000a031916815260200191505b5092505050602060405180830381600087803b1515613e7b57600080fd5b6102c65a03f11515613e8c57600080fd5b505050604051805190509250600083111515613ea757600080fd5b5b60038651101515613ff657600560009054906101000a900473ffffffffffffffffffffffffffffffffffffffff1673ffffffffffffffffffffffffffffffffffffffff16631e7663bc876003815181101515613f0057fe5b906020019060200201516000604051602001526040518263ffffffff167c01000000000000000000000000000000000000000000000000000000000281526004018080602001828103825283818151815260200191508051906020019080838360005b83811015613f7e578082015181840152602081019050613f63565b50505050905090810190601f168015613fab5780820380516001836020036101000a031916815260200191505b5092505050602060405180830381600087803b1515613fc957600080fd5b6102c65a03f11515613fda57600080fd5b505050604051805190509150600082111515613ff557600080fd5b5b6004865110151561414457600560009054906101000a900473ffffffffffffffffffffffffffffffffffffffff1673ffffffffffffffffffffffffffffffffffffffff16631e7663bc87600481518110151561404e57fe5b906020019060200201516000604051602001526040518263ffffffff167c01000000000000000000000000000000000000000000000000000000000281526004018080602001828103825283818151815260200191508051906020019080838360005b838110156140cc5780820151818401526020810190506140b1565b50505050905090810190601f1680156140f95780820380516001836020036101000a031916815260200191505b5092505050602060405180830381600087803b151561411757600080fd5b6102c65a03f1151561412857600080fd5b50505060405180519050905060008111151561414357600080fd5b5b60806040519081016040528085815260200184815260200183815260200182815250600960008c81526020019081526020016000206000820151816000015560208201518160010155604082015181600201556060820151816003015590505050505050505050505050565b60008273ffffffffffffffffffffffffffffffffffffffff16600a600084815260200190815260200160002060009054906101000a900473ffffffffffffffffffffffffffffffffffffffff1673ffffffffffffffffffffffffffffffffffffffff1614905092915050565b6142246145f5565b600060208301905060408051908101604052808451815260200182815250915050919050565b600080826000015161426e8560000151866020015186600001518760200151614339565b0190505b8360000151846020015101811115156142ba57818060010192505082600001516142b2856020015183038660000151038386600001518760200151614339565b019050614272565b5092915050565b6142c96145f5565b6142d48383836143f5565b5092915050565b6142e36144de565b6142eb6144de565b600083600001516040518059106142ff5750595b9080825280601f01601f1916602001820160405250915060208201905061432f8185602001518660000151614493565b8192505050919050565b600080600080600088871115156143e35760208711151561439a5760018760200360080260020a031980875116888b038a018a96505b81838851161461438f5760018701965080600188031061436f578b8b0196505b5050508394506143e9565b8686209150879350600092505b868903831115156143e25786842090508060001916826000191614156143cf578394506143e9565b60018401935082806001019350506143a7565b5b88880194505b50505050949350505050565b6143fd6145f5565b600061441b8560000151866020015186600001518760200151614339565b9050846020015183602001818152505084602001518103836000018181525050846000015185602001510181141561445d576000856000018181525050614488565b8360000151836000015101856000018181510391508181525050836000015181018560200181815250505b829150509392505050565b60005b6020821015156144bb5782518452602084019350602083019250602082039150614496565b6001826020036101000a0390508019835116818551168181178652505050505050565b602060405190810160405280600081525090565b608060405190810160405280614506614623565b8152602001600073ffffffffffffffffffffffffffffffffffffffff168152602001600067ffffffffffffffff1681526020016000151581525090565b8154818355818115116145705760020281600202836000526020600020918201910161456f9190614637565b5b505050565b828054600181600116156101000203166002900490600052602060002090601f016020900481019282601f106145b657805160ff19168380011785556145e4565b828001600101855582156145e4579182015b828111156145e35782518255916020019190600101906145c8565b5b5090506145f191906146bc565b5090565b604080519081016040528060008152602001600081525090565b602060405190810160405280600081525090565b602060405190810160405280600081525090565b6146b991905b808211156146b5576000808201600061465691906146e1565b6001820160006101000a81549073ffffffffffffffffffffffffffffffffffffffff02191690556001820160146101000a81549067ffffffffffffffff021916905560018201601c6101000a81549060ff02191690555060020161463d565b5090565b90565b6146de91905b808211156146da5760008160009055506001016146c2565b5090565b90565b50805460018160011615610100020316600290046000825580601f106147075750614726565b601f01602090049060005260206000209081019061472591906146bc565b5b50565b6147316144f2565b60806040519081016040528060206040519081016040528060008152508152602001600073ffffffffffffffffffffffffffffffffffffffff1681526020014267ffffffffffffffff1681526020016000151581525090506008805480600101828161479d9190614543565b9160005260206000209060020201600083909190915060008201518160000190805190602001906147cf929190614575565b5060208201518160010160006101000a81548173ffffffffffffffffffffffffffffffffffffffff021916908373ffffffffffffffffffffffffffffffffffffffff16021790555060408201518160010160146101000a81548167ffffffffffffffff021916908367ffffffffffffffff160217905550606082015181600101601c6101000a81548160ff021916908315150217905550505050505600a165627a7a72305820a34aa50c8b701104500186d0fe4d4f90464689452962fbcd2c1b574551ff03740029",
  "source": "pragma solidity ^0.4.14;\n\nimport \"./TokenCommon.sol\";\n//import \"./TokenMinting.sol\";\nimport \"./TokenOwnership.sol\";\n\n/// @title CryptoTokens: Collectible tokens on the Ethereum blockchain.\n/// @dev The main CryptoTokens contract, keeps track of tokens so they don't wander around and get lost.\ncontract TokenCore is TokenOwnership {\n\n    // This is the main CryptoTokens contract. In order to keep our code seperated into logical sections,\n    // we've broken it up in two ways. First, we have several seperately-instantiated sibling contracts\n    // that handle offers. The offers are\n    // separate since their logic is somewhat complex and there's always a risk of subtle bugs. By keeping\n    // them in their own contracts, we can upgrade them without disrupting the main contract that tracks\n    // token ownership.\n    //\n    // Secondly, we break the core contract into multiple files using inheritence, one for each major\n    // facet of functionality of CKW. This allows us to keep related code bundled together while still\n    // avoiding a single giant file with everything in it. The breakdown is as follows:\n    //\n    //      - TokenBase: This is where we define the most fundamental code shared throughout the core\n    //             functionality. This includes our main data storage, constants and data types, plus\n    //             internal functions for managing these items.\n    //\n    //      - TokenAccessControl: This contract manages the various addresses and constraints for operations\n    //             that can be executed only by specific roles. Namely CEO, CFO and COO.\n    //\n    //      - TokenOwnership: This provides the methods required for basic non-fungible token\n    //             transactions, following the draft ERC-721 spec (https://github.com/ethereum/EIPs/issues/721).\n    //\n    //      - TokenOffer: Here we have the public methods for offering or buying on tokens\n    //             The actual offer functionality is handled in sibling contracts,\n    //             while offer creation and buying is mostly mediated\n    //             through this facet of the core contract.\n    //\n    //      - TokenMinting: This final facet contains the functionality we use for creating new tokens.\n    //             We can make up to 5000 \"promo\" tokens that can be given away (especially important when\n    //             the community is new), and all others can only be created and then immediately put up\n    //             for offer via an algorithmically determined starting price. Regardless of how they\n    //             are created, there is a hard limit of 50k tokens. After that, it's all up to the\n    //             community to mint, mint, mint!\n\n    // Set in case the core contract is broken and an upgrade is required\n    address public newContractAddress;\n\n    /// @notice Creates the main CryptoTokens smart contract instance.\n    function TokenCore(address _friendContract) public\n        TokenBase(_friendContract) \n    {\n        // Starts paused.\n        paused = true;\n\n        // the creator of the contract is the initial CEO\n        ceoAddress = msg.sender;\n\n        // the creator of the contract is also the initial COO\n        cooAddress = msg.sender;\n\n        _addToken0();\n    }\n\n    /// @dev Avoids having an actual token with ID 0.\n    function _addToken0() internal {\n        TokenCommon.Token memory _tokenItem = TokenCommon.Token({\n            uniqueText: \"\",\n            firstOwner: address(0),\n            mintTime: uint64(now),\n            isHidden: false\n        });\n        tokens.push(_tokenItem);\n    }\n\n    /// @dev Used to mark the smart contract as upgraded, in case there is a serious\n    ///  breaking bug. This method does nothing but keep track of the new contract and\n    ///  emit a message indicating that the new address is set. It's up to clients of this\n    ///  contract to update to the new contract address in that case. (This contract will\n    ///  be paused indefinitely if such an upgrade takes place.)\n    /// @param _v2Address new address\n    function setNewAddress(address _v2Address) external onlyCEO whenPaused {\n        // See README.md for updgrade plan\n        newContractAddress = _v2Address;\n        ContractUpgrade(_v2Address);\n    }\n\n    /// @notice No tipping!\n    /// @dev Reject all Ether from being sent here.\n    /// (Hopefully, we can prevent user accidents.)\n    function() external payable {\n        require(msg.sender == address(saleOffer));\n    }\n    \n    /// @dev Override unpause so it requires all external contract addresses\n    ///  to be set before contract can be unpaused. Also, we can't have\n    ///  newContractAddress set either, because then the contract was upgraded.\n    /// @notice This is public rather than external so we can call super.unpause\n    ///  without using an expensive CALL.\n    function unpause() public onlyCEO whenPaused {\n        require(friendContract.canUnpause());\n        require(address(saleOffer) != address(0));\n        require(address(index) != address(0));\n        require(newContractAddress == address(0));\n\n        // Actually unpause the contract.\n        super.unpause();\n    }\n\n    function getBalance() \n        public\n        view\n        returns (\n            uint256 balance)\n    {\n        return this.balance;\n    }\n\n    // @dev Allows the CFO to capture the balance available to the contract.\n    function withdrawBalance() external onlyCFO {\n        uint256 balance = this.balance;\n\n        if (balance > 0) {\n            cfoAddress.send(balance);\n        }\n    }\n\n    /// @dev Transfers the balance of the sale offer contract\n    /// to the TokenOffer contract. We use two-step withdrawal to\n    /// prevent two transfer calls in the offer buy function.\n    function withdrawOfferBalances() external onlyCLevel {\n        saleOffer.withdrawBalance();\n    }\n    \n    /// @notice Returns all the relevant information about a specific token.\n    /// @param _id The ID of the token of interest.\n    function getToken(uint256 _id)\n        external\n        view\n        returns (\n        uint256 mintTime,\n        uint256 price,\n        uint256 trades) \n    {\n        TokenCommon.Token storage kit = tokens[_id];\n\n        mintTime = uint256(kit.mintTime);\n        address seller;\n        (price, seller) = saleOffer.getSaleOffer(_id);\n        trades = index.getTrades(_id);\n    }\n\n    function getUniqueText(uint256 _id) external view returns (string) {\n        return tokens[_id].uniqueText;\n    }\n    \n    function isHidden(uint256 _id) external view returns (bool) {\n        return tokens[_id].isHidden;\n    }\n\n    function transferOffer(uint256 _tokenId, address _newSeller) public {\n        require(friendContract.isFriend(msg.sender));\n        approveV0(saleOffer, _tokenId);\n        saleOffer.transferOffer(_tokenId, _newSeller);\n    }\n}\n",
  "sourcePath": "/Users/jasonbanico/Dropbox/Workspace/CryptoTokenAdmin/contracts/TokenCore.sol",
  "compiler": {
    "name": "solc",
    "version": "0.4.19+commit.c4cbbb05.Emscripten.clang"
  },
  "schemaVersion": "1.0.1",
  "updatedAt": "2018-03-29T09:17:10.820Z"
}