{
  "contractName": "TokenIdentity",
  "abi": [
    {
      "constant": true,
      "inputs": [],
      "name": "cfoAddress",
      "outputs": [
        {
          "name": "",
          "type": "address"
        }
      ],
      "payable": false,
      "stateMutability": "view",
      "type": "function"
    },
    {
      "constant": true,
      "inputs": [],
      "name": "ceoAddress",
      "outputs": [
        {
          "name": "",
          "type": "address"
        }
      ],
      "payable": false,
      "stateMutability": "view",
      "type": "function"
    },
    {
      "constant": false,
      "inputs": [
        {
          "name": "_newCEO",
          "type": "address"
        }
      ],
      "name": "setCEO",
      "outputs": [],
      "payable": false,
      "stateMutability": "nonpayable",
      "type": "function"
    },
    {
      "constant": false,
      "inputs": [
        {
          "name": "_newCOO",
          "type": "address"
        }
      ],
      "name": "setCOO",
      "outputs": [],
      "payable": false,
      "stateMutability": "nonpayable",
      "type": "function"
    },
    {
      "constant": true,
      "inputs": [],
      "name": "isCLevel",
      "outputs": [
        {
          "name": "",
          "type": "bool"
        }
      ],
      "payable": false,
      "stateMutability": "view",
      "type": "function"
    },
    {
      "constant": false,
      "inputs": [],
      "name": "unpause",
      "outputs": [],
      "payable": false,
      "stateMutability": "nonpayable",
      "type": "function"
    },
    {
      "constant": false,
      "inputs": [
        {
          "name": "_newCCO",
          "type": "address"
        }
      ],
      "name": "setCCO",
      "outputs": [],
      "payable": false,
      "stateMutability": "nonpayable",
      "type": "function"
    },
    {
      "constant": false,
      "inputs": [
        {
          "name": "_newCFO",
          "type": "address"
        }
      ],
      "name": "setCFO",
      "outputs": [],
      "payable": false,
      "stateMutability": "nonpayable",
      "type": "function"
    },
    {
      "constant": true,
      "inputs": [],
      "name": "isCCO",
      "outputs": [
        {
          "name": "",
          "type": "bool"
        }
      ],
      "payable": false,
      "stateMutability": "view",
      "type": "function"
    },
    {
      "constant": true,
      "inputs": [],
      "name": "paused",
      "outputs": [
        {
          "name": "",
          "type": "bool"
        }
      ],
      "payable": false,
      "stateMutability": "view",
      "type": "function"
    },
    {
      "constant": true,
      "inputs": [
        {
          "name": "_ccoAddress",
          "type": "address"
        }
      ],
      "name": "isCCOAddress",
      "outputs": [
        {
          "name": "",
          "type": "bool"
        }
      ],
      "payable": false,
      "stateMutability": "view",
      "type": "function"
    },
    {
      "constant": false,
      "inputs": [],
      "name": "pause",
      "outputs": [],
      "payable": false,
      "stateMutability": "nonpayable",
      "type": "function"
    },
    {
      "constant": true,
      "inputs": [],
      "name": "isCFO",
      "outputs": [
        {
          "name": "",
          "type": "bool"
        }
      ],
      "payable": false,
      "stateMutability": "view",
      "type": "function"
    },
    {
      "constant": true,
      "inputs": [],
      "name": "ccoAddress",
      "outputs": [
        {
          "name": "",
          "type": "address"
        }
      ],
      "payable": false,
      "stateMutability": "view",
      "type": "function"
    },
    {
      "constant": true,
      "inputs": [],
      "name": "cooAddress",
      "outputs": [
        {
          "name": "",
          "type": "address"
        }
      ],
      "payable": false,
      "stateMutability": "view",
      "type": "function"
    },
    {
      "constant": true,
      "inputs": [],
      "name": "saleOffer",
      "outputs": [
        {
          "name": "",
          "type": "address"
        }
      ],
      "payable": false,
      "stateMutability": "view",
      "type": "function"
    },
    {
      "constant": true,
      "inputs": [],
      "name": "isCEO",
      "outputs": [
        {
          "name": "",
          "type": "bool"
        }
      ],
      "payable": false,
      "stateMutability": "view",
      "type": "function"
    },
    {
      "constant": true,
      "inputs": [],
      "name": "core",
      "outputs": [
        {
          "name": "",
          "type": "address"
        }
      ],
      "payable": false,
      "stateMutability": "view",
      "type": "function"
    },
    {
      "constant": true,
      "inputs": [],
      "name": "isCOO",
      "outputs": [
        {
          "name": "",
          "type": "bool"
        }
      ],
      "payable": false,
      "stateMutability": "view",
      "type": "function"
    },
    {
      "inputs": [
        {
          "name": "_coreAddress",
          "type": "address"
        },
        {
          "name": "_saleOfferAddress",
          "type": "address"
        }
      ],
      "payable": false,
      "stateMutability": "nonpayable",
      "type": "constructor"
    },
    {
      "payable": true,
      "stateMutability": "payable",
      "type": "fallback"
    },
    {
      "anonymous": false,
      "inputs": [
        {
          "indexed": false,
          "name": "newContract",
          "type": "address"
        }
      ],
      "name": "ContractUpgrade",
      "type": "event"
    },
    {
      "anonymous": false,
      "inputs": [
        {
          "indexed": false,
          "name": "message",
          "type": "string"
        }
      ],
      "name": "Trace",
      "type": "event"
    },
    {
      "anonymous": false,
      "inputs": [],
      "name": "Pause",
      "type": "event"
    },
    {
      "anonymous": false,
      "inputs": [],
      "name": "Unpause",
      "type": "event"
    },
    {
      "constant": true,
      "inputs": [
        {
          "name": "nickname",
          "type": "string"
        }
      ],
      "name": "nicknameAvailable",
      "outputs": [
        {
          "name": "",
          "type": "bool"
        }
      ],
      "payable": false,
      "stateMutability": "view",
      "type": "function"
    },
    {
      "constant": false,
      "inputs": [
        {
          "name": "nickname",
          "type": "string"
        }
      ],
      "name": "updateNickname",
      "outputs": [],
      "payable": false,
      "stateMutability": "nonpayable",
      "type": "function"
    },
    {
      "constant": true,
      "inputs": [
        {
          "name": "user",
          "type": "address"
        }
      ],
      "name": "getNickname",
      "outputs": [
        {
          "name": "",
          "type": "string"
        }
      ],
      "payable": false,
      "stateMutability": "view",
      "type": "function"
    },
    {
      "constant": false,
      "inputs": [
        {
          "name": "_profile",
          "type": "string"
        }
      ],
      "name": "updateProfile",
      "outputs": [],
      "payable": false,
      "stateMutability": "nonpayable",
      "type": "function"
    },
    {
      "constant": true,
      "inputs": [
        {
          "name": "user",
          "type": "address"
        }
      ],
      "name": "getProfile",
      "outputs": [
        {
          "name": "",
          "type": "string"
        }
      ],
      "payable": false,
      "stateMutability": "view",
      "type": "function"
    },
    {
      "constant": false,
      "inputs": [
        {
          "name": "_link",
          "type": "string"
        }
      ],
      "name": "updateLink",
      "outputs": [],
      "payable": false,
      "stateMutability": "nonpayable",
      "type": "function"
    },
    {
      "constant": true,
      "inputs": [
        {
          "name": "user",
          "type": "address"
        }
      ],
      "name": "getLink",
      "outputs": [
        {
          "name": "",
          "type": "string"
        }
      ],
      "payable": false,
      "stateMutability": "view",
      "type": "function"
    }
  ],
  "bytecode": "0x60606040526000600360146101000a81548160ff021916908315150217905550341561002a57600080fd5b604051604080611d4c8339810160405280805190602001909190805190602001909190505081600960006101000a81548173ffffffffffffffffffffffffffffffffffffffff021916908373ffffffffffffffffffffffffffffffffffffffff16021790555080600a60006101000a81548173ffffffffffffffffffffffffffffffffffffffff021916908373ffffffffffffffffffffffffffffffffffffffff160217905550336000806101000a81548173ffffffffffffffffffffffffffffffffffffffff021916908373ffffffffffffffffffffffffffffffffffffffff16021790555033600260006101000a81548173ffffffffffffffffffffffffffffffffffffffff021916908373ffffffffffffffffffffffffffffffffffffffff1602179055505050611be9806101636000396000f300606060405260043610610153576000357c0100000000000000000000000000000000000000000000000000000000900463ffffffff1680629299e3146101625780630519ce79146101905780630a0f8168146101e55780630f53a4701461023a57806327d7874c146102ec5780632ba73c15146103255780633a66e9e11461035e5780633f4ba83a1461038b57806345168839146103a05780634e0a3379146103d957806354c5a3ae146104125780635c975abb1461043f578063715fbfa81461046c5780637c2c2f06146104bd5780638456cb59146104eb5780639393ae37146105005780639d6abe4f1461052d578063a5924575146105df578063adaccd7414610654578063afeaa2d414610706578063b047fb501461075b578063bd2e3b17146107b0578063ccea0985146107de578063e513b7a914610833578063f2f4eb2614610860578063f4a02e70146108b5575b6000151561016057600080fd5b005b341561016d57600080fd5b61018e600480803590602001908201803590602001919091929050506108e2565b005b341561019b57600080fd5b6101a3610935565b604051808273ffffffffffffffffffffffffffffffffffffffff1673ffffffffffffffffffffffffffffffffffffffff16815260200191505060405180910390f35b34156101f057600080fd5b6101f861095b565b604051808273ffffffffffffffffffffffffffffffffffffffff1673ffffffffffffffffffffffffffffffffffffffff16815260200191505060405180910390f35b341561024557600080fd5b610271600480803573ffffffffffffffffffffffffffffffffffffffff16906020019091905050610980565b6040518080602001828103825283818151815260200191508051906020019080838360005b838110156102b1578082015181840152602081019050610296565b50505050905090810190601f1680156102de5780820380516001836020036101000a031916815260200191505b509250505060405180910390f35b34156102f757600080fd5b610323600480803573ffffffffffffffffffffffffffffffffffffffff16906020019091905050610a67565b005b341561033057600080fd5b61035c600480803573ffffffffffffffffffffffffffffffffffffffff16906020019091905050610b41565b005b341561036957600080fd5b610371610c1c565b604051808215151515815260200191505060405180910390f35b341561039657600080fd5b61039e610d7b565b005b34156103ab57600080fd5b6103d7600480803573ffffffffffffffffffffffffffffffffffffffff16906020019091905050610e3a565b005b34156103e457600080fd5b610410600480803573ffffffffffffffffffffffffffffffffffffffff16906020019091905050610f15565b005b341561041d57600080fd5b610425610ff0565b604051808215151515815260200191505060405180910390f35b341561044a57600080fd5b610452611048565b604051808215151515815260200191505060405180910390f35b341561047757600080fd5b6104a3600480803573ffffffffffffffffffffffffffffffffffffffff1690602001909190505061105b565b604051808215151515815260200191505060405180910390f35b34156104c857600080fd5b6104e9600480803590602001908201803590602001919091929050506110b5565b005b34156104f657600080fd5b6104fe611108565b005b341561050b57600080fd5b6105136112d0565b604051808215151515815260200191505060405180910390f35b341561053857600080fd5b610564600480803573ffffffffffffffffffffffffffffffffffffffff16906020019091905050611328565b6040518080602001828103825283818151815260200191508051906020019080838360005b838110156105a4578082015181840152602081019050610589565b50505050905090810190601f1680156105d15780820380516001836020036101000a031916815260200191505b509250505060405180910390f35b34156105ea57600080fd5b61063a600480803590602001908201803590602001908080601f0160208091040260200160405190810160405280939291908181526020018383808284378201915050505050509190505061140f565b604051808215151515815260200191505060405180910390f35b341561065f57600080fd5b61068b600480803573ffffffffffffffffffffffffffffffffffffffff16906020019091905050611549565b6040518080602001828103825283818151815260200191508051906020019080838360005b838110156106cb5780820151818401526020810190506106b0565b50505050905090810190601f1680156106f85780820380516001836020036101000a031916815260200191505b509250505060405180910390f35b341561071157600080fd5b610719611630565b604051808273ffffffffffffffffffffffffffffffffffffffff1673ffffffffffffffffffffffffffffffffffffffff16815260200191505060405180910390f35b341561076657600080fd5b61076e611656565b604051808273ffffffffffffffffffffffffffffffffffffffff1673ffffffffffffffffffffffffffffffffffffffff16815260200191505060405180910390f35b34156107bb57600080fd5b6107dc6004808035906020019082018035906020019190919290505061167c565b005b34156107e957600080fd5b6107f16119ad565b604051808273ffffffffffffffffffffffffffffffffffffffff1673ffffffffffffffffffffffffffffffffffffffff16815260200191505060405180910390f35b341561083e57600080fd5b6108466119d3565b604051808215151515815260200191505060405180910390f35b341561086b57600080fd5b610873611a2a565b604051808273ffffffffffffffffffffffffffffffffffffffff1673ffffffffffffffffffffffffffffffffffffffff16815260200191505060405180910390f35b34156108c057600080fd5b6108c8611a50565b604051808215151515815260200191505060405180910390f35b8181600760003373ffffffffffffffffffffffffffffffffffffffff1673ffffffffffffffffffffffffffffffffffffffff1681526020019081526020016000209190610930929190611aa8565b505050565b600160009054906101000a900473ffffffffffffffffffffffffffffffffffffffff1681565b6000809054906101000a900473ffffffffffffffffffffffffffffffffffffffff1681565b610988611b28565b600760008373ffffffffffffffffffffffffffffffffffffffff1673ffffffffffffffffffffffffffffffffffffffff1681526020019081526020016000208054600181600116156101000203166002900480601f016020809104026020016040519081016040528092919081815260200182805460018160011615610100020316600290048015610a5b5780601f10610a3057610100808354040283529160200191610a5b565b820191906000526020600020905b815481529060010190602001808311610a3e57829003601f168201915b50505050509050919050565b6000809054906101000a900473ffffffffffffffffffffffffffffffffffffffff1673ffffffffffffffffffffffffffffffffffffffff163373ffffffffffffffffffffffffffffffffffffffff16141515610ac257600080fd5b600073ffffffffffffffffffffffffffffffffffffffff168173ffffffffffffffffffffffffffffffffffffffff1614151515610afe57600080fd5b806000806101000a81548173ffffffffffffffffffffffffffffffffffffffff021916908373ffffffffffffffffffffffffffffffffffffffff16021790555050565b6000809054906101000a900473ffffffffffffffffffffffffffffffffffffffff1673ffffffffffffffffffffffffffffffffffffffff163373ffffffffffffffffffffffffffffffffffffffff16141515610b9c57600080fd5b600073ffffffffffffffffffffffffffffffffffffffff168173ffffffffffffffffffffffffffffffffffffffff1614151515610bd857600080fd5b80600260006101000a81548173ffffffffffffffffffffffffffffffffffffffff021916908373ffffffffffffffffffffffffffffffffffffffff16021790555050565b6000600260009054906101000a900473ffffffffffffffffffffffffffffffffffffffff1673ffffffffffffffffffffffffffffffffffffffff163373ffffffffffffffffffffffffffffffffffffffff161480610cc657506000809054906101000a900473ffffffffffffffffffffffffffffffffffffffff1673ffffffffffffffffffffffffffffffffffffffff163373ffffffffffffffffffffffffffffffffffffffff16145b80610d1e5750600160009054906101000a900473ffffffffffffffffffffffffffffffffffffffff1673ffffffffffffffffffffffffffffffffffffffff163373ffffffffffffffffffffffffffffffffffffffff16145b80610d765750600360009054906101000a900473ffffffffffffffffffffffffffffffffffffffff1673ffffffffffffffffffffffffffffffffffffffff163373ffffffffffffffffffffffffffffffffffffffff16145b905090565b6000809054906101000a900473ffffffffffffffffffffffffffffffffffffffff1673ffffffffffffffffffffffffffffffffffffffff163373ffffffffffffffffffffffffffffffffffffffff16141515610dd657600080fd5b600360149054906101000a900460ff161515610df157600080fd5b6000600360146101000a81548160ff0219169083151502179055507f7805862f689e2f13df9f062ff482ad3ad112aca9e0847911ed832e158c525b3360405160405180910390a1565b6000809054906101000a900473ffffffffffffffffffffffffffffffffffffffff1673ffffffffffffffffffffffffffffffffffffffff163373ffffffffffffffffffffffffffffffffffffffff16141515610e9557600080fd5b600073ffffffffffffffffffffffffffffffffffffffff168173ffffffffffffffffffffffffffffffffffffffff1614151515610ed157600080fd5b80600360006101000a81548173ffffffffffffffffffffffffffffffffffffffff021916908373ffffffffffffffffffffffffffffffffffffffff16021790555050565b6000809054906101000a900473ffffffffffffffffffffffffffffffffffffffff1673ffffffffffffffffffffffffffffffffffffffff163373ffffffffffffffffffffffffffffffffffffffff16141515610f7057600080fd5b600073ffffffffffffffffffffffffffffffffffffffff168173ffffffffffffffffffffffffffffffffffffffff1614151515610fac57600080fd5b80600160006101000a81548173ffffffffffffffffffffffffffffffffffffffff021916908373ffffffffffffffffffffffffffffffffffffffff16021790555050565b6000600360009054906101000a900473ffffffffffffffffffffffffffffffffffffffff1673ffffffffffffffffffffffffffffffffffffffff163373ffffffffffffffffffffffffffffffffffffffff1614905090565b600360149054906101000a900460ff1681565b6000600360009054906101000a900473ffffffffffffffffffffffffffffffffffffffff1673ffffffffffffffffffffffffffffffffffffffff168273ffffffffffffffffffffffffffffffffffffffff16149050919050565b8181600860003373ffffffffffffffffffffffffffffffffffffffff1673ffffffffffffffffffffffffffffffffffffffff1681526020019081526020016000209190611103929190611aa8565b505050565b600260009054906101000a900473ffffffffffffffffffffffffffffffffffffffff1673ffffffffffffffffffffffffffffffffffffffff163373ffffffffffffffffffffffffffffffffffffffff1614806111b057506000809054906101000a900473ffffffffffffffffffffffffffffffffffffffff1673ffffffffffffffffffffffffffffffffffffffff163373ffffffffffffffffffffffffffffffffffffffff16145b806112085750600160009054906101000a900473ffffffffffffffffffffffffffffffffffffffff1673ffffffffffffffffffffffffffffffffffffffff163373ffffffffffffffffffffffffffffffffffffffff16145b806112605750600360009054906101000a900473ffffffffffffffffffffffffffffffffffffffff1673ffffffffffffffffffffffffffffffffffffffff163373ffffffffffffffffffffffffffffffffffffffff16145b151561126b57600080fd5b600360149054906101000a900460ff1615151561128757600080fd5b6001600360146101000a81548160ff0219169083151502179055507f6985a02210a168e66602d3235cb6db0e70f92b3ba4d376a33c0f3d9434bff62560405160405180910390a1565b6000600160009054906101000a900473ffffffffffffffffffffffffffffffffffffffff1673ffffffffffffffffffffffffffffffffffffffff163373ffffffffffffffffffffffffffffffffffffffff1614905090565b611330611b28565b600860008373ffffffffffffffffffffffffffffffffffffffff1673ffffffffffffffffffffffffffffffffffffffff1681526020019081526020016000208054600181600116156101000203166002900480601f0160208091040260200160405190810160405280929190818152602001828054600181600116156101000203166002900480156114035780601f106113d857610100808354040283529160200191611403565b820191906000526020600020905b8154815290600101906020018083116113e657829003601f168201915b50505050509050919050565b6000611419611b28565b611421611b3c565b6006846040518082805190602001908083835b6020831015156114595780518252602082019150602081019050602083039250611434565b6001836020036101000a03801982511681845116808217855250505050505090500191505090815260200160405180910390208054600181600116156101000203166002900480601f0160208091040260200160405190810160405280929190818152602001828054600181600116156101000203166002900480156115205780601f106114f557610100808354040283529160200191611520565b820191906000526020600020905b81548152906001019060200180831161150357829003601f168201915b5050505050915081905060008151111561153d5760009250611542565b600192505b5050919050565b611551611b28565b600460008373ffffffffffffffffffffffffffffffffffffffff1673ffffffffffffffffffffffffffffffffffffffff1681526020019081526020016000208054600181600116156101000203166002900480601f0160208091040260200160405190810160405280929190818152602001828054600181600116156101000203166002900480156116245780601f106115f957610100808354040283529160200191611624565b820191906000526020600020905b81548152906001019060200180831161160757829003601f168201915b50505050509050919050565b600360009054906101000a900473ffffffffffffffffffffffffffffffffffffffff1681565b600260009054906101000a900473ffffffffffffffffffffffffffffffffffffffff1681565b611684611b28565b61168c611b3c565b6116c784848080601f01602080910402602001604051908101604052809392919081815260200183838082843782019150505050505061140f565b15156116d257600080fd5b600460003373ffffffffffffffffffffffffffffffffffffffff1673ffffffffffffffffffffffffffffffffffffffff1681526020019081526020016000208054600181600116156101000203166002900480601f0160208091040260200160405190810160405280929190818152602001828054600181600116156101000203166002900480156117a55780601f1061177a576101008083540402835291602001916117a5565b820191906000526020600020905b81548152906001019060200180831161178857829003601f168201915b505050505091508190506000815111156118bf576006826040518082805190602001908083835b6020831015156117f157805182526020820191506020810190506020830392506117cc565b6001836020036101000a038019825116818451168082178552505050505050905001915050908152602001604051809103902060006118309190611b50565b6005826040518082805190602001908083835b6020831015156118685780518252602082019150602081019050602083039250611843565b6001836020036101000a038019825116818451168082178552505050505050905001915050908152602001604051809103902060006101000a81549073ffffffffffffffffffffffffffffffffffffffff02191690555b8383600460003373ffffffffffffffffffffffffffffffffffffffff1673ffffffffffffffffffffffffffffffffffffffff168152602001908152602001600020919061190d929190611aa8565b508383600686866040518083838082843782019150509250505090815260200160405180910390209190611942929190611aa8565b50336005858560405180838380828437820191505092505050908152602001604051809103902060006101000a81548173ffffffffffffffffffffffffffffffffffffffff021916908373ffffffffffffffffffffffffffffffffffffffff16021790555050505050565b600a60009054906101000a900473ffffffffffffffffffffffffffffffffffffffff1681565b60008060009054906101000a900473ffffffffffffffffffffffffffffffffffffffff1673ffffffffffffffffffffffffffffffffffffffff163373ffffffffffffffffffffffffffffffffffffffff1614905090565b600960009054906101000a900473ffffffffffffffffffffffffffffffffffffffff1681565b6000600260009054906101000a900473ffffffffffffffffffffffffffffffffffffffff1673ffffffffffffffffffffffffffffffffffffffff163373ffffffffffffffffffffffffffffffffffffffff1614905090565b828054600181600116156101000203166002900490600052602060002090601f016020900481019282601f10611ae957803560ff1916838001178555611b17565b82800160010185558215611b17579182015b82811115611b16578235825591602001919060010190611afb565b5b509050611b249190611b98565b5090565b602060405190810160405280600081525090565b602060405190810160405280600081525090565b50805460018160011615610100020316600290046000825580601f10611b765750611b95565b601f016020900490600052602060002090810190611b949190611b98565b5b50565b611bba91905b80821115611bb6576000816000905550600101611b9e565b5090565b905600a165627a7a7230582096fd351482ab5b5fea4f138998e6634a1e1cbd3fe17aaa5e81973d2357453f660029",
  "source": "pragma solidity ^0.4.14;\n\nimport \"./TokenAccessControl.sol\";\nimport \"./TokenCore.sol\";\nimport \"./SaleClockOffer.sol\";\n\n/// @title Identity extension of Token\ncontract TokenIdentity is TokenAccessControl {\n    mapping (address => string) ownerNickname;\n    mapping (string => address) nicknameOwner;\n    mapping (string => string) nicknames;\n    mapping (address => string) profiles;\n    mapping (address => string) links;\n\n    TokenCore public core;\n    SaleClockOffer public saleOffer;\n    \n    function TokenIdentity(address _coreAddress, address _saleOfferAddress) public {\n        core = TokenCore(_coreAddress);\n        saleOffer = SaleClockOffer(_saleOfferAddress);\n\n        // the creator of the contract is the initial CEO\n        ceoAddress = msg.sender;\n\n        // the creator of the contract is also the initial COO\n        cooAddress = msg.sender;\n    }\n\n    /// @notice No tipping!\n    /// @dev Reject all Ether from being sent here.\n    /// (Hopefully, we can prevent user accidents.)\n    function() external payable {\n        require(false);\n    }\n\n    /// @dev Access modifier for CFO-only functionality\n    modifier onlyCCO() {\n        require(core.isCCOAddress(msg.sender));\n        _;\n    }\n\n    function nicknameAvailable(string nickname) \n        public \n        view \n        returns (bool) {\n        string memory nicknameFound = nicknames[nickname];\n        bytes memory nicknameFoundTest = bytes(nicknameFound);\n        if (nicknameFoundTest.length > 0) {\n            return false;\n        } else {\n            return true;\n        }\n    }\n\n    function _getNicknameOwner(string nickname) \n        internal \n        view \n        returns (address) \n    {\n        return nicknameOwner[nickname];\n    }\n\n    function updateNickname(string nickname) external {\n        require(nicknameAvailable(nickname));\n\n        string memory oldNickname;        \n        oldNickname = ownerNickname[msg.sender];\n        bytes memory oldNicknameTest = bytes(oldNickname);\n        if (oldNicknameTest.length > 0) {\n            delete nicknames[oldNickname];\n            delete nicknameOwner[oldNickname];\n        }\n\n        ownerNickname[msg.sender] = nickname;\n        nicknames[nickname] = nickname;\n        nicknameOwner[nickname] = msg.sender;\n    }\n\n    function getNickname(address user) \n        external \n        view \n        returns (string) \n    {\n        return ownerNickname[user];\n    }\n\n    function updateProfile(string _profile) external {\n        profiles[msg.sender] = _profile;\n    }\n\n    function getProfile(address user) \n        external \n        view \n        returns (string) \n    {\n        return profiles[user];\n    }\n\n    function updateLink(string _link) external {\n        links[msg.sender] = _link;\n    }\n\n    function getLink(address user) \n        external \n        view \n        returns (string) \n    {\n        return links[user];\n    }\n}",
  "sourcePath": "/Users/jasonbanico/Dropbox/Workspace/CryptoTokenAdmin/contracts/TokenIdentity.sol",
  "compiler": {
    "name": "solc",
    "version": "0.4.19+commit.c4cbbb05.Emscripten.clang"
  },
  "schemaVersion": "1.0.1",
  "updatedAt": "2018-03-29T09:17:10.969Z"
}