{
  "contractName": "TokenFlags",
  "abi": [
    {
      "constant": true,
      "inputs": [],
      "name": "cfoAddress",
      "outputs": [
        {
          "name": "",
          "type": "address"
        }
      ],
      "payable": false,
      "stateMutability": "view",
      "type": "function"
    },
    {
      "constant": true,
      "inputs": [],
      "name": "ceoAddress",
      "outputs": [
        {
          "name": "",
          "type": "address"
        }
      ],
      "payable": false,
      "stateMutability": "view",
      "type": "function"
    },
    {
      "constant": false,
      "inputs": [
        {
          "name": "_newCEO",
          "type": "address"
        }
      ],
      "name": "setCEO",
      "outputs": [],
      "payable": false,
      "stateMutability": "nonpayable",
      "type": "function"
    },
    {
      "constant": false,
      "inputs": [
        {
          "name": "_newCOO",
          "type": "address"
        }
      ],
      "name": "setCOO",
      "outputs": [],
      "payable": false,
      "stateMutability": "nonpayable",
      "type": "function"
    },
    {
      "constant": true,
      "inputs": [],
      "name": "isCLevel",
      "outputs": [
        {
          "name": "",
          "type": "bool"
        }
      ],
      "payable": false,
      "stateMutability": "view",
      "type": "function"
    },
    {
      "constant": false,
      "inputs": [],
      "name": "unpause",
      "outputs": [],
      "payable": false,
      "stateMutability": "nonpayable",
      "type": "function"
    },
    {
      "constant": false,
      "inputs": [
        {
          "name": "_newCCO",
          "type": "address"
        }
      ],
      "name": "setCCO",
      "outputs": [],
      "payable": false,
      "stateMutability": "nonpayable",
      "type": "function"
    },
    {
      "constant": false,
      "inputs": [
        {
          "name": "_newCFO",
          "type": "address"
        }
      ],
      "name": "setCFO",
      "outputs": [],
      "payable": false,
      "stateMutability": "nonpayable",
      "type": "function"
    },
    {
      "constant": true,
      "inputs": [],
      "name": "isCCO",
      "outputs": [
        {
          "name": "",
          "type": "bool"
        }
      ],
      "payable": false,
      "stateMutability": "view",
      "type": "function"
    },
    {
      "constant": true,
      "inputs": [],
      "name": "paused",
      "outputs": [
        {
          "name": "",
          "type": "bool"
        }
      ],
      "payable": false,
      "stateMutability": "view",
      "type": "function"
    },
    {
      "constant": true,
      "inputs": [
        {
          "name": "_ccoAddress",
          "type": "address"
        }
      ],
      "name": "isCCOAddress",
      "outputs": [
        {
          "name": "",
          "type": "bool"
        }
      ],
      "payable": false,
      "stateMutability": "view",
      "type": "function"
    },
    {
      "constant": false,
      "inputs": [],
      "name": "pause",
      "outputs": [],
      "payable": false,
      "stateMutability": "nonpayable",
      "type": "function"
    },
    {
      "constant": true,
      "inputs": [],
      "name": "isCFO",
      "outputs": [
        {
          "name": "",
          "type": "bool"
        }
      ],
      "payable": false,
      "stateMutability": "view",
      "type": "function"
    },
    {
      "constant": true,
      "inputs": [],
      "name": "ccoAddress",
      "outputs": [
        {
          "name": "",
          "type": "address"
        }
      ],
      "payable": false,
      "stateMutability": "view",
      "type": "function"
    },
    {
      "constant": true,
      "inputs": [],
      "name": "cooAddress",
      "outputs": [
        {
          "name": "",
          "type": "address"
        }
      ],
      "payable": false,
      "stateMutability": "view",
      "type": "function"
    },
    {
      "constant": true,
      "inputs": [],
      "name": "isCEO",
      "outputs": [
        {
          "name": "",
          "type": "bool"
        }
      ],
      "payable": false,
      "stateMutability": "view",
      "type": "function"
    },
    {
      "constant": true,
      "inputs": [],
      "name": "isCOO",
      "outputs": [
        {
          "name": "",
          "type": "bool"
        }
      ],
      "payable": false,
      "stateMutability": "view",
      "type": "function"
    },
    {
      "inputs": [],
      "payable": false,
      "stateMutability": "nonpayable",
      "type": "constructor"
    },
    {
      "payable": true,
      "stateMutability": "payable",
      "type": "fallback"
    },
    {
      "anonymous": false,
      "inputs": [
        {
          "indexed": false,
          "name": "newContract",
          "type": "address"
        }
      ],
      "name": "ContractUpgrade",
      "type": "event"
    },
    {
      "anonymous": false,
      "inputs": [
        {
          "indexed": false,
          "name": "message",
          "type": "string"
        }
      ],
      "name": "Trace",
      "type": "event"
    },
    {
      "anonymous": false,
      "inputs": [],
      "name": "Pause",
      "type": "event"
    },
    {
      "anonymous": false,
      "inputs": [],
      "name": "Unpause",
      "type": "event"
    },
    {
      "constant": true,
      "inputs": [
        {
          "name": "_metadata",
          "type": "string"
        }
      ],
      "name": "getUserFlagsA",
      "outputs": [
        {
          "name": "flag01",
          "type": "bool"
        },
        {
          "name": "flag02",
          "type": "bool"
        },
        {
          "name": "flag03",
          "type": "bool"
        },
        {
          "name": "flag04",
          "type": "bool"
        },
        {
          "name": "flag05",
          "type": "bool"
        },
        {
          "name": "flag06",
          "type": "bool"
        },
        {
          "name": "flag07",
          "type": "bool"
        },
        {
          "name": "flag08",
          "type": "bool"
        },
        {
          "name": "flag09",
          "type": "bool"
        },
        {
          "name": "flag10",
          "type": "bool"
        }
      ],
      "payable": false,
      "stateMutability": "view",
      "type": "function"
    },
    {
      "constant": true,
      "inputs": [
        {
          "name": "_metadata",
          "type": "string"
        }
      ],
      "name": "getUserFlagsB",
      "outputs": [
        {
          "name": "flag11",
          "type": "bool"
        },
        {
          "name": "flag12",
          "type": "bool"
        },
        {
          "name": "flag13",
          "type": "bool"
        },
        {
          "name": "flag14",
          "type": "bool"
        },
        {
          "name": "flag15",
          "type": "bool"
        },
        {
          "name": "flag16",
          "type": "bool"
        },
        {
          "name": "flag17",
          "type": "bool"
        },
        {
          "name": "flag18",
          "type": "bool"
        },
        {
          "name": "flag19",
          "type": "bool"
        },
        {
          "name": "flag20",
          "type": "bool"
        }
      ],
      "payable": false,
      "stateMutability": "view",
      "type": "function"
    },
    {
      "constant": true,
      "inputs": [
        {
          "name": "_metadata",
          "type": "string"
        }
      ],
      "name": "getAdminFlagsA",
      "outputs": [
        {
          "name": "flag01",
          "type": "bool"
        },
        {
          "name": "flag02",
          "type": "bool"
        },
        {
          "name": "flag03",
          "type": "bool"
        },
        {
          "name": "flag04",
          "type": "bool"
        },
        {
          "name": "flag05",
          "type": "bool"
        },
        {
          "name": "flag06",
          "type": "bool"
        },
        {
          "name": "flag07",
          "type": "bool"
        },
        {
          "name": "flag08",
          "type": "bool"
        },
        {
          "name": "flag09",
          "type": "bool"
        },
        {
          "name": "flag10",
          "type": "bool"
        }
      ],
      "payable": false,
      "stateMutability": "view",
      "type": "function"
    },
    {
      "constant": true,
      "inputs": [
        {
          "name": "_metadata",
          "type": "string"
        }
      ],
      "name": "getAdminFlagsB",
      "outputs": [
        {
          "name": "flag11",
          "type": "bool"
        },
        {
          "name": "flag12",
          "type": "bool"
        },
        {
          "name": "flag13",
          "type": "bool"
        },
        {
          "name": "flag14",
          "type": "bool"
        },
        {
          "name": "flag15",
          "type": "bool"
        },
        {
          "name": "flag16",
          "type": "bool"
        },
        {
          "name": "flag17",
          "type": "bool"
        },
        {
          "name": "flag18",
          "type": "bool"
        },
        {
          "name": "flag19",
          "type": "bool"
        },
        {
          "name": "flag20",
          "type": "bool"
        }
      ],
      "payable": false,
      "stateMutability": "view",
      "type": "function"
    },
    {
      "constant": false,
      "inputs": [
        {
          "name": "_metadata",
          "type": "string"
        },
        {
          "name": "_i",
          "type": "uint256"
        }
      ],
      "name": "setUserFlagsTrue",
      "outputs": [],
      "payable": false,
      "stateMutability": "nonpayable",
      "type": "function"
    },
    {
      "constant": false,
      "inputs": [
        {
          "name": "_metadata",
          "type": "string"
        },
        {
          "name": "_i",
          "type": "uint256"
        },
        {
          "name": "valueNumber",
          "type": "uint256"
        }
      ],
      "name": "setUserFlags",
      "outputs": [],
      "payable": false,
      "stateMutability": "nonpayable",
      "type": "function"
    },
    {
      "constant": false,
      "inputs": [
        {
          "name": "_metadata",
          "type": "string"
        },
        {
          "name": "_i",
          "type": "uint256"
        },
        {
          "name": "valueNumber",
          "type": "uint256"
        }
      ],
      "name": "setAdminFlags",
      "outputs": [],
      "payable": false,
      "stateMutability": "nonpayable",
      "type": "function"
    }
  ],
  "bytecode": "0x60606040526000600360146101000a81548160ff021916908315150217905550341561002a57600080fd5b336000806101000a81548173ffffffffffffffffffffffffffffffffffffffff021916908373ffffffffffffffffffffffffffffffffffffffff16021790555033600260006101000a81548173ffffffffffffffffffffffffffffffffffffffff021916908373ffffffffffffffffffffffffffffffffffffffff1602179055506130cf806100ba6000396000f30060606040526004361061013e576000357c0100000000000000000000000000000000000000000000000000000000900463ffffffff1680630519ce791461014d5780630a0f8168146101a257806311572759146101f757806322f87c831461022e57806327d7874c146102d75780632ba73c15146103105780633487e9e5146103495780633a66e9e1146103f25780633f4ba83a1461041f57806345168839146104345780634e0a33791461046d57806354c5a3ae146104a65780635c975abb146104d3578063715fbfa8146105005780638456cb59146105515780638c5400bc146105665780639393ae37146105a6578063a3f94589146105d3578063afeaa2d414610613578063b047fb5014610668578063c807ac32146106bd578063d81c594514610766578063e513b7a91461080f578063f4a02e701461083c575b6000151561014b57600080fd5b005b341561015857600080fd5b610160610869565b604051808273ffffffffffffffffffffffffffffffffffffffff1673ffffffffffffffffffffffffffffffffffffffff16815260200191505060405180910390f35b34156101ad57600080fd5b6101b561088f565b604051808273ffffffffffffffffffffffffffffffffffffffff1673ffffffffffffffffffffffffffffffffffffffff16815260200191505060405180910390f35b341561020257600080fd5b61022c600480803590602001908201803590602001919091929080359060200190919050506108b4565b005b341561023957600080fd5b61025a60048080359060200190820180359060200191909192905050610f9c565b604051808b1515151581526020018a15151515815260200189151515158152602001881515151581526020018715151515815260200186151515158152602001851515151581526020018415151515815260200183151515158152602001821515151581526020019a505050505050505050505060405180910390f35b34156102e257600080fd5b61030e600480803573ffffffffffffffffffffffffffffffffffffffff1690602001909190505061120f565b005b341561031b57600080fd5b610347600480803573ffffffffffffffffffffffffffffffffffffffff169060200190919050506112e9565b005b341561035457600080fd5b610375600480803590602001908201803590602001919091929050506113c4565b604051808b1515151581526020018a15151515815260200189151515158152602001881515151581526020018715151515815260200186151515158152602001851515151581526020018415151515815260200183151515158152602001821515151581526020019a505050505050505050505060405180910390f35b34156103fd57600080fd5b6104056114d4565b604051808215151515815260200191505060405180910390f35b341561042a57600080fd5b610432611633565b005b341561043f57600080fd5b61046b600480803573ffffffffffffffffffffffffffffffffffffffff169060200190919050506116f2565b005b341561047857600080fd5b6104a4600480803573ffffffffffffffffffffffffffffffffffffffff169060200190919050506117cd565b005b34156104b157600080fd5b6104b96118a8565b604051808215151515815260200191505060405180910390f35b34156104de57600080fd5b6104e6611900565b604051808215151515815260200191505060405180910390f35b341561050b57600080fd5b610537600480803573ffffffffffffffffffffffffffffffffffffffff16906020019091905050611913565b604051808215151515815260200191505060405180910390f35b341561055c57600080fd5b61056461196d565b005b341561057157600080fd5b6105a460048080359060200190820180359060200191909192908035906020019091908035906020019091905050611b35565b005b34156105b157600080fd5b6105b9612381565b604051808215151515815260200191505060405180910390f35b34156105de57600080fd5b610611600480803590602001908201803590602001919091929080359060200190919080359060200190919050506123d9565b005b341561061e57600080fd5b610626612c25565b604051808273ffffffffffffffffffffffffffffffffffffffff1673ffffffffffffffffffffffffffffffffffffffff16815260200191505060405180910390f35b341561067357600080fd5b61067b612c4b565b604051808273ffffffffffffffffffffffffffffffffffffffff1673ffffffffffffffffffffffffffffffffffffffff16815260200191505060405180910390f35b34156106c857600080fd5b6106e960048080359060200190820180359060200191909192905050612c71565b604051808b1515151581526020018a15151515815260200189151515158152602001881515151581526020018715151515815260200186151515158152602001851515151581526020018415151515815260200183151515158152602001821515151581526020019a505050505050505050505060405180910390f35b341561077157600080fd5b61079260048080359060200190820180359060200191909192905050612d81565b604051808b1515151581526020018a15151515815260200189151515158152602001881515151581526020018715151515815260200186151515158152602001851515151581526020018415151515815260200183151515158152602001821515151581526020019a505050505050505050505060405180910390f35b341561081a57600080fd5b610822612ff4565b604051808215151515815260200191505060405180910390f35b341561084757600080fd5b61084f61304b565b604051808215151515815260200191505060405180910390f35b600160009054906101000a900473ffffffffffffffffffffffffffffffffffffffff1681565b6000809054906101000a900473ffffffffffffffffffffffffffffffffffffffff1681565b600060048484604051808383808284378201915050925050509081526020016040518091039020905060018214156109045760018160000160006101000a81548160ff0219169083151502179055505b600282141561092b5760018160000160016101000a81548160ff0219169083151502179055505b60038214156109525760018160000160026101000a81548160ff0219169083151502179055505b60048214156109795760018160000160036101000a81548160ff0219169083151502179055505b60058214156109a05760018160000160046101000a81548160ff0219169083151502179055505b60068214156109c75760018160000160056101000a81548160ff0219169083151502179055505b60078214156109ee5760018160000160066101000a81548160ff0219169083151502179055505b6008821415610a155760018160000160076101000a81548160ff0219169083151502179055505b6009821415610a3c5760018160000160086101000a81548160ff0219169083151502179055505b600a821415610a635760018160000160096101000a81548160ff0219169083151502179055505b600b821415610a8a57600181600001600a6101000a81548160ff0219169083151502179055505b600c821415610ab157600181600001600b6101000a81548160ff0219169083151502179055505b600d821415610ad857600181600001600c6101000a81548160ff0219169083151502179055505b600e821415610aff57600181600001600d6101000a81548160ff0219169083151502179055505b600f821415610b2657600181600001600e6101000a81548160ff0219169083151502179055505b6010821415610b4d57600181600001600f6101000a81548160ff0219169083151502179055505b6011821415610b745760018160000160106101000a81548160ff0219169083151502179055505b6012821415610b9b5760018160000160126101000a81548160ff0219169083151502179055505b6013821415610bc25760018160000160126101000a81548160ff0219169083151502179055505b6014821415610be95760018160000160136101000a81548160ff0219169083151502179055505b80600485856040518083838082843782019150509250505090815260200160405180910390206000820160009054906101000a900460ff168160000160006101000a81548160ff0219169083151502179055506000820160019054906101000a900460ff168160000160016101000a81548160ff0219169083151502179055506000820160029054906101000a900460ff168160000160026101000a81548160ff0219169083151502179055506000820160039054906101000a900460ff168160000160036101000a81548160ff0219169083151502179055506000820160049054906101000a900460ff168160000160046101000a81548160ff0219169083151502179055506000820160059054906101000a900460ff168160000160056101000a81548160ff0219169083151502179055506000820160069054906101000a900460ff168160000160066101000a81548160ff0219169083151502179055506000820160079054906101000a900460ff168160000160076101000a81548160ff0219169083151502179055506000820160089054906101000a900460ff168160000160086101000a81548160ff0219169083151502179055506000820160099054906101000a900460ff168160000160096101000a81548160ff02191690831515021790555060008201600a9054906101000a900460ff1681600001600a6101000a81548160ff02191690831515021790555060008201600b9054906101000a900460ff1681600001600b6101000a81548160ff02191690831515021790555060008201600c9054906101000a900460ff1681600001600c6101000a81548160ff02191690831515021790555060008201600d9054906101000a900460ff1681600001600d6101000a81548160ff02191690831515021790555060008201600e9054906101000a900460ff1681600001600e6101000a81548160ff02191690831515021790555060008201600f9054906101000a900460ff1681600001600f6101000a81548160ff0219169083151502179055506000820160109054906101000a900460ff168160000160106101000a81548160ff0219169083151502179055506000820160119054906101000a900460ff168160000160116101000a81548160ff0219169083151502179055506000820160129054906101000a900460ff168160000160126101000a81548160ff0219169083151502179055506000820160139054906101000a900460ff168160000160136101000a81548160ff02191690831515021790555090505050505050565b6000806000806000806000806000806000600260009054906101000a900473ffffffffffffffffffffffffffffffffffffffff1673ffffffffffffffffffffffffffffffffffffffff163373ffffffffffffffffffffffffffffffffffffffff16148061105557506000809054906101000a900473ffffffffffffffffffffffffffffffffffffffff1673ffffffffffffffffffffffffffffffffffffffff163373ffffffffffffffffffffffffffffffffffffffff16145b806110ad5750600160009054906101000a900473ffffffffffffffffffffffffffffffffffffffff1673ffffffffffffffffffffffffffffffffffffffff163373ffffffffffffffffffffffffffffffffffffffff16145b806111055750600360009054906101000a900473ffffffffffffffffffffffffffffffffffffffff1673ffffffffffffffffffffffffffffffffffffffff163373ffffffffffffffffffffffffffffffffffffffff16145b151561111057600080fd5b60058d8d60405180838380828437820191505092505050908152602001604051809103902090508060000160009054906101000a900460ff169a508060000160019054906101000a900460ff1699508060000160029054906101000a900460ff1698508060000160039054906101000a900460ff1697508060000160049054906101000a900460ff1696508060000160059054906101000a900460ff1695508060000160069054906101000a900460ff1694508060000160079054906101000a900460ff1693508060000160089054906101000a900460ff1692508060000160099054906101000a900460ff169150509295989b9194979a5092959850565b6000809054906101000a900473ffffffffffffffffffffffffffffffffffffffff1673ffffffffffffffffffffffffffffffffffffffff163373ffffffffffffffffffffffffffffffffffffffff1614151561126a57600080fd5b600073ffffffffffffffffffffffffffffffffffffffff168173ffffffffffffffffffffffffffffffffffffffff16141515156112a657600080fd5b806000806101000a81548173ffffffffffffffffffffffffffffffffffffffff021916908373ffffffffffffffffffffffffffffffffffffffff16021790555050565b6000809054906101000a900473ffffffffffffffffffffffffffffffffffffffff1673ffffffffffffffffffffffffffffffffffffffff163373ffffffffffffffffffffffffffffffffffffffff1614151561134457600080fd5b600073ffffffffffffffffffffffffffffffffffffffff168173ffffffffffffffffffffffffffffffffffffffff161415151561138057600080fd5b80600260006101000a81548173ffffffffffffffffffffffffffffffffffffffff021916908373ffffffffffffffffffffffffffffffffffffffff16021790555050565b600080600080600080600080600080600060048d8d60405180838380828437820191505092505050908152602001604051809103902090508060000160009054906101000a900460ff169a508060000160019054906101000a900460ff1699508060000160029054906101000a900460ff1698508060000160039054906101000a900460ff1697508060000160049054906101000a900460ff1696508060000160059054906101000a900460ff1695508060000160069054906101000a900460ff1694508060000160079054906101000a900460ff1693508060000160089054906101000a900460ff1692508060000160099054906101000a900460ff169150509295989b9194979a5092959850565b6000600260009054906101000a900473ffffffffffffffffffffffffffffffffffffffff1673ffffffffffffffffffffffffffffffffffffffff163373ffffffffffffffffffffffffffffffffffffffff16148061157e57506000809054906101000a900473ffffffffffffffffffffffffffffffffffffffff1673ffffffffffffffffffffffffffffffffffffffff163373ffffffffffffffffffffffffffffffffffffffff16145b806115d65750600160009054906101000a900473ffffffffffffffffffffffffffffffffffffffff1673ffffffffffffffffffffffffffffffffffffffff163373ffffffffffffffffffffffffffffffffffffffff16145b8061162e5750600360009054906101000a900473ffffffffffffffffffffffffffffffffffffffff1673ffffffffffffffffffffffffffffffffffffffff163373ffffffffffffffffffffffffffffffffffffffff16145b905090565b6000809054906101000a900473ffffffffffffffffffffffffffffffffffffffff1673ffffffffffffffffffffffffffffffffffffffff163373ffffffffffffffffffffffffffffffffffffffff1614151561168e57600080fd5b600360149054906101000a900460ff1615156116a957600080fd5b6000600360146101000a81548160ff0219169083151502179055507f7805862f689e2f13df9f062ff482ad3ad112aca9e0847911ed832e158c525b3360405160405180910390a1565b6000809054906101000a900473ffffffffffffffffffffffffffffffffffffffff1673ffffffffffffffffffffffffffffffffffffffff163373ffffffffffffffffffffffffffffffffffffffff1614151561174d57600080fd5b600073ffffffffffffffffffffffffffffffffffffffff168173ffffffffffffffffffffffffffffffffffffffff161415151561178957600080fd5b80600360006101000a81548173ffffffffffffffffffffffffffffffffffffffff021916908373ffffffffffffffffffffffffffffffffffffffff16021790555050565b6000809054906101000a900473ffffffffffffffffffffffffffffffffffffffff1673ffffffffffffffffffffffffffffffffffffffff163373ffffffffffffffffffffffffffffffffffffffff1614151561182857600080fd5b600073ffffffffffffffffffffffffffffffffffffffff168173ffffffffffffffffffffffffffffffffffffffff161415151561186457600080fd5b80600160006101000a81548173ffffffffffffffffffffffffffffffffffffffff021916908373ffffffffffffffffffffffffffffffffffffffff16021790555050565b6000600360009054906101000a900473ffffffffffffffffffffffffffffffffffffffff1673ffffffffffffffffffffffffffffffffffffffff163373ffffffffffffffffffffffffffffffffffffffff1614905090565b600360149054906101000a900460ff1681565b6000600360009054906101000a900473ffffffffffffffffffffffffffffffffffffffff1673ffffffffffffffffffffffffffffffffffffffff168273ffffffffffffffffffffffffffffffffffffffff16149050919050565b600260009054906101000a900473ffffffffffffffffffffffffffffffffffffffff1673ffffffffffffffffffffffffffffffffffffffff163373ffffffffffffffffffffffffffffffffffffffff161480611a1557506000809054906101000a900473ffffffffffffffffffffffffffffffffffffffff1673ffffffffffffffffffffffffffffffffffffffff163373ffffffffffffffffffffffffffffffffffffffff16145b80611a6d5750600160009054906101000a900473ffffffffffffffffffffffffffffffffffffffff1673ffffffffffffffffffffffffffffffffffffffff163373ffffffffffffffffffffffffffffffffffffffff16145b80611ac55750600360009054906101000a900473ffffffffffffffffffffffffffffffffffffffff1673ffffffffffffffffffffffffffffffffffffffff163373ffffffffffffffffffffffffffffffffffffffff16145b1515611ad057600080fd5b600360149054906101000a900460ff16151515611aec57600080fd5b6001600360146101000a81548160ff0219169083151502179055507f6985a02210a168e66602d3235cb6db0e70f92b3ba4d376a33c0f3d9434bff62560405160405180910390a1565b600080600260009054906101000a900473ffffffffffffffffffffffffffffffffffffffff1673ffffffffffffffffffffffffffffffffffffffff163373ffffffffffffffffffffffffffffffffffffffff161480611be057506000809054906101000a900473ffffffffffffffffffffffffffffffffffffffff1673ffffffffffffffffffffffffffffffffffffffff163373ffffffffffffffffffffffffffffffffffffffff16145b80611c385750600160009054906101000a900473ffffffffffffffffffffffffffffffffffffffff1673ffffffffffffffffffffffffffffffffffffffff163373ffffffffffffffffffffffffffffffffffffffff16145b80611c905750600360009054906101000a900473ffffffffffffffffffffffffffffffffffffffff1673ffffffffffffffffffffffffffffffffffffffff163373ffffffffffffffffffffffffffffffffffffffff16145b1515611c9b57600080fd5b600091506000831115611cad57600191505b6005868660405180838380828437820191505092505050908152602001604051809103902090506001841415611cfa57818160000160006101000a81548160ff0219169083151502179055505b6002841415611d2057818160000160016101000a81548160ff0219169083151502179055505b6003841415611d4657818160000160026101000a81548160ff0219169083151502179055505b6004841415611d6c57818160000160036101000a81548160ff0219169083151502179055505b6005841415611d9257818160000160046101000a81548160ff0219169083151502179055505b6006841415611db857818160000160056101000a81548160ff0219169083151502179055505b6007841415611dde57818160000160066101000a81548160ff0219169083151502179055505b6008841415611e0457818160000160076101000a81548160ff0219169083151502179055505b6009841415611e2a57818160000160086101000a81548160ff0219169083151502179055505b600a841415611e5057818160000160096101000a81548160ff0219169083151502179055505b600b841415611e76578181600001600a6101000a81548160ff0219169083151502179055505b600c841415611e9c578181600001600b6101000a81548160ff0219169083151502179055505b600d841415611ec2578181600001600c6101000a81548160ff0219169083151502179055505b600e841415611ee8578181600001600d6101000a81548160ff0219169083151502179055505b600f841415611f0e578181600001600e6101000a81548160ff0219169083151502179055505b6010841415611f34578181600001600f6101000a81548160ff0219169083151502179055505b6011841415611f5a57818160000160106101000a81548160ff0219169083151502179055505b6012841415611f8057818160000160126101000a81548160ff0219169083151502179055505b6013841415611fa657818160000160126101000a81548160ff0219169083151502179055505b6014841415611fcc57818160000160136101000a81548160ff0219169083151502179055505b80600587876040518083838082843782019150509250505090815260200160405180910390206000820160009054906101000a900460ff168160000160006101000a81548160ff0219169083151502179055506000820160019054906101000a900460ff168160000160016101000a81548160ff0219169083151502179055506000820160029054906101000a900460ff168160000160026101000a81548160ff0219169083151502179055506000820160039054906101000a900460ff168160000160036101000a81548160ff0219169083151502179055506000820160049054906101000a900460ff168160000160046101000a81548160ff0219169083151502179055506000820160059054906101000a900460ff168160000160056101000a81548160ff0219169083151502179055506000820160069054906101000a900460ff168160000160066101000a81548160ff0219169083151502179055506000820160079054906101000a900460ff168160000160076101000a81548160ff0219169083151502179055506000820160089054906101000a900460ff168160000160086101000a81548160ff0219169083151502179055506000820160099054906101000a900460ff168160000160096101000a81548160ff02191690831515021790555060008201600a9054906101000a900460ff1681600001600a6101000a81548160ff02191690831515021790555060008201600b9054906101000a900460ff1681600001600b6101000a81548160ff02191690831515021790555060008201600c9054906101000a900460ff1681600001600c6101000a81548160ff02191690831515021790555060008201600d9054906101000a900460ff1681600001600d6101000a81548160ff02191690831515021790555060008201600e9054906101000a900460ff1681600001600e6101000a81548160ff02191690831515021790555060008201600f9054906101000a900460ff1681600001600f6101000a81548160ff0219169083151502179055506000820160109054906101000a900460ff168160000160106101000a81548160ff0219169083151502179055506000820160119054906101000a900460ff168160000160116101000a81548160ff0219169083151502179055506000820160129054906101000a900460ff168160000160126101000a81548160ff0219169083151502179055506000820160139054906101000a900460ff168160000160136101000a81548160ff021916908315150217905550905050505050505050565b6000600160009054906101000a900473ffffffffffffffffffffffffffffffffffffffff1673ffffffffffffffffffffffffffffffffffffffff163373ffffffffffffffffffffffffffffffffffffffff1614905090565b600080600260009054906101000a900473ffffffffffffffffffffffffffffffffffffffff1673ffffffffffffffffffffffffffffffffffffffff163373ffffffffffffffffffffffffffffffffffffffff16148061248457506000809054906101000a900473ffffffffffffffffffffffffffffffffffffffff1673ffffffffffffffffffffffffffffffffffffffff163373ffffffffffffffffffffffffffffffffffffffff16145b806124dc5750600160009054906101000a900473ffffffffffffffffffffffffffffffffffffffff1673ffffffffffffffffffffffffffffffffffffffff163373ffffffffffffffffffffffffffffffffffffffff16145b806125345750600360009054906101000a900473ffffffffffffffffffffffffffffffffffffffff1673ffffffffffffffffffffffffffffffffffffffff163373ffffffffffffffffffffffffffffffffffffffff16145b151561253f57600080fd5b60009150600083111561255157600191505b600486866040518083838082843782019150509250505090815260200160405180910390209050600184141561259e57818160000160006101000a81548160ff0219169083151502179055505b60028414156125c457818160000160016101000a81548160ff0219169083151502179055505b60038414156125ea57818160000160026101000a81548160ff0219169083151502179055505b600484141561261057818160000160036101000a81548160ff0219169083151502179055505b600584141561263657818160000160046101000a81548160ff0219169083151502179055505b600684141561265c57818160000160056101000a81548160ff0219169083151502179055505b600784141561268257818160000160066101000a81548160ff0219169083151502179055505b60088414156126a857818160000160076101000a81548160ff0219169083151502179055505b60098414156126ce57818160000160086101000a81548160ff0219169083151502179055505b600a8414156126f457818160000160096101000a81548160ff0219169083151502179055505b600b84141561271a578181600001600a6101000a81548160ff0219169083151502179055505b600c841415612740578181600001600b6101000a81548160ff0219169083151502179055505b600d841415612766578181600001600c6101000a81548160ff0219169083151502179055505b600e84141561278c578181600001600d6101000a81548160ff0219169083151502179055505b600f8414156127b2578181600001600e6101000a81548160ff0219169083151502179055505b60108414156127d8578181600001600f6101000a81548160ff0219169083151502179055505b60118414156127fe57818160000160106101000a81548160ff0219169083151502179055505b601284141561282457818160000160126101000a81548160ff0219169083151502179055505b601384141561284a57818160000160126101000a81548160ff0219169083151502179055505b601484141561287057818160000160136101000a81548160ff0219169083151502179055505b80600487876040518083838082843782019150509250505090815260200160405180910390206000820160009054906101000a900460ff168160000160006101000a81548160ff0219169083151502179055506000820160019054906101000a900460ff168160000160016101000a81548160ff0219169083151502179055506000820160029054906101000a900460ff168160000160026101000a81548160ff0219169083151502179055506000820160039054906101000a900460ff168160000160036101000a81548160ff0219169083151502179055506000820160049054906101000a900460ff168160000160046101000a81548160ff0219169083151502179055506000820160059054906101000a900460ff168160000160056101000a81548160ff0219169083151502179055506000820160069054906101000a900460ff168160000160066101000a81548160ff0219169083151502179055506000820160079054906101000a900460ff168160000160076101000a81548160ff0219169083151502179055506000820160089054906101000a900460ff168160000160086101000a81548160ff0219169083151502179055506000820160099054906101000a900460ff168160000160096101000a81548160ff02191690831515021790555060008201600a9054906101000a900460ff1681600001600a6101000a81548160ff02191690831515021790555060008201600b9054906101000a900460ff1681600001600b6101000a81548160ff02191690831515021790555060008201600c9054906101000a900460ff1681600001600c6101000a81548160ff02191690831515021790555060008201600d9054906101000a900460ff1681600001600d6101000a81548160ff02191690831515021790555060008201600e9054906101000a900460ff1681600001600e6101000a81548160ff02191690831515021790555060008201600f9054906101000a900460ff1681600001600f6101000a81548160ff0219169083151502179055506000820160109054906101000a900460ff168160000160106101000a81548160ff0219169083151502179055506000820160119054906101000a900460ff168160000160116101000a81548160ff0219169083151502179055506000820160129054906101000a900460ff168160000160126101000a81548160ff0219169083151502179055506000820160139054906101000a900460ff168160000160136101000a81548160ff021916908315150217905550905050505050505050565b600360009054906101000a900473ffffffffffffffffffffffffffffffffffffffff1681565b600260009054906101000a900473ffffffffffffffffffffffffffffffffffffffff1681565b600080600080600080600080600080600060048d8d604051808383808284378201915050925050509081526020016040518091039020905080600001600a9054906101000a900460ff169a5080600001600b9054906101000a900460ff16995080600001600c9054906101000a900460ff16985080600001600d9054906101000a900460ff16975080600001600e9054906101000a900460ff16965080600001600f9054906101000a900460ff1695508060000160109054906101000a900460ff1694508060000160119054906101000a900460ff1693508060000160129054906101000a900460ff1692508060000160139054906101000a900460ff169150509295989b9194979a5092959850565b6000806000806000806000806000806000600260009054906101000a900473ffffffffffffffffffffffffffffffffffffffff1673ffffffffffffffffffffffffffffffffffffffff163373ffffffffffffffffffffffffffffffffffffffff161480612e3a57506000809054906101000a900473ffffffffffffffffffffffffffffffffffffffff1673ffffffffffffffffffffffffffffffffffffffff163373ffffffffffffffffffffffffffffffffffffffff16145b80612e925750600160009054906101000a900473ffffffffffffffffffffffffffffffffffffffff1673ffffffffffffffffffffffffffffffffffffffff163373ffffffffffffffffffffffffffffffffffffffff16145b80612eea5750600360009054906101000a900473ffffffffffffffffffffffffffffffffffffffff1673ffffffffffffffffffffffffffffffffffffffff163373ffffffffffffffffffffffffffffffffffffffff16145b1515612ef557600080fd5b60058d8d604051808383808284378201915050925050509081526020016040518091039020905080600001600a9054906101000a900460ff169a5080600001600b9054906101000a900460ff16995080600001600c9054906101000a900460ff16985080600001600d9054906101000a900460ff16975080600001600e9054906101000a900460ff16965080600001600f9054906101000a900460ff1695508060000160109054906101000a900460ff1694508060000160119054906101000a900460ff1693508060000160129054906101000a900460ff1692508060000160139054906101000a900460ff169150509295989b9194979a5092959850565b60008060009054906101000a900473ffffffffffffffffffffffffffffffffffffffff1673ffffffffffffffffffffffffffffffffffffffff163373ffffffffffffffffffffffffffffffffffffffff1614905090565b6000600260009054906101000a900473ffffffffffffffffffffffffffffffffffffffff1673ffffffffffffffffffffffffffffffffffffffff163373ffffffffffffffffffffffffffffffffffffffff16149050905600a165627a7a7230582046a697be6f91485e121062171bf486de0917fb56fc8b9a69e423eeca975b2bb30029",
  "source": "pragma solidity ^0.4.14;\n\nimport \"./TokenAccessControl.sol\";\n\n/// @title Content extension of Token\ncontract TokenFlags is TokenAccessControl {\n    struct Flags {\n        bool flag01;\n        bool flag02;\n        bool flag03;\n        bool flag04;\n        bool flag05;\n        bool flag06;\n        bool flag07;\n        bool flag08;\n        bool flag09;\n        bool flag10;\n        bool flag11;\n        bool flag12;\n        bool flag13;\n        bool flag14;\n        bool flag15;\n        bool flag16;\n        bool flag17;\n        bool flag18;\n        bool flag19;\n        bool flag20;\n    }\n\n    mapping(string => Flags) userFlags;\n    mapping(string => Flags) adminFlags;\n\n    function TokenFlags() {\n        // the creator of the contract is the initial CEO\n        ceoAddress = msg.sender;\n\n        // the creator of the contract is also the initial COO\n        cooAddress = msg.sender;\n    }\n\n    /// @notice No tipping!\n    /// @dev Reject all Ether from being sent here.\n    /// (Hopefully, we can prevent user accidents.)\n    function() external payable {\n        require(false);\n    }\n\n    function getUserFlagsA(\n        string _metadata) external \n        view\n        returns \n        (\n            bool flag01,\n            bool flag02,\n            bool flag03,\n            bool flag04,\n            bool flag05,\n            bool flag06,\n            bool flag07,\n            bool flag08,\n            bool flag09,\n            bool flag10\n        ) {\n        Flags storage flag = userFlags[_metadata];\n        flag01 = flag.flag01;\n        flag02 = flag.flag02;\n        flag03 = flag.flag03;\n        flag04 = flag.flag04;\n        flag05 = flag.flag05;\n        flag06 = flag.flag06;\n        flag07 = flag.flag07;\n        flag08 = flag.flag08;\n        flag09 = flag.flag09;\n        flag10 = flag.flag10;\n    }\n\n    function getUserFlagsB(\n        string _metadata) external \n        view\n        returns \n        (\n            bool flag11,\n            bool flag12,\n            bool flag13,\n            bool flag14,\n            bool flag15,\n            bool flag16,\n            bool flag17,\n            bool flag18,\n            bool flag19,\n            bool flag20\n        ) {\n        Flags storage flag = userFlags[_metadata];\n        flag11 = flag.flag11;\n        flag12 = flag.flag12;\n        flag13 = flag.flag13;\n        flag14 = flag.flag14;\n        flag15 = flag.flag15;\n        flag16 = flag.flag16;\n        flag17 = flag.flag17;\n        flag18 = flag.flag18;\n        flag19 = flag.flag19;\n        flag20 = flag.flag20;\n    }\n\n    function getAdminFlagsA(\n        string _metadata) external \n        view\n        onlyCLevel\n        returns \n        (\n            bool flag01,\n            bool flag02,\n            bool flag03,\n            bool flag04,\n            bool flag05,\n            bool flag06,\n            bool flag07,\n            bool flag08,\n            bool flag09,\n            bool flag10\n        ) {\n        Flags storage flag = adminFlags[_metadata];\n        flag01 = flag.flag01;\n        flag02 = flag.flag02;\n        flag03 = flag.flag03;\n        flag04 = flag.flag04;\n        flag05 = flag.flag05;\n        flag06 = flag.flag06;\n        flag07 = flag.flag07;\n        flag08 = flag.flag08;\n        flag09 = flag.flag09;\n        flag10 = flag.flag10;\n    }\n\n    function getAdminFlagsB(\n        string _metadata) external \n        view\n        onlyCLevel\n        returns \n        (\n            bool flag11,\n            bool flag12,\n            bool flag13,\n            bool flag14,\n            bool flag15,\n            bool flag16,\n            bool flag17,\n            bool flag18,\n            bool flag19,\n            bool flag20\n        ) {\n        Flags storage flag = adminFlags[_metadata];\n        flag11 = flag.flag11;\n        flag12 = flag.flag12;\n        flag13 = flag.flag13;\n        flag14 = flag.flag14;\n        flag15 = flag.flag15;\n        flag16 = flag.flag16;\n        flag17 = flag.flag17;\n        flag18 = flag.flag18;\n        flag19 = flag.flag19;\n        flag20 = flag.flag20;\n    }\n\n    // users can only set flags to true\n    function setUserFlagsTrue(string _metadata, uint _i) \n        external\n    {\n        Flags storage flag = userFlags[_metadata];\n        if (_i == 1) {\n            flag.flag01 = true;\n        }\n        if (_i == 2) {\n            flag.flag02 = true;\n        }\n        if (_i == 3) {\n            flag.flag03 = true;\n        }\n        if (_i == 4) {\n            flag.flag04 = true;\n        }\n        if (_i == 5) {\n            flag.flag05 = true;\n        }\n        if (_i == 6) {\n            flag.flag06 = true;\n        }\n        if (_i == 7) {\n            flag.flag07 = true;\n        }\n        if (_i == 8) {\n            flag.flag08 = true;\n        }\n        if (_i == 9) {\n            flag.flag09 = true;\n        }\n        if (_i == 10) {\n            flag.flag10 = true;\n        }\n        if (_i == 11) {\n            flag.flag11 = true;\n        }\n        if (_i == 12) {\n            flag.flag12 = true;\n        }\n        if (_i == 13) {\n            flag.flag13 = true;\n        }\n        if (_i == 14) {\n            flag.flag14 = true;\n        }\n        if (_i == 15) {\n            flag.flag15 = true;\n        }\n        if (_i == 16) {\n            flag.flag16 = true;\n        }\n        if (_i == 17) {\n            flag.flag17 = true;\n        }\n        if (_i == 18) {\n            flag.flag19 = true;\n        }\n        if (_i == 19) {\n            flag.flag19 = true;\n        }\n        if (_i == 20) {\n            flag.flag20 = true;\n        }\n\n        userFlags[_metadata] = flag;\n    }\n\n    function setUserFlags(string _metadata, uint _i, uint valueNumber) \n        external\n        onlyCLevel\n    {\n        bool value = false;\n        if (valueNumber > 0) {\n            value = true;\n        }\n        Flags storage flag = userFlags[_metadata];\n        if (_i == 1) {\n            flag.flag01 = value;\n        }\n        if (_i == 2) {\n            flag.flag02 = value;\n        }\n        if (_i == 3) {\n            flag.flag03 = value;\n        }\n        if (_i == 4) {\n            flag.flag04 = value;\n        }\n        if (_i == 5) {\n            flag.flag05 = value;\n        }\n        if (_i == 6) {\n            flag.flag06 = value;\n        }\n        if (_i == 7) {\n            flag.flag07 = value;\n        }\n        if (_i == 8) {\n            flag.flag08 = value;\n        }\n        if (_i == 9) {\n            flag.flag09 = value;\n        }\n        if (_i == 10) {\n            flag.flag10 = value;\n        }\n        if (_i == 11) {\n            flag.flag11 = value;\n        }\n        if (_i == 12) {\n            flag.flag12 = value;\n        }\n        if (_i == 13) {\n            flag.flag13 = value;\n        }\n        if (_i == 14) {\n            flag.flag14 = value;\n        }\n        if (_i == 15) {\n            flag.flag15 = value;\n        }\n        if (_i == 16) {\n            flag.flag16 = value;\n        }\n        if (_i == 17) {\n            flag.flag17 = value;\n        }\n        if (_i == 18) {\n            flag.flag19 = value;\n        }\n        if (_i == 19) {\n            flag.flag19 = value;\n        }\n        if (_i == 20) {\n            flag.flag20 = value;\n        }\n\n        userFlags[_metadata] = flag;\n    }\n\n    function setAdminFlags(string _metadata, uint _i, uint valueNumber) \n        external\n        onlyCLevel\n    {\n        bool value = false;\n        if (valueNumber > 0) {\n            value = true;\n        }\n        Flags storage flag = adminFlags[_metadata];\n        if (_i == 1) {\n            flag.flag01 = value;\n        }\n        if (_i == 2) {\n            flag.flag02 = value;\n        }\n        if (_i == 3) {\n            flag.flag03 = value;\n        }\n        if (_i == 4) {\n            flag.flag04 = value;\n        }\n        if (_i == 5) {\n            flag.flag05 = value;\n        }\n        if (_i == 6) {\n            flag.flag06 = value;\n        }\n        if (_i == 7) {\n            flag.flag07 = value;\n        }\n        if (_i == 8) {\n            flag.flag08 = value;\n        }\n        if (_i == 9) {\n            flag.flag09 = value;\n        }\n        if (_i == 10) {\n            flag.flag10 = value;\n        }\n        if (_i == 11) {\n            flag.flag11 = value;\n        }\n        if (_i == 12) {\n            flag.flag12 = value;\n        }\n        if (_i == 13) {\n            flag.flag13 = value;\n        }\n        if (_i == 14) {\n            flag.flag14 = value;\n        }\n        if (_i == 15) {\n            flag.flag15 = value;\n        }\n        if (_i == 16) {\n            flag.flag16 = value;\n        }\n        if (_i == 17) {\n            flag.flag17 = value;\n        }\n        if (_i == 18) {\n            flag.flag19 = value;\n        }\n        if (_i == 19) {\n            flag.flag19 = value;\n        }\n        if (_i == 20) {\n            flag.flag20 = value;\n        }\n\n        adminFlags[_metadata] = flag;\n    }\n}",
  "sourcePath": "/Users/jasonbanico/Dropbox/Workspace/CryptoTokenAdmin/contracts/TokenFlags.sol",
  "compiler": {
    "name": "solc",
    "version": "0.4.19+commit.c4cbbb05.Emscripten.clang"
  },
  "schemaVersion": "1.0.1",
  "updatedAt": "2018-03-29T09:17:10.984Z"
}